{
  "contractName": "FactoryAdjustable201907",
  "abi": [
    {
      "inputs": [
        {
          "internalType": "address",
          "name": "_aceAddress",
          "type": "address"
        }
      ],
      "payable": false,
      "stateMutability": "nonpayable",
      "type": "constructor"
    },
    {
      "anonymous": false,
      "inputs": [
        {
          "indexed": false,
          "internalType": "address",
          "name": "behaviourContract",
          "type": "address"
        }
      ],
      "name": "NoteRegistryDeployed",
      "type": "event"
    },
    {
      "anonymous": false,
      "inputs": [
        {
          "indexed": true,
          "internalType": "address",
          "name": "previousOwner",
          "type": "address"
        },
        {
          "indexed": true,
          "internalType": "address",
          "name": "newOwner",
          "type": "address"
        }
      ],
      "name": "OwnershipTransferred",
      "type": "event"
    },
    {
      "constant": true,
      "inputs": [],
      "name": "BURN_PROOF",
      "outputs": [
        {
          "internalType": "uint24",
          "name": "",
          "type": "uint24"
        }
      ],
      "payable": false,
      "stateMutability": "view",
      "type": "function"
    },
    {
      "constant": true,
      "inputs": [],
      "name": "DIVIDEND_PROOF",
      "outputs": [
        {
          "internalType": "uint24",
          "name": "",
          "type": "uint24"
        }
      ],
      "payable": false,
      "stateMutability": "view",
      "type": "function"
    },
    {
      "constant": true,
      "inputs": [],
      "name": "JOIN_SPLIT_PROOF",
      "outputs": [
        {
          "internalType": "uint24",
          "name": "",
          "type": "uint24"
        }
      ],
      "payable": false,
      "stateMutability": "view",
      "type": "function"
    },
    {
      "constant": true,
      "inputs": [],
      "name": "MINT_PROOF",
      "outputs": [
        {
          "internalType": "uint24",
          "name": "",
          "type": "uint24"
        }
      ],
      "payable": false,
      "stateMutability": "view",
      "type": "function"
    },
    {
      "constant": true,
      "inputs": [],
      "name": "PRIVATE_RANGE_PROOF",
      "outputs": [
        {
          "internalType": "uint24",
          "name": "",
          "type": "uint24"
        }
      ],
      "payable": false,
      "stateMutability": "view",
      "type": "function"
    },
    {
      "constant": true,
      "inputs": [],
      "name": "PUBLIC_RANGE_PROOF",
      "outputs": [
        {
          "internalType": "uint24",
          "name": "",
          "type": "uint24"
        }
      ],
      "payable": false,
      "stateMutability": "view",
      "type": "function"
    },
    {
      "constant": false,
      "inputs": [
        {
          "internalType": "address",
          "name": "_proxy",
          "type": "address"
        },
        {
          "internalType": "address",
          "name": "_newImplementation",
          "type": "address"
        },
        {
          "internalType": "address",
          "name": "_newProxyAdmin",
          "type": "address"
        }
      ],
      "name": "handoverBehaviour",
      "outputs": [],
      "payable": false,
      "stateMutability": "nonpayable",
      "type": "function"
    },
    {
      "constant": true,
      "inputs": [],
      "name": "isOwner",
      "outputs": [
        {
          "internalType": "bool",
          "name": "",
          "type": "bool"
        }
      ],
      "payable": false,
      "stateMutability": "view",
      "type": "function"
    },
    {
      "constant": true,
      "inputs": [],
      "name": "owner",
      "outputs": [
        {
          "internalType": "address",
          "name": "",
          "type": "address"
        }
      ],
      "payable": false,
      "stateMutability": "view",
      "type": "function"
    },
    {
      "constant": false,
      "inputs": [],
      "name": "renounceOwnership",
      "outputs": [],
      "payable": false,
      "stateMutability": "nonpayable",
      "type": "function"
    },
    {
      "constant": false,
      "inputs": [
        {
          "internalType": "address",
          "name": "newOwner",
          "type": "address"
        }
      ],
      "name": "transferOwnership",
      "outputs": [],
      "payable": false,
      "stateMutability": "nonpayable",
      "type": "function"
    },
    {
      "constant": false,
      "inputs": [],
      "name": "deployNewBehaviourInstance",
      "outputs": [
        {
          "internalType": "address",
          "name": "",
          "type": "address"
        }
      ],
      "payable": false,
      "stateMutability": "nonpayable",
      "type": "function"
    }
  ],
  "bytecode": "0x608060405234801561001057600080fd5b50604051612da6380380612da68339818101604052602081101561003357600080fd5b810190808051906020019092919050505080600061005561010960201b60201c565b9050806000806101000a81548173ffffffffffffffffffffffffffffffffffffffff021916908373ffffffffffffffffffffffffffffffffffffffff1602179055508073ffffffffffffffffffffffffffffffffffffffff16600073ffffffffffffffffffffffffffffffffffffffff167f8be0079c531659141344cd1fd0a4f28419497f9722a3daafe3b4186f6b6457e060405160405180910390a3506101028161011160201b60201c565b505061034b565b600033905090565b61011f6101a360201b60201c565b610191576040517f08c379a00000000000000000000000000000000000000000000000000000000081526004018080602001828103825260208152602001807f4f776e61626c653a2063616c6c6572206973206e6f7420746865206f776e657281525060200191505060405180910390fd5b6101a08161020760201b60201c565b50565b60008060009054906101000a900473ffffffffffffffffffffffffffffffffffffffff1673ffffffffffffffffffffffffffffffffffffffff166101eb61010960201b60201c565b73ffffffffffffffffffffffffffffffffffffffff1614905090565b600073ffffffffffffffffffffffffffffffffffffffff168173ffffffffffffffffffffffffffffffffffffffff16141561028d576040517f08c379a0000000000000000000000000000000000000000000000000000000008152600401808060200182810382526026815260200180612d806026913960400191505060405180910390fd5b8073ffffffffffffffffffffffffffffffffffffffff166000809054906101000a900473ffffffffffffffffffffffffffffffffffffffff1673ffffffffffffffffffffffffffffffffffffffff167f8be0079c531659141344cd1fd0a4f28419497f9722a3daafe3b4186f6b6457e060405160405180910390a3806000806101000a81548173ffffffffffffffffffffffffffffffffffffffff021916908373ffffffffffffffffffffffffffffffffffffffff16021790555050565b612a268061035a6000396000f3fe608060405234801561001057600080fd5b50600436106100b35760003560e01c80638da5cb5b116100715780638da5cb5b146101ac5780638e526d9b146101f65780638f32d59b1461021e578063b5ee31f014610240578063df924625146102c4578063f2fde38b146102ec576100b3565b80625bf732146100b857806308ae900a146100e05780630f5d1a391461010857806349518b2814610152578063715018a61461017a5780638500e1f814610184575b600080fd5b6100c0610330565b604051808262ffffff1662ffffff16815260200191505060405180910390f35b6100e8610337565b604051808262ffffff1662ffffff16815260200191505060405180910390f35b61011061033e565b604051808273ffffffffffffffffffffffffffffffffffffffff1673ffffffffffffffffffffffffffffffffffffffff16815260200191505060405180910390f35b61015a610451565b604051808262ffffff1662ffffff16815260200191505060405180910390f35b610182610458565b005b61018c610591565b604051808262ffffff1662ffffff16815260200191505060405180910390f35b6101b4610598565b604051808273ffffffffffffffffffffffffffffffffffffffff1673ffffffffffffffffffffffffffffffffffffffff16815260200191505060405180910390f35b6101fe6105c1565b604051808262ffffff1662ffffff16815260200191505060405180910390f35b6102266105c8565b604051808215151515815260200191505060405180910390f35b6102c26004803603606081101561025657600080fd5b81019080803573ffffffffffffffffffffffffffffffffffffffff169060200190929190803573ffffffffffffffffffffffffffffffffffffffff169060200190929190803573ffffffffffffffffffffffffffffffffffffffff169060200190929190505050610626565b005b6102cc6108d9565b604051808262ffffff1662ffffff16815260200191505060405180910390f35b61032e6004803603602081101561030257600080fd5b81019080803573ffffffffffffffffffffffffffffffffffffffff1690602001909291905050506108e0565b005b6201010181565b6201040381565b60006103486105c8565b6103ba576040517f08c379a00000000000000000000000000000000000000000000000000000000081526004018080602001828103825260208152602001807f4f776e61626c653a2063616c6c6572206973206e6f7420746865206f776e657281525060200191505060405180910390fd5b60006040516103c890610ab2565b604051809103906000f0801580156103e4573d6000803e3d6000fd5b5090507ff0b9411f46edcf614ae2f9fe981a238b88f643e02271a06f46cae1674dfad29581604051808273ffffffffffffffffffffffffffffffffffffffff1673ffffffffffffffffffffffffffffffffffffffff16815260200191505060405180910390a18091505090565b6201040281565b6104606105c8565b6104d2576040517f08c379a00000000000000000000000000000000000000000000000000000000081526004018080602001828103825260208152602001807f4f776e61626c653a2063616c6c6572206973206e6f7420746865206f776e657281525060200191505060405180910390fd5b600073ffffffffffffffffffffffffffffffffffffffff166000809054906101000a900473ffffffffffffffffffffffffffffffffffffffff1673ffffffffffffffffffffffffffffffffffffffff167f8be0079c531659141344cd1fd0a4f28419497f9722a3daafe3b4186f6b6457e060405160405180910390a360008060006101000a81548173ffffffffffffffffffffffffffffffffffffffff021916908373ffffffffffffffffffffffffffffffffffffffff160217905550565b6201040181565b60008060009054906101000a900473ffffffffffffffffffffffffffffffffffffffff16905090565b6201020181565b60008060009054906101000a900473ffffffffffffffffffffffffffffffffffffffff1673ffffffffffffffffffffffffffffffffffffffff1661060a610966565b73ffffffffffffffffffffffffffffffffffffffff1614905090565b61062e6105c8565b6106a0576040517f08c379a00000000000000000000000000000000000000000000000000000000081526004018080602001828103825260208152602001807f4f776e61626c653a2063616c6c6572206973206e6f7420746865206f776e657281525060200191505060405180910390fd5b3073ffffffffffffffffffffffffffffffffffffffff168373ffffffffffffffffffffffffffffffffffffffff1663f851a4406040518163ffffffff1660e01b8152600401602060405180830381600087803b1580156106ff57600080fd5b505af1158015610713573d6000803e3d6000fd5b505050506040513d602081101561072957600080fd5b810190808051906020019092919050505073ffffffffffffffffffffffffffffffffffffffff16146107a6576040517f08c379a00000000000000000000000000000000000000000000000000000000081526004018080602001828103825260228152602001806129d06022913960400191505060405180910390fd5b8273ffffffffffffffffffffffffffffffffffffffff16633659cfe6836040518263ffffffff1660e01b8152600401808273ffffffffffffffffffffffffffffffffffffffff1673ffffffffffffffffffffffffffffffffffffffff168152602001915050600060405180830381600087803b15801561082557600080fd5b505af1158015610839573d6000803e3d6000fd5b505050508273ffffffffffffffffffffffffffffffffffffffff16638f283970826040518263ffffffff1660e01b8152600401808273ffffffffffffffffffffffffffffffffffffffff1673ffffffffffffffffffffffffffffffffffffffff168152602001915050600060405180830381600087803b1580156108bc57600080fd5b505af11580156108d0573d6000803e3d6000fd5b50505050505050565b6201030181565b6108e86105c8565b61095a576040517f08c379a00000000000000000000000000000000000000000000000000000000081526004018080602001828103825260208152602001807f4f776e61626c653a2063616c6c6572206973206e6f7420746865206f776e657281525060200191505060405180910390fd5b6109638161096e565b50565b600033905090565b600073ffffffffffffffffffffffffffffffffffffffff168173ffffffffffffffffffffffffffffffffffffffff1614156109f4576040517f08c379a00000000000000000000000000000000000000000000000000000000081526004018080602001828103825260268152602001806129aa6026913960400191505060405180910390fd5b8073ffffffffffffffffffffffffffffffffffffffff166000809054906101000a900473ffffffffffffffffffffffffffffffffffffffff1673ffffffffffffffffffffffffffffffffffffffff167f8be0079c531659141344cd1fd0a4f28419497f9722a3daafe3b4186f6b6457e060405160405180910390a3806000806101000a81548173ffffffffffffffffffffffffffffffffffffffff021916908373ffffffffffffffffffffffffffffffffffffffff16021790555050565b611eea80610ac08339019056fe608060405234801561001057600080fd5b5060006100216100df60201b60201c565b9050806000806101000a81548173ffffffffffffffffffffffffffffffffffffffff021916908373ffffffffffffffffffffffffffffffffffffffff1602179055508073ffffffffffffffffffffffffffffffffffffffff16600073ffffffffffffffffffffffffffffffffffffffff167f8be0079c531659141344cd1fd0a4f28419497f9722a3daafe3b4186f6b6457e060405160405180910390a3506001600060146101000a81548160ff0219169083151502179055506100e7565b600033905090565b611df4806100f66000396000f3fe608060405234801561001057600080fd5b50600436106101415760003560e01c80637ba0e2e7116100b85780638f32d59b1161007c5780638f32d59b1461062b57806398df3d001461064d578063ad32f925146106f2578063ce884343146106fc578063df92462514610762578063f2fde38b1461078a57610141565b80637ba0e2e7146104b45780638500e1f81461056f57806385c418f3146105975780638da5cb5b146105b95780638e526d9b1461060357610141565b80632a07b6c71161010a5780632a07b6c71461022057806338661238146102db57806349518b28146103f35780635ab1bd531461041b578063715018a61461045d5780637b1039991461046757610141565b80625bf7321461014657806303e012e31461016e57806307003bb4146101b857806307616051146101da57806308ae900a146101f8575b600080fd5b61014e6107ce565b604051808262ffffff1662ffffff16815260200191505060405180910390f35b6101766107d5565b604051808273ffffffffffffffffffffffffffffffffffffffff1673ffffffffffffffffffffffffffffffffffffffff16815260200191505060405180910390f35b6101c06107fb565b604051808215151515815260200191505060405180910390f35b6101e261080e565b6040518082815260200191505060405180910390f35b610200610835565b604051808262ffffff1662ffffff16815260200191505060405180910390f35b6102d96004803603602081101561023657600080fd5b810190808035906020019064010000000081111561025357600080fd5b82018360208201111561026557600080fd5b8035906020019184600183028401116401000000008311171561028757600080fd5b91908080601f016020809104026020016040519081016040528093929190818152602001838380828437600081840152601f19601f82011690508083019250505050505050919291929050505061083c565b005b6103a3600480360360408110156102f157600080fd5b81019080803562ffffff1690602001909291908035906020019064010000000081111561031d57600080fd5b82018360208201111561032f57600080fd5b8035906020019184600183028401116401000000008311171561035157600080fd5b91908080601f016020809104026020016040519081016040528093929190818152602001838380828437600081840152601f19601f820116905080830192505050505050509192919290505050610a46565b604051808473ffffffffffffffffffffffffffffffffffffffff1673ffffffffffffffffffffffffffffffffffffffff168152602001838152602001828152602001935050505060405180910390f35b6103fb610c29565b604051808262ffffff1662ffffff16815260200191505060405180910390f35b610423610c30565b6040518086815260200185815260200184815260200183151515158152602001821515151581526020019550505050505060405180910390f35b610465610d0c565b005b61046f610e45565b60405180871515151581526020018681526020018581526020018481526020018315151515815260200182151515158152602001965050505050505060405180910390f35b61056d600480360360208110156104ca57600080fd5b81019080803590602001906401000000008111156104e757600080fd5b8201836020820111156104f957600080fd5b8035906020019184600183028401116401000000008311171561051b57600080fd5b91908080601f016020809104026020016040519081016040528093929190818152602001838380828437600081840152601f19601f820116905080830192505050505050509192919290505050610e96565b005b61057761109f565b604051808262ffffff1662ffffff16815260200191505060405180910390f35b61059f6110a6565b604051808215151515815260200191505060405180910390f35b6105c16110b9565b604051808273ffffffffffffffffffffffffffffffffffffffff1673ffffffffffffffffffffffffffffffffffffffff16815260200191505060405180910390f35b61060b6110e2565b604051808262ffffff1662ffffff16815260200191505060405180910390f35b6106336110e9565b604051808215151515815260200191505060405180910390f35b6106796004803603602081101561066357600080fd5b8101908080359060200190929190505050611147565b604051808560ff1660ff1681526020018464ffffffffff1664ffffffffff1681526020018364ffffffffff1664ffffffffff1681526020018273ffffffffffffffffffffffffffffffffffffffff1673ffffffffffffffffffffffffffffffffffffffff16815260200194505050505060405180910390f35b6106fa61125c565b005b6107606004803603608081101561071257600080fd5b81019080803573ffffffffffffffffffffffffffffffffffffffff1690602001909291908035906020019092919080351515906020019092919080351515906020019092919050505061125e565b005b61076a611450565b604051808262ffffff1662ffffff16815260200191505060405180910390f35b6107cc600480360360208110156107a057600080fd5b81019080803573ffffffffffffffffffffffffffffffffffffffff169060200190929190505050611457565b005b6201010181565b600160009054906101000a900473ffffffffffffffffffffffffffffffffffffffff1681565b600060159054906101000a900460ff1681565b7f26d21f105b054b61e8d9680855c3af0633bd7c140b87de95f0ac218046fc71db60001b81565b6201040381565b6108446110e9565b6108b6576040517f08c379a00000000000000000000000000000000000000000000000000000000081526004018080602001828103825260208152602001807f4f776e61626c653a2063616c6c6572206973206e6f7420746865206f776e657281525060200191505060405180910390fd5b60011515600260040160019054906101000a900460ff16151514610942576040517f08c379a000000000000000000000000000000000000000000000000000000000815260040180806020018281038252601a8152602001807f74686973206173736574206973206e6f74206275726e61626c6500000000000081525060200191505060405180910390fd5b60608061096161095c6000856114dd90919063ffffffff16565b611555565b50509150915060606109856109806001866114dd90919063ffffffff16565b611555565b505091505060006109a86109a36000866114dd90919063ffffffff16565b611598565b509150506002600301548114610a09576040517f08c379a0000000000000000000000000000000000000000000000000000000008152600401808060200182810382526029815260200180611ca56029913960400191505060405180910390fd5b6000610a27610a226000866114dd90919063ffffffff16565b611598565b50915050610a34816115ce565b50610a3e8361165c565b505050505050565b6000806000610a536110e9565b610ac5576040517f08c379a00000000000000000000000000000000000000000000000000000000081526004018080602001828103825260208152602001807f4f776e61626c653a2063616c6c6572206973206e6f7420746865206f776e657281525060200191505060405180910390fd5b60011515600260000160009054906101000a900460ff16151514610b34576040517f08c379a0000000000000000000000000000000000000000000000000000000008152600401808060200182810382526032815260200180611d236032913960400191505060405180910390fd5b606080610b4086611555565b80965081985082945083955050505050610b598261165c565b610b62816116b6565b60008314610c205760011515600260040160009054906101000a900460ff16151514610bd9576040517f08c379a000000000000000000000000000000000000000000000000000000000815260040180806020018281038252602c815260200180611cf7602c913960400191505060405180910390fd5b6000831215610c0457610bfd6002600101548460000361179690919063ffffffff16565b9350610c1f565b610c1c6002600101548461179690919063ffffffff16565b93505b5b50509250925092565b6201040281565b600080600080600060011515600260000160009054906101000a900460ff16151514610cc4576040517f08c379a000000000000000000000000000000000000000000000000000000000815260040180806020018281038252601f8152602001807f657870656374656420726567697374727920746f20626520637265617465640081525060200191505060405180910390fd5b6002600101549450600280015493506002600301549250600260040160009054906101000a900460ff169150600260040160019054906101000a900460ff1690509091929394565b610d146110e9565b610d86576040517f08c379a00000000000000000000000000000000000000000000000000000000081526004018080602001828103825260208152602001807f4f776e61626c653a2063616c6c6572206973206e6f7420746865206f776e657281525060200191505060405180910390fd5b600073ffffffffffffffffffffffffffffffffffffffff166000809054906101000a900473ffffffffffffffffffffffffffffffffffffffff1673ffffffffffffffffffffffffffffffffffffffff167f8be0079c531659141344cd1fd0a4f28419497f9722a3daafe3b4186f6b6457e060405160405180910390a360008060006101000a81548173ffffffffffffffffffffffffffffffffffffffff021916908373ffffffffffffffffffffffffffffffffffffffff160217905550565b60028060000160009054906101000a900460ff16908060010154908060020154908060030154908060040160009054906101000a900460ff16908060040160019054906101000a900460ff16905086565b610e9e6110e9565b610f10576040517f08c379a00000000000000000000000000000000000000000000000000000000081526004018080602001828103825260208152602001807f4f776e61626c653a2063616c6c6572206973206e6f7420746865206f776e657281525060200191505060405180910390fd5b60011515600260040160019054906101000a900460ff16151514610f9c576040517f08c379a000000000000000000000000000000000000000000000000000000000815260040180806020018281038252601a8152602001807f74686973206173736574206973206e6f74206d696e7461626c6500000000000081525060200191505060405180910390fd5b606080610fbb610fb66000856114dd90919063ffffffff16565b611555565b5050915091506060610fdf610fda6001866114dd90919063ffffffff16565b611555565b50509150506000611002610ffd6000866114dd90919063ffffffff16565b611598565b5091505060028001548114611062576040517f08c379a0000000000000000000000000000000000000000000000000000000008152600401808060200182810382526029815260200180611cce6029913960400191505060405180910390fd5b600061108061107b6000866114dd90919063ffffffff16565b611598565b5091505061108d8161181c565b50611097836116b6565b505050505050565b6201040181565b600060149054906101000a900460ff1681565b60008060009054906101000a900473ffffffffffffffffffffffffffffffffffffffff16905090565b6201020181565b60008060009054906101000a900473ffffffffffffffffffffffffffffffffffffffff1673ffffffffffffffffffffffffffffffffffffffff1661112b6118a9565b73ffffffffffffffffffffffffffffffffffffffff1614905090565b6000806000806000600281111561115a57fe5b60ff166002600501600087815260200190815260200160002060000160009054906101000a900460ff1660ff1614156111fb576040517f08c379a00000000000000000000000000000000000000000000000000000000081526004018080602001828103825260168152602001807f6578706563746564206e6f746520746f2065786973740000000000000000000081525060200191505060405180910390fd5b6000600260050160008781526020019081526020016000209050805460ff8116955064ffffffffff8160081c16945064ffffffffff8160301c16935073ffffffffffffffffffffffffffffffffffffffff8160581c16925050509193509193565b565b60011515600060159054906101000a900460ff16151514156112e8576040517f08c379a000000000000000000000000000000000000000000000000000000000815260040180806020018281038252601c8152602001807f726567697374727920616c726561647920696e697469616c697365640000000081525060200191505060405180910390fd5b6112f1846118b1565b33600160006101000a81548173ffffffffffffffffffffffffffffffffffffffff021916908373ffffffffffffffffffffffffffffffffffffffff1602179055506040518060c001604052806001151581526020018481526020017f26d21f105b054b61e8d9680855c3af0633bd7c140b87de95f0ac218046fc71db60001b81526020017f26d21f105b054b61e8d9680855c3af0633bd7c140b87de95f0ac218046fc71db60001b81526020018215158152602001831515815250600260008201518160000160006101000a81548160ff02191690831515021790555060208201518160010155604082015181600201556060820151816003015560808201518160040160006101000a81548160ff02191690831515021790555060a08201518160040160016101000a81548160ff0219169083151502179055509050506001600060156101000a81548160ff02191690831515021790555050505050565b6201030181565b61145f6110e9565b6114d1576040517f08c379a00000000000000000000000000000000000000000000000000000000081526004018080602001828103825260208152602001807f4f776e61626c653a2063616c6c6572206973206e6f7420746865206f776e657281525060200191505060405180910390fd5b6114da816118b1565b50565b6060600060208401518310905083602084026040860101510191508061154e576040517f08c379a0000000000000000000000000000000000000000000000000000000008152600401808060200182810382526022815260200180611d9e6022913960400191505060405180910390fd5b5092915050565b60608060008060208501518501935060408501518501925073ffffffffffffffffffffffffffffffffffffffff6060860151169150608085015190509193509193565b600080606073ffffffffffffffffffffffffffffffffffffffff6040850151169250606084015191506080840190509193909250565b60006115d86110e9565b61164a576040517f08c379a00000000000000000000000000000000000000000000000000000000081526004018080602001828103825260208152602001807f4f776e61626c653a2063616c6c6572206973206e6f7420746865206f776e657281525060200191505060405180910390fd5b81600260030181905550819050919050565b6000611667826119f5565b905060008090505b818110156116b15760008061169561169084876114dd90919063ffffffff16565b611598565b50915091506116a48183611a03565b505060018101905061166f565b505050565b60006116c1826119f5565b905060008090505b81811015611791576000806116ef6116ea84876114dd90919063ffffffff16565b611598565b5091509150600073ffffffffffffffffffffffffffffffffffffffff168273ffffffffffffffffffffffffffffffffffffffff16141561177a576040517f08c379a0000000000000000000000000000000000000000000000000000000008152600401808060200182810382526028815260200180611d766028913960400191505060405180910390fd5b6117848183611ba1565b50506001810190506116c9565b505050565b6000808314156117a95760009050611816565b60008284029050828482816117ba57fe5b0414611811576040517f08c379a0000000000000000000000000000000000000000000000000000000008152600401808060200182810382526021815260200180611d556021913960400191505060405180910390fd5b809150505b92915050565b60006118266110e9565b611898576040517f08c379a00000000000000000000000000000000000000000000000000000000081526004018080602001828103825260208152602001807f4f776e61626c653a2063616c6c6572206973206e6f7420746865206f776e657281525060200191505060405180910390fd5b816002800181905550819050919050565b600033905090565b600073ffffffffffffffffffffffffffffffffffffffff168173ffffffffffffffffffffffffffffffffffffffff161415611937576040517f08c379a0000000000000000000000000000000000000000000000000000000008152600401808060200182810382526026815260200180611c7f6026913960400191505060405180910390fd5b8073ffffffffffffffffffffffffffffffffffffffff166000809054906101000a900473ffffffffffffffffffffffffffffffffffffffff1673ffffffffffffffffffffffffffffffffffffffff167f8be0079c531659141344cd1fd0a4f28419497f9722a3daafe3b4186f6b6457e060405160405180910390a3806000806101000a81548173ffffffffffffffffffffffffffffffffffffffff021916908373ffffffffffffffffffffffffffffffffffffffff16021790555050565b600060208201519050919050565b6000600280811115611a1157fe5b90506000806000600260050160008781526020019081526020016000209050805460ff8116935073ffffffffffffffffffffffffffffffffffffffff8160581c16925060ff851664ffffffffff421660301b176affffffffff0000000000ff1982161782555060016002811115611a8457fe5b8314611af8576040517f08c379a00000000000000000000000000000000000000000000000000000000081526004018080602001828103825260208152602001807f696e707574206e6f746520737461747573206973206e6f7420554e5350454e5481525060200191505060405180910390fd5b8473ffffffffffffffffffffffffffffffffffffffff168273ffffffffffffffffffffffffffffffffffffffff1614611b99576040517f08c379a000000000000000000000000000000000000000000000000000000000815260040180806020018281038252601f8152602001807f696e707574206e6f7465206f776e657220646f6573206e6f74206d617463680081525060200191505060405180910390fd5b505050505050565b600060016002811115611bb057fe5b9050600060026005016000858152602001908152602001600020905060006002811115611bd957fe5b8160000160009054906101000a900460ff1660ff1614611c61576040517f08c379a00000000000000000000000000000000000000000000000000000000081526004018080602001828103825260128152602001807f6f7574707574206e6f746520657869737473000000000000000000000000000081525060200191505060405180910390fd5b8260581b64ffffffffff421660081b60ff8416171781555050505056fe4f776e61626c653a206e6577206f776e657220697320746865207a65726f206164647265737370726f766964656420746f74616c206275726e6564206e6f746520646f6573206e6f74206d6174636870726f766964656420746f74616c206d696e746564206e6f746520646f6573206e6f74206d6174636861737365742063616e6e6f7420626520636f6e76657274656420696e746f207075626c696320746f6b656e736e6f746520726567697374727920646f6573206e6f7420657869737420666f722074686520676976656e2061646472657373536166654d6174683a206d756c7469706c69636174696f6e206f766572666c6f776f7574707574206e6f7465206f776e65722063616e6e6f7420626520616464726573732830783029415a54454320617272617920696e646578206973206f7574206f6620626f756e6473a265627a7a723158206a03733ce2542363f8be1165c3f5c7d05d64a15aa3137b29fda08ff1dc3c8e0264736f6c634300051000324f776e61626c653a206e6577206f776e657220697320746865207a65726f206164647265737374686973206973206e6f74207468652061646d696e206f66207468652070726f7879a265627a7a723158202c0dd101bd992801a90a6a85f51ffe94eb6d7182a2447220eb3cf1b923dccbf264736f6c634300051000324f776e61626c653a206e6577206f776e657220697320746865207a65726f2061646472657373",
  "source": "pragma solidity >=0.5.0 <0.6.0;\n\nimport \"../../../interfaces/NoteRegistryFactory.sol\";\nimport \"./BehaviourAdjustable201907.sol\";\n\n/**\n * @title FactoryAdjustable201907\n * @author AZTEC\n * @dev Deploys a BehaviourAdjustable201907\n *\n * Copyright 2020 Spilsbury Holdings Ltd \n *\n * Licensed under the GNU Lesser General Public Licence, Version 3.0 (the \"License\");\n * you may not use this file except in compliance with the License.\n *\n * This program is distributed in the hope that it will be useful,\n * but WITHOUT ANY WARRANTY; without even the implied warranty of\n * MERCHANTABILITY or FITNESS FOR A PARTICULAR PURPOSE.  See the\n * GNU Lesser General Public License for more details.\n *\n * You should have received a copy of the GNU Lesser General Public License\n * along with this program.  If not, see <https://www.gnu.org/licenses/>.\n **/\ncontract FactoryAdjustable201907 is NoteRegistryFactory {\n    constructor(address _aceAddress) public NoteRegistryFactory(_aceAddress) {}\n\n    function deployNewBehaviourInstance()\n        public\n        onlyOwner\n        returns (address)\n    {\n        BehaviourAdjustable201907 behaviourContract = new BehaviourAdjustable201907();\n        emit NoteRegistryDeployed(address(behaviourContract));\n        return address(behaviourContract);\n    }\n}\n",
  "sourcePath": "@aztec/protocol/contracts/ACE/noteRegistry/epochs/201907/adjustable/FactoryAdjustable201907.sol",
  "compiler": {
    "name": "solc",
    "version": "0.5.16+commit.9c3226ce.Emscripten.clang"
  },
  "schemaVersion": "3.2.0",
  "updatedAt": "2020-07-07T03:22:24.601Z",
  "devdoc": {
    "author": "AZTEC",
    "details": "Deploys a BehaviourAdjustable201907 * Copyright 2020 Spilsbury Holdings Ltd  * Licensed under the GNU Lesser General Public Licence, Version 3.0 (the \"License\"); you may not use this file except in compliance with the License. * This program is distributed in the hope that it will be useful, but WITHOUT ANY WARRANTY; without even the implied warranty of MERCHANTABILITY or FITNESS FOR A PARTICULAR PURPOSE.  See the GNU Lesser General Public License for more details. * You should have received a copy of the GNU Lesser General Public License along with this program.  If not, see <https://www.gnu.org/licenses/>.*",
    "methods": {
      "isOwner()": {
        "details": "Returns true if the caller is the current owner."
      },
      "owner()": {
        "details": "Returns the address of the current owner."
      },
      "renounceOwnership()": {
        "details": "Leaves the contract without owner. It will not be possible to call `onlyOwner` functions anymore. Can only be called by the current owner.     * NOTE: Renouncing ownership will leave the contract without an owner, thereby removing any functionality that is only available to the owner."
      },
      "transferOwnership(address)": {
        "details": "Transfers ownership of the contract to a new account (`newOwner`). Can only be called by the current owner."
      }
    },
    "title": "FactoryAdjustable201907"
  },
  "userdoc": {
    "methods": {}
  }
}