{
  "contractName": "LibEIP712",
  "abi": [
    {
      "inputs": [],
      "payable": false,
      "stateMutability": "nonpayable",
      "type": "constructor"
    },
    {
      "constant": true,
      "inputs": [],
      "name": "EIP712_DOMAIN_HASH",
      "outputs": [
        {
          "internalType": "bytes32",
          "name": "",
          "type": "bytes32"
        }
      ],
      "payable": false,
      "stateMutability": "view",
      "type": "function"
    }
  ],
  "bytecode": "0x608060405234801561001057600080fd5b5060405160200180807f454950373132446f6d61696e2800000000000000000000000000000000000000815250600d01807f737472696e67206e616d652c0000000000000000000000000000000000000000815250600c01807f737472696e672076657273696f6e2c0000000000000000000000000000000000815250600f01807f6164647265737320766572696679696e67436f6e747261637400000000000000815250601901807f29000000000000000000000000000000000000000000000000000000000000008152506001019050604051602081830303815290604052805190602001206040518060400160405280601981526020017f415a5445435f43525950544f4752415048595f454e47494e4500000000000000815250805190602001206040518060400160405280600181526020017f31000000000000000000000000000000000000000000000000000000000000008152508051906020012030604051602001808581526020018481526020018381526020018273ffffffffffffffffffffffffffffffffffffffff1673ffffffffffffffffffffffffffffffffffffffff168152602001945050505050604051602081830303815290604052805190602001206000819055506084806101ee6000396000f3fe6080604052348015600f57600080fd5b506004361060285760003560e01c8063e306f77914602d575b600080fd5b60336049565b6040518082815260200191505060405180910390f35b6000548156fea265627a7a72315820a87d45b9cb28a15ca62a3907ccdce58acff4c9245c411fd0e1827bccd66c84bc64736f6c63430005100032",
  "source": "pragma solidity >=0.5.0 <0.6.0;\n\n\n/**\n * @title Library of EIP712 utility constants and functions\n * @author AZTEC\n *\n * Copyright 2020 Spilsbury Holdings Ltd \n *\n * Licensed under the GNU Lesser General Public Licence, Version 3.0 (the \"License\");\n * you may not use this file except in compliance with the License.\n *\n * This program is distributed in the hope that it will be useful,\n * but WITHOUT ANY WARRANTY; without even the implied warranty of\n * MERCHANTABILITY or FITNESS FOR A PARTICULAR PURPOSE.  See the\n * GNU Lesser General Public License for more details.\n *\n * You should have received a copy of the GNU Lesser General Public License\n * along with this program.  If not, see <https://www.gnu.org/licenses/>.\n**/\ncontract LibEIP712 {\n\n    // EIP712 Domain Name value\n    string constant internal EIP712_DOMAIN_NAME = \"AZTEC_CRYPTOGRAPHY_ENGINE\";\n\n    // EIP712 Domain Version value\n    string constant internal EIP712_DOMAIN_VERSION = \"1\";\n\n    // Hash of the EIP712 Domain Separator Schema\n    bytes32 constant internal EIP712_DOMAIN_SEPARATOR_SCHEMA_HASH = keccak256(abi.encodePacked(\n        \"EIP712Domain(\",\n            \"string name,\",\n            \"string version,\",\n            \"address verifyingContract\",\n        \")\"\n    ));\n\n    // Hash of the EIP712 Domain Separator data\n    // solhint-disable-next-line var-name-mixedcase\n    bytes32 public EIP712_DOMAIN_HASH;\n\n    constructor ()\n        public\n    {\n        EIP712_DOMAIN_HASH = keccak256(abi.encode(\n            EIP712_DOMAIN_SEPARATOR_SCHEMA_HASH,\n            keccak256(bytes(EIP712_DOMAIN_NAME)),\n            keccak256(bytes(EIP712_DOMAIN_VERSION)),\n            address(this)\n        ));\n    }\n\n    /// @dev Calculates EIP712 encoding for a hash struct in this EIP712 Domain.\n    /// @param _hashStruct The EIP712 hash struct.\n    /// @return EIP712 hash applied to this EIP712 Domain.\n    function hashEIP712Message(bytes32 _hashStruct)\n        internal\n        view\n        returns (bytes32 _result)\n    {\n        bytes32 eip712DomainHash = EIP712_DOMAIN_HASH;\n\n        // Assembly for more efficient computing:\n        // keccak256(abi.encodePacked(\n        //     EIP191_HEADER,\n        //     EIP712_DOMAIN_HASH,\n        //     hashStruct\n        // ));\n\n        assembly {\n            // Load free memory pointer. We're not going to use it - we're going to overwrite it!\n            // We need 0x60 bytes of memory for this hash,\n            // cheaper to overwrite the free memory pointer at 0x40, and then replace it, than allocating free memory\n            let memPtr := mload(0x40)\n            mstore(0x00, 0x1901)               // EIP191 header\n            mstore(0x20, eip712DomainHash)     // EIP712 domain hash\n            mstore(0x40, _hashStruct)          // Hash of struct\n            _result := keccak256(0x1e, 0x42)   // compute hash\n            // replace memory pointer\n            mstore(0x40, memPtr)\n        }\n    }\n\n    /// @dev Extracts the address of the signer with ECDSA.\n    /// @param _message The EIP712 message.\n    /// @param _signature The ECDSA values, v, r and s.\n    /// @return The address of the message signer.\n    function recoverSignature(\n        bytes32 _message,\n        bytes memory _signature\n    ) internal view returns (address _signer) {\n        bool result;\n        assembly {\n            // Here's a little trick we can pull. We expect `_signature` to be a byte array, of length 0x60, with\n            // 'v', 'r' and 's' located linearly in memory. Preceeding this is the length parameter of `_signature`.\n            // We *replace* the length param with the signature msg to get a memory block formatted for the precompile\n            // load length as a temporary variable\n\n            let byteLength := mload(_signature)\n\n            // store the signature message\n            mstore(_signature, _message)\n\n            // load 'v' - we need it for a condition check\n            // add 0x60 to jump over 3 words - length of bytes array, r and s\n            let v := mload(add(_signature, 0x60))\n            let s := mload(add(_signature, 0x40))\n            v := shr(248, v) // bitshifting, to resemble padLeft\n\n            /**\n            * Original memory map for input to precompile\n            *\n            * _signature : _signature + 0x20            message\n            * _signature + 0x20 : _signature + 0x40     r\n            * _signature + 0x40 : _signature + 0x60     s\n            * _signature + 0x60 : _signature + 0x80     v\n\n            * Desired memory map for input to precompile\n            *\n            * _signature : _signature + 0x20            message\n            * _signature + 0x20 : _signature + 0x40     v\n            * _signature + 0x40 : _signature + 0x60     r\n            * _signature + 0x60 : _signature + 0x80     s\n            */\n\n            // move s to v position\n            mstore(add(_signature, 0x60), mload(add(_signature, 0x40)))\n            // move r to s position\n            mstore(add(_signature, 0x40), mload(add(_signature, 0x20)))\n            // move v to r position\n            mstore(add(_signature, 0x20), v)\n            result := and(\n                and(\n                    // validate s is in lower half order\n                    lt(s, 0x7FFFFFFFFFFFFFFFFFFFFFFFFFFFFFFF5D576E7357A4501DDFE92F46681B20A0),\n                    and(\n                        // validate signature length == 0x41\n                        eq(byteLength, 0x41),\n                        // validate v == 27 or v == 28\n                        or(eq(v, 27), eq(v, 28))\n                    )\n                ),\n                // validate call to precompile succeeds\n                staticcall(gas, 0x01, _signature, 0x80, _signature, 0x20)\n            )\n            // save the _signer only if the first word in _signature is not `_message` anymore\n            switch eq(_message, mload(_signature))\n            case 0 {\n                _signer := mload(_signature)\n            }\n            mstore(_signature, byteLength) // and put the byte length back where it belongs\n        }\n        // wrap Failure States in a single if test, so that happy path only has 1 conditional jump\n        if (!(result && (_signer != address(0x0)))) {\n            require(_signer != address(0x0), \"signer address cannot be 0\");\n            require(result, \"signature recovery failed\");\n        }\n    }\n}\n\n",
  "sourcePath": "@aztec/protocol/contracts/libs/LibEIP712.sol",
  "compiler": {
    "name": "solc",
    "version": "0.5.16+commit.9c3226ce.Emscripten.clang"
  },
  "schemaVersion": "3.2.0",
  "updatedAt": "2020-07-07T03:22:24.807Z",
  "devdoc": {
    "author": "AZTEC * Copyright 2020 Spilsbury Holdings Ltd  * Licensed under the GNU Lesser General Public Licence, Version 3.0 (the \"License\"); you may not use this file except in compliance with the License. * This program is distributed in the hope that it will be useful, but WITHOUT ANY WARRANTY; without even the implied warranty of MERCHANTABILITY or FITNESS FOR A PARTICULAR PURPOSE.  See the GNU Lesser General Public License for more details. * You should have received a copy of the GNU Lesser General Public License along with this program.  If not, see <https://www.gnu.org/licenses/>.*",
    "methods": {},
    "title": "Library of EIP712 utility constants and functions"
  },
  "userdoc": {
    "methods": {}
  }
}