{
  "contractName": "PrivateRangeInterface",
  "abi": [
    {
      "constant": true,
      "inputs": [
        {
          "internalType": "bytes",
          "name": "",
          "type": "bytes"
        },
        {
          "internalType": "address",
          "name": "",
          "type": "address"
        },
        {
          "internalType": "uint256[6]",
          "name": "",
          "type": "uint256[6]"
        }
      ],
      "name": "validatePrivateRange",
      "outputs": [
        {
          "internalType": "bytes",
          "name": "",
          "type": "bytes"
        }
      ],
      "payable": false,
      "stateMutability": "pure",
      "type": "function"
    }
  ],
  "bytecode": "0x608060405234801561001057600080fd5b5061018c806100206000396000f3fe608060405234801561001057600080fd5b506004361061002b5760003560e01c80631fa23f2714610030575b600080fd5b6100d2600480360361010081101561004757600080fd5b810190808035906020019064010000000081111561006457600080fd5b82018360208201111561007657600080fd5b8035906020019184600183028401116401000000008311171561009857600080fd5b9091929391929390803573ffffffffffffffffffffffffffffffffffffffff1690602001909291908060c00190919291929050505061014d565b6040518080602001828103825283818151815260200191508051906020019080838360005b838110156101125780820151818401526020810190506100f7565b50505050905090810190601f16801561013f5780820380516001836020036101000a031916815260200191505b509250505060405180910390f35b606094935050505056fea265627a7a7231582066fa2cd6c77057afb2426f10d2c3543f60307ebe0c3db44fd47ecb703e7e4bb364736f6c63430005100032",
  "source": "pragma solidity >=0.5.0 <0.6.0;\n\n\n/**\n * @title PrivateRangeInterface\n * @author AZTEC\n * @dev An interface for the PrivateRange validator contract\n * \n * Copyright 2020 Spilsbury Holdings Ltd \n *\n * Licensed under the GNU Lesser General Public Licence, Version 3.0 (the \"License\");\n * you may not use this file except in compliance with the License.\n *\n * This program is distributed in the hope that it will be useful,\n * but WITHOUT ANY WARRANTY; without even the implied warranty of\n * MERCHANTABILITY or FITNESS FOR A PARTICULAR PURPOSE.  See the\n * GNU Lesser General Public License for more details.\n *\n * You should have received a copy of the GNU Lesser General Public License\n * along with this program.  If not, see <https://www.gnu.org/licenses/>.\n**/\ncontract PrivateRangeInterface {\n    function validatePrivateRange(\n        bytes calldata,\n        address,\n        uint[6] calldata\n    )\n        external\n        pure\n        returns (bytes memory)\n    {}\n}\n",
  "sourcePath": "@aztec/protocol/contracts/interfaces/PrivateRangeInterface.sol",
  "compiler": {
    "name": "solc",
    "version": "0.5.16+commit.9c3226ce.Emscripten.clang"
  },
  "schemaVersion": "3.2.0",
  "updatedAt": "2020-07-07T03:22:24.802Z",
  "devdoc": {
    "author": "AZTEC",
    "details": "An interface for the PrivateRange validator contract  * Copyright 2020 Spilsbury Holdings Ltd  * Licensed under the GNU Lesser General Public Licence, Version 3.0 (the \"License\"); you may not use this file except in compliance with the License. * This program is distributed in the hope that it will be useful, but WITHOUT ANY WARRANTY; without even the implied warranty of MERCHANTABILITY or FITNESS FOR A PARTICULAR PURPOSE.  See the GNU Lesser General Public License for more details. * You should have received a copy of the GNU Lesser General Public License along with this program.  If not, see <https://www.gnu.org/licenses/>.*",
    "methods": {},
    "title": "PrivateRangeInterface"
  },
  "userdoc": {
    "methods": {}
  }
}