{
  "contractName": "ZkAssetMintable",
  "abi": [
    {
      "inputs": [
        {
          "internalType": "address",
          "name": "_aceAddress",
          "type": "address"
        },
        {
          "internalType": "address",
          "name": "_linkedTokenAddress",
          "type": "address"
        },
        {
          "internalType": "uint256",
          "name": "_scalingFactor",
          "type": "uint256"
        },
        {
          "internalType": "uint24",
          "name": "_optionalMintProofId",
          "type": "uint24"
        },
        {
          "internalType": "bytes",
          "name": "_optionalInitialisationMint",
          "type": "bytes"
        }
      ],
      "payable": false,
      "stateMutability": "nonpayable",
      "type": "constructor"
    },
    {
      "anonymous": false,
      "inputs": [
        {
          "indexed": true,
          "internalType": "address",
          "name": "owner",
          "type": "address"
        },
        {
          "indexed": false,
          "internalType": "uint256",
          "name": "value",
          "type": "uint256"
        }
      ],
      "name": "ConvertTokens",
      "type": "event"
    },
    {
      "anonymous": false,
      "inputs": [
        {
          "indexed": true,
          "internalType": "address",
          "name": "owner",
          "type": "address"
        },
        {
          "indexed": true,
          "internalType": "bytes32",
          "name": "noteHash",
          "type": "bytes32"
        },
        {
          "indexed": false,
          "internalType": "bytes",
          "name": "metadata",
          "type": "bytes"
        }
      ],
      "name": "CreateNote",
      "type": "event"
    },
    {
      "anonymous": false,
      "inputs": [
        {
          "indexed": false,
          "internalType": "uint256",
          "name": "noteRegistryId",
          "type": "uint256"
        }
      ],
      "name": "CreateNoteRegistry",
      "type": "event"
    },
    {
      "anonymous": false,
      "inputs": [
        {
          "indexed": true,
          "internalType": "address",
          "name": "aceAddress",
          "type": "address"
        },
        {
          "indexed": true,
          "internalType": "address",
          "name": "linkedTokenAddress",
          "type": "address"
        },
        {
          "indexed": false,
          "internalType": "uint256",
          "name": "scalingFactor",
          "type": "uint256"
        },
        {
          "indexed": true,
          "internalType": "bool",
          "name": "_canAdjustSupply",
          "type": "bool"
        },
        {
          "indexed": false,
          "internalType": "bool",
          "name": "_canConvert",
          "type": "bool"
        }
      ],
      "name": "CreateZkAsset",
      "type": "event"
    },
    {
      "anonymous": false,
      "inputs": [
        {
          "indexed": true,
          "internalType": "address",
          "name": "owner",
          "type": "address"
        },
        {
          "indexed": true,
          "internalType": "bytes32",
          "name": "noteHash",
          "type": "bytes32"
        }
      ],
      "name": "DestroyNote",
      "type": "event"
    },
    {
      "anonymous": false,
      "inputs": [
        {
          "indexed": true,
          "internalType": "address",
          "name": "previousOwner",
          "type": "address"
        },
        {
          "indexed": true,
          "internalType": "address",
          "name": "newOwner",
          "type": "address"
        }
      ],
      "name": "OwnershipTransferred",
      "type": "event"
    },
    {
      "anonymous": false,
      "inputs": [
        {
          "indexed": true,
          "internalType": "address",
          "name": "owner",
          "type": "address"
        },
        {
          "indexed": false,
          "internalType": "uint256",
          "name": "value",
          "type": "uint256"
        }
      ],
      "name": "RedeemTokens",
      "type": "event"
    },
    {
      "anonymous": false,
      "inputs": [
        {
          "indexed": true,
          "internalType": "address",
          "name": "owner",
          "type": "address"
        },
        {
          "indexed": true,
          "internalType": "bytes32",
          "name": "noteHash",
          "type": "bytes32"
        },
        {
          "indexed": false,
          "internalType": "bytes",
          "name": "metadata",
          "type": "bytes"
        }
      ],
      "name": "UpdateNoteMetaData",
      "type": "event"
    },
    {
      "anonymous": false,
      "inputs": [
        {
          "indexed": false,
          "internalType": "bytes32",
          "name": "noteHash",
          "type": "bytes32"
        },
        {
          "indexed": false,
          "internalType": "bytes",
          "name": "metaData",
          "type": "bytes"
        }
      ],
      "name": "UpdateTotalMinted",
      "type": "event"
    },
    {
      "constant": true,
      "inputs": [],
      "name": "BURN_PROOF",
      "outputs": [
        {
          "internalType": "uint24",
          "name": "",
          "type": "uint24"
        }
      ],
      "payable": false,
      "stateMutability": "view",
      "type": "function"
    },
    {
      "constant": true,
      "inputs": [],
      "name": "DIVIDEND_PROOF",
      "outputs": [
        {
          "internalType": "uint24",
          "name": "",
          "type": "uint24"
        }
      ],
      "payable": false,
      "stateMutability": "view",
      "type": "function"
    },
    {
      "constant": true,
      "inputs": [],
      "name": "EIP712_DOMAIN_HASH",
      "outputs": [
        {
          "internalType": "bytes32",
          "name": "",
          "type": "bytes32"
        }
      ],
      "payable": false,
      "stateMutability": "view",
      "type": "function"
    },
    {
      "constant": true,
      "inputs": [],
      "name": "JOIN_SPLIT_PROOF",
      "outputs": [
        {
          "internalType": "uint24",
          "name": "",
          "type": "uint24"
        }
      ],
      "payable": false,
      "stateMutability": "view",
      "type": "function"
    },
    {
      "constant": true,
      "inputs": [],
      "name": "MINT_PROOF",
      "outputs": [
        {
          "internalType": "uint24",
          "name": "",
          "type": "uint24"
        }
      ],
      "payable": false,
      "stateMutability": "view",
      "type": "function"
    },
    {
      "constant": true,
      "inputs": [],
      "name": "PRIVATE_RANGE_PROOF",
      "outputs": [
        {
          "internalType": "uint24",
          "name": "",
          "type": "uint24"
        }
      ],
      "payable": false,
      "stateMutability": "view",
      "type": "function"
    },
    {
      "constant": true,
      "inputs": [],
      "name": "PUBLIC_RANGE_PROOF",
      "outputs": [
        {
          "internalType": "uint24",
          "name": "",
          "type": "uint24"
        }
      ],
      "payable": false,
      "stateMutability": "view",
      "type": "function"
    },
    {
      "constant": true,
      "inputs": [],
      "name": "ace",
      "outputs": [
        {
          "internalType": "contract IACE",
          "name": "",
          "type": "address"
        }
      ],
      "payable": false,
      "stateMutability": "view",
      "type": "function"
    },
    {
      "constant": false,
      "inputs": [
        {
          "internalType": "uint24",
          "name": "_proofId",
          "type": "uint24"
        },
        {
          "internalType": "bytes",
          "name": "_proofOutputs",
          "type": "bytes"
        },
        {
          "internalType": "address",
          "name": "_spender",
          "type": "address"
        },
        {
          "internalType": "bool",
          "name": "_approval",
          "type": "bool"
        },
        {
          "internalType": "bytes",
          "name": "_proofSignature",
          "type": "bytes"
        }
      ],
      "name": "approveProof",
      "outputs": [],
      "payable": false,
      "stateMutability": "nonpayable",
      "type": "function"
    },
    {
      "constant": false,
      "inputs": [
        {
          "internalType": "bytes32",
          "name": "_noteHash",
          "type": "bytes32"
        },
        {
          "internalType": "address",
          "name": "_spender",
          "type": "address"
        },
        {
          "internalType": "bool",
          "name": "_spenderApproval",
          "type": "bool"
        },
        {
          "internalType": "bytes",
          "name": "_signature",
          "type": "bytes"
        }
      ],
      "name": "confidentialApprove",
      "outputs": [],
      "payable": false,
      "stateMutability": "nonpayable",
      "type": "function"
    },
    {
      "constant": true,
      "inputs": [
        {
          "internalType": "bytes32",
          "name": "",
          "type": "bytes32"
        },
        {
          "internalType": "address",
          "name": "",
          "type": "address"
        }
      ],
      "name": "confidentialApproved",
      "outputs": [
        {
          "internalType": "bool",
          "name": "",
          "type": "bool"
        }
      ],
      "payable": false,
      "stateMutability": "view",
      "type": "function"
    },
    {
      "constant": false,
      "inputs": [
        {
          "internalType": "uint24",
          "name": "_proof",
          "type": "uint24"
        },
        {
          "internalType": "bytes",
          "name": "_proofData",
          "type": "bytes"
        }
      ],
      "name": "confidentialMint",
      "outputs": [],
      "payable": false,
      "stateMutability": "nonpayable",
      "type": "function"
    },
    {
      "constant": false,
      "inputs": [
        {
          "internalType": "uint24",
          "name": "_proofId",
          "type": "uint24"
        },
        {
          "internalType": "bytes",
          "name": "_proofData",
          "type": "bytes"
        },
        {
          "internalType": "bytes",
          "name": "_signatures",
          "type": "bytes"
        }
      ],
      "name": "confidentialTransfer",
      "outputs": [],
      "payable": false,
      "stateMutability": "nonpayable",
      "type": "function"
    },
    {
      "constant": false,
      "inputs": [
        {
          "internalType": "bytes",
          "name": "_proofData",
          "type": "bytes"
        },
        {
          "internalType": "bytes",
          "name": "_signatures",
          "type": "bytes"
        }
      ],
      "name": "confidentialTransfer",
      "outputs": [],
      "payable": false,
      "stateMutability": "nonpayable",
      "type": "function"
    },
    {
      "constant": false,
      "inputs": [
        {
          "internalType": "uint24",
          "name": "_proofId",
          "type": "uint24"
        },
        {
          "internalType": "bytes",
          "name": "_proofOutput",
          "type": "bytes"
        }
      ],
      "name": "confidentialTransferFrom",
      "outputs": [],
      "payable": false,
      "stateMutability": "nonpayable",
      "type": "function"
    },
    {
      "constant": true,
      "inputs": [],
      "name": "isOwner",
      "outputs": [
        {
          "internalType": "bool",
          "name": "",
          "type": "bool"
        }
      ],
      "payable": false,
      "stateMutability": "view",
      "type": "function"
    },
    {
      "constant": true,
      "inputs": [],
      "name": "linkedToken",
      "outputs": [
        {
          "internalType": "contract IERC20Mintable",
          "name": "",
          "type": "address"
        }
      ],
      "payable": false,
      "stateMutability": "view",
      "type": "function"
    },
    {
      "constant": true,
      "inputs": [
        {
          "internalType": "bytes32",
          "name": "",
          "type": "bytes32"
        }
      ],
      "name": "metaDataTimeLog",
      "outputs": [
        {
          "internalType": "uint256",
          "name": "",
          "type": "uint256"
        }
      ],
      "payable": false,
      "stateMutability": "view",
      "type": "function"
    },
    {
      "constant": true,
      "inputs": [
        {
          "internalType": "bytes32",
          "name": "",
          "type": "bytes32"
        }
      ],
      "name": "noteAccess",
      "outputs": [
        {
          "internalType": "uint256",
          "name": "",
          "type": "uint256"
        }
      ],
      "payable": false,
      "stateMutability": "view",
      "type": "function"
    },
    {
      "constant": true,
      "inputs": [],
      "name": "owner",
      "outputs": [
        {
          "internalType": "address",
          "name": "",
          "type": "address"
        }
      ],
      "payable": false,
      "stateMutability": "view",
      "type": "function"
    },
    {
      "constant": true,
      "inputs": [
        {
          "internalType": "uint8",
          "name": "",
          "type": "uint8"
        }
      ],
      "name": "proofs",
      "outputs": [
        {
          "internalType": "uint256",
          "name": "",
          "type": "uint256"
        }
      ],
      "payable": false,
      "stateMutability": "view",
      "type": "function"
    },
    {
      "constant": false,
      "inputs": [],
      "name": "renounceOwnership",
      "outputs": [],
      "payable": false,
      "stateMutability": "nonpayable",
      "type": "function"
    },
    {
      "constant": false,
      "inputs": [
        {
          "internalType": "uint8",
          "name": "_epoch",
          "type": "uint8"
        },
        {
          "internalType": "uint256",
          "name": "_proofs",
          "type": "uint256"
        }
      ],
      "name": "setProofs",
      "outputs": [],
      "payable": false,
      "stateMutability": "nonpayable",
      "type": "function"
    },
    {
      "constant": true,
      "inputs": [
        {
          "internalType": "bytes32",
          "name": "",
          "type": "bytes32"
        }
      ],
      "name": "signatureLog",
      "outputs": [
        {
          "internalType": "bool",
          "name": "",
          "type": "bool"
        }
      ],
      "payable": false,
      "stateMutability": "view",
      "type": "function"
    },
    {
      "constant": true,
      "inputs": [
        {
          "internalType": "uint24",
          "name": "_proof",
          "type": "uint24"
        }
      ],
      "name": "supportsProof",
      "outputs": [
        {
          "internalType": "bool",
          "name": "",
          "type": "bool"
        }
      ],
      "payable": false,
      "stateMutability": "view",
      "type": "function"
    },
    {
      "constant": false,
      "inputs": [
        {
          "internalType": "address",
          "name": "newOwner",
          "type": "address"
        }
      ],
      "name": "transferOwnership",
      "outputs": [],
      "payable": false,
      "stateMutability": "nonpayable",
      "type": "function"
    },
    {
      "constant": false,
      "inputs": [
        {
          "internalType": "bytes32",
          "name": "noteHash",
          "type": "bytes32"
        },
        {
          "internalType": "bytes",
          "name": "metaData",
          "type": "bytes"
        }
      ],
      "name": "updateNoteMetaData",
      "outputs": [],
      "payable": false,
      "stateMutability": "nonpayable",
      "type": "function"
    },
    {
      "constant": false,
      "inputs": [
        {
          "internalType": "uint24",
          "name": "_factoryId",
          "type": "uint24"
        }
      ],
      "name": "upgradeRegistryVersion",
      "outputs": [],
      "payable": false,
      "stateMutability": "nonpayable",
      "type": "function"
    }
  ],
  "bytecode": "0x60806040523480156200001157600080fd5b506040516200571c3803806200571c833981810160405260a08110156200003757600080fd5b8101908080519060200190929190805190602001909291908051906020019092919080519060200190929190805160405193929190846401000000008211156200008057600080fd5b838201915060208201858111156200009757600080fd5b8251866001820283011164010000000082111715620000b557600080fd5b8083526020830192505050908051906020019080838360005b83811015620000eb578082015181840152602081019050620000ce565b50505050905090810190601f168015620001195780820380516001836020036101000a031916815260200191505b5060405250505084848460018383838360405160200180807f454950373132446f6d61696e2800000000000000000000000000000000000000815250600d01807f737472696e67206e616d652c0000000000000000000000000000000000000000815250600c01807f737472696e672076657273696f6e2c0000000000000000000000000000000000815250600f01807f6164647265737320766572696679696e67436f6e747261637400000000000000815250601901807f29000000000000000000000000000000000000000000000000000000000000008152506001019050604051602081830303815290604052805190602001206040518060400160405280601981526020017f415a5445435f43525950544f4752415048595f454e47494e4500000000000000815250805190602001206040518060400160405280600181526020017f31000000000000000000000000000000000000000000000000000000000000008152508051906020012030604051602001808581526020018481526020018381526020018273ffffffffffffffffffffffffffffffffffffffff1673ffffffffffffffffffffffffffffffffffffffff1681526020019450505050506040516020818303038152906040528051906020012060008190555060008073ffffffffffffffffffffffffffffffffffffffff168473ffffffffffffffffffffffffffffffffffffffff16146200033657600162000339565b60005b905060405160200180807f454950373132446f6d61696e2800000000000000000000000000000000000000815250600d01807f737472696e67206e616d652c0000000000000000000000000000000000000000815250600c01807f737472696e672076657273696f6e2c0000000000000000000000000000000000815250600f01807f6164647265737320766572696679696e67436f6e747261637400000000000000815250601901807f29000000000000000000000000000000000000000000000000000000000000008152506001019050604051602081830303815290604052805190602001206040518060400160405280600881526020017f5a4b5f4153534554000000000000000000000000000000000000000000000000815250805190602001206040518060400160405280600181526020017f3100000000000000000000000000000000000000000000000000000000000000815250805190602001203073ffffffffffffffffffffffffffffffffffffffff1660001b604051602001808581526020018481526020018381526020018281526020019450505050506040516020818303038152906040528051906020012060008190555084600160006101000a81548173ffffffffffffffffffffffffffffffffffffffff021916908373ffffffffffffffffffffffffffffffffffffffff16021790555083600260006101000a81548173ffffffffffffffffffffffffffffffffffffffff021916908373ffffffffffffffffffffffffffffffffffffffff160217905550600160009054906101000a900473ffffffffffffffffffffffffffffffffffffffff1673ffffffffffffffffffffffffffffffffffffffff1663a5468ca2858585856040518563ffffffff1660e01b8152600401808573ffffffffffffffffffffffffffffffffffffffff1673ffffffffffffffffffffffffffffffffffffffff1681526020018481526020018315151515815260200182151515158152602001945050505050600060405180830381600087803b1580156200063b57600080fd5b505af115801562000650573d6000803e3d6000fd5b505050508115158473ffffffffffffffffffffffffffffffffffffffff168673ffffffffffffffffffffffffffffffffffffffff167fca576e79bcb5c4a0045d9d596a80c733c3997559f688f69e5c03bd737d885b86868560405180838152602001821515151581526020019250505060405180910390a450505050506000620006df6200088360201b60201c565b905080600760006101000a81548173ffffffffffffffffffffffffffffffffffffffff021916908373ffffffffffffffffffffffffffffffffffffffff1602179055508073ffffffffffffffffffffffffffffffffffffffff16600073ffffffffffffffffffffffffffffffffffffffff167f8be0079c531659141344cd1fd0a4f28419497f9722a3daafe3b4186f6b6457e060405160405180910390a350601160086000600160009054906101000a900473ffffffffffffffffffffffffffffffffffffffff1673ffffffffffffffffffffffffffffffffffffffff16639cb118bf6040518163ffffffff1660e01b815260040160206040518083038186803b158015620007ed57600080fd5b505afa15801562000802573d6000803e3d6000fd5b505050506040513d60208110156200081957600080fd5b810190808051906020019092919050505060ff1660ff168152602001908152602001600020819055505050505060008262ffffff16141580156200085f57506000815114155b1562000878576200087782826200088b60201b60201c565b5b505050505062001171565b600033905090565b6200089b62000d2760201b60201c565b6200090e576040517f08c379a00000000000000000000000000000000000000000000000000000000081526004018080602001828103825260208152602001807f4f776e61626c653a2063616c6c6572206973206e6f7420746865206f776e657281525060200191505060405180910390fd5b60008151141562000987576040517f08c379a000000000000000000000000000000000000000000000000000000000815260040180806020018281038252600d8152602001807f70726f6f6620696e76616c69640000000000000000000000000000000000000081525060200191505060405180910390fd5b6060600160009054906101000a900473ffffffffffffffffffffffffffffffffffffffff1673ffffffffffffffffffffffffffffffffffffffff166380037eeb8484620009d962000d8e60201b60201c565b6040518463ffffffff1660e01b8152600401808462ffffff1662ffffff168152602001806020018373ffffffffffffffffffffffffffffffffffffffff1673ffffffffffffffffffffffffffffffffffffffff168152602001828103825284818151815260200191508051906020019080838360005b8381101562000a6c57808201518184015260208101905062000a4f565b50505050905090810190601f16801562000a9a5780820380516001836020036101000a031916815260200191505b50945050505050600060405180830381600087803b15801562000abc57600080fd5b505af115801562000ad1573d6000803e3d6000fd5b505050506040513d6000823e3d601f19601f82011682018060405250602081101562000afc57600080fd5b810190808051604051939291908464010000000082111562000b1d57600080fd5b8382019150602082018581111562000b3457600080fd5b825186600182028301116401000000008211171562000b5257600080fd5b8083526020830192505050908051906020019080838360005b8381101562000b8857808201518184015260208101905062000b6b565b50505050905090810190601f16801562000bb65780820380516001836020036101000a031916815260200191505b506040525050509050606062000bf162000be060008462000db860201b62002edf1790919060201c565b62000e3260201b62002f571760201c565b5050915050606062000c2862000c1760018562000db860201b62002edf1790919060201c565b62000e3260201b62002f571760201c565b50509150506000606062000c6162000c5060008662000db860201b62002edf1790919060201c565b62000e7560201b620039e61760201c565b925092505062000c778362000eab60201b60201c565b7f6bc2dccbfc40ed5201f2896c7bc80fa4529202979a6c4195e7c95548b7bdedcb82826040518083815260200180602001828103825283818151815260200191508051906020019080838360005b8381101562000ce257808201518184015260208101905062000cc5565b50505050905090810190601f16801562000d105780820380516001836020036101000a031916815260200191505b50935050505060405180910390a150505050505050565b6000600760009054906101000a900473ffffffffffffffffffffffffffffffffffffffff1673ffffffffffffffffffffffffffffffffffffffff1662000d726200088360201b60201c565b73ffffffffffffffffffffffffffffffffffffffff1614905090565b6000600760009054906101000a900473ffffffffffffffffffffffffffffffffffffffff16905090565b6060600060208401518310905083602084026040860101510191508062000e2b576040517f08c379a0000000000000000000000000000000000000000000000000000000008152600401808060200182810382526022815260200180620056fa6022913960400191505060405180910390fd5b5092915050565b60608060008060208501518501935060408501518501925073ffffffffffffffffffffffffffffffffffffffff6060860151169150608085015190509193509193565b600080606073ffffffffffffffffffffffffffffffffffffffff6040850151169250606084015191506080840190509193909250565b60008090505b62000ec78262000ff660201b620039d81760201c565b81101562000ff257600080606062000f0362000ef2858762000db860201b62002edf1790919060201c565b62000e7560201b620039e61760201c565b92509250925062000f1a826200100460201b60201c565b62000f2c81836200101f60201b60201c565b818373ffffffffffffffffffffffffffffffffffffffff167f5ffb3072e4515cf3bfae8b16be9dff6313cf7c313a0c26faafe6971d8c7585f1836040518080602001828103825283818151815260200191508051906020019080838360005b8381101562000fa857808201518184015260208101905062000f8b565b50505050905090810190601f16801562000fd65780820380516001836020036101000a031916815260200191505b509250505060405180910390a350505060018101905062000eb1565b5050565b600060208201519050919050565b42600460008381526020019081526020016000208190555050565b6000808351915060e1840151905060618260001c1115620010f15760008090505b8160001c811015620010ef576000620010658683620010f760201b620041851760201c565b905060008186604051602001808373ffffffffffffffffffffffffffffffffffffffff1673ffffffffffffffffffffffffffffffffffffffff1660601b815260140182815260200192505050604051602081830303815290604052805190602001209050426005600083815260200190815260200160002081905550505060018101905062001040565b505b50505050565b6000806020840151905060208302602060e1018501015191508083106200116a576040517f08c379a000000000000000000000000000000000000000000000000000000000815260040180806020018281038252605e8152602001806200569c605e913960600191505060405180910390fd5b5092915050565b61451b80620011816000396000f3fe608060405234801561001057600080fd5b50600436106101c35760003560e01c80637f08dede116100f9578063985cd3b711610097578063df92462511610071578063df92462514610c84578063e306f77914610cac578063ea12489f14610cca578063f2fde38b14610d14576101c3565b8063985cd3b714610b2e578063a5c8fa8414610b70578063cdfea90e14610bba576101c3565b80638da5cb5b116100d35780638da5cb5b146109485780638e526d9b146109925780638f32d59b146109ba57806396988498146109dc576101c3565b80637f08dede1461089357806384a26fc8146108de5780638500e1f814610920576101c3565b80631f2ac16a1161016657806349518b281161014057806349518b28146107e1578063715018a614610809578063764481181461081357806376ae6bee14610858576101c3565b80631f2ac16a146105f85780632140e0c5146106e95780632e3b9a3b1461071c576101c3565b806309146c7c116101a257806309146c7c146103795780630a60305a146103bf5780630f4a80fe146104c85780631b50a0741461052e576101c3565b80625bf732146101c857806302d1fdc9146101f057806308ae900a14610351575b600080fd5b6101d0610d58565b604051808262ffffff1662ffffff16815260200191505060405180910390f35b61034f6004803603606081101561020657600080fd5b81019080803562ffffff1690602001909291908035906020019064010000000081111561023257600080fd5b82018360208201111561024457600080fd5b8035906020019184600183028401116401000000008311171561026657600080fd5b91908080601f016020809104026020016040519081016040528093929190818152602001838380828437600081840152601f19601f820116905080830192505050505050509192919290803590602001906401000000008111156102c957600080fd5b8201836020820111156102db57600080fd5b803590602001918460018302840111640100000000831117156102fd57600080fd5b91908080601f016020809104026020016040519081016040528093929190818152602001838380828437600081840152601f19601f820116905080830192505050505050509192919290505050610d5f565b005b61035961116d565b604051808262ffffff1662ffffff16815260200191505060405180910390f35b6103a56004803603602081101561038f57600080fd5b8101908080359060200190929190505050611174565b604051808215151515815260200191505060405180910390f35b6104c6600480360360a08110156103d557600080fd5b81019080803562ffffff1690602001909291908035906020019064010000000081111561040157600080fd5b82018360208201111561041357600080fd5b8035906020019184600183028401116401000000008311171561043557600080fd5b9091929391929390803573ffffffffffffffffffffffffffffffffffffffff1690602001909291908035151590602001909291908035906020019064010000000081111561048257600080fd5b82018360208201111561049457600080fd5b803590602001918460018302840111640100000000831117156104b657600080fd5b9091929391929390505050611194565b005b610514600480360360408110156104de57600080fd5b8101908080359060200190929190803573ffffffffffffffffffffffffffffffffffffffff16906020019092919050505061197d565b604051808215151515815260200191505060405180910390f35b6105f66004803603604081101561054457600080fd5b81019080803562ffffff1690602001909291908035906020019064010000000081111561057057600080fd5b82018360208201111561058257600080fd5b803590602001918460018302840111640100000000831117156105a457600080fd5b91908080601f016020809104026020016040519081016040528093929190818152602001838380828437600081840152601f19601f8201169050808301925050505050505091929192905050506119ac565b005b6106e76004803603608081101561060e57600080fd5b8101908080359060200190929190803573ffffffffffffffffffffffffffffffffffffffff1690602001909291908035151590602001909291908035906020019064010000000081111561066157600080fd5b82018360208201111561067357600080fd5b8035906020019184600183028401116401000000008311171561069557600080fd5b91908080601f016020809104026020016040519081016040528093929190818152602001838380828437600081840152601f19601f820116905080830192505050505050509192919290505050611de3565b005b61071a600480360360208110156106ff57600080fd5b81019080803562ffffff169060200190929190505050612262565b005b6107df6004803603604081101561073257600080fd5b81019080803590602001909291908035906020019064010000000081111561075957600080fd5b82018360208201111561076b57600080fd5b8035906020019184600183028401116401000000008311171561078d57600080fd5b91908080601f016020809104026020016040519081016040528093929190818152602001838380828437600081840152601f19601f820116905080830192505050505050509192919290505050612376565b005b6107e9612673565b604051808262ffffff1662ffffff16815260200191505060405180910390f35b61081161267a565b005b6108426004803603602081101561082957600080fd5b81019080803560ff1690602001909291905050506127b5565b6040518082815260200191505060405180910390f35b6108916004803603604081101561086e57600080fd5b81019080803560ff169060200190929190803590602001909291905050506127cd565b005b6108c4600480360360208110156108a957600080fd5b81019080803562ffffff169060200190929190505050612869565b604051808215151515815260200191505060405180910390f35b61090a600480360360208110156108f457600080fd5b810190808035906020019092919050505061293c565b6040518082815260200191505060405180910390f35b610928612954565b604051808262ffffff1662ffffff16815260200191505060405180910390f35b61095061295b565b604051808273ffffffffffffffffffffffffffffffffffffffff1673ffffffffffffffffffffffffffffffffffffffff16815260200191505060405180910390f35b61099a612985565b604051808262ffffff1662ffffff16815260200191505060405180910390f35b6109c261298c565b604051808215151515815260200191505060405180910390f35b610b2c600480360360408110156109f257600080fd5b8101908080359060200190640100000000811115610a0f57600080fd5b820183602082011115610a2157600080fd5b80359060200191846001830284011164010000000083111715610a4357600080fd5b91908080601f016020809104026020016040519081016040528093929190818152602001838380828437600081840152601f19601f82011690508083019250505050505050919291929080359060200190640100000000811115610aa657600080fd5b820183602082011115610ab857600080fd5b80359060200191846001830284011164010000000083111715610ada57600080fd5b91908080601f016020809104026020016040519081016040528093929190818152602001838380828437600081840152601f19601f8201169050808301925050505050505091929192905050506129eb565b005b610b5a60048036036020811015610b4457600080fd5b81019080803590602001909291905050506129fd565b6040518082815260200191505060405180910390f35b610b78612a15565b604051808273ffffffffffffffffffffffffffffffffffffffff1673ffffffffffffffffffffffffffffffffffffffff16815260200191505060405180910390f35b610c8260048036036040811015610bd057600080fd5b81019080803562ffffff16906020019092919080359060200190640100000000811115610bfc57600080fd5b820183602082011115610c0e57600080fd5b80359060200191846001830284011164010000000083111715610c3057600080fd5b91908080601f016020809104026020016040519081016040528093929190818152602001838380828437600081840152601f19601f820116905080830192505050505050509192919290505050612a3b565b005b610c8c612df6565b604051808262ffffff1662ffffff16815260200191505060405180910390f35b610cb4612dfd565b6040518082815260200191505060405180910390f35b610cd2612e03565b604051808273ffffffffffffffffffffffffffffffffffffffff1673ffffffffffffffffffffffffffffffffffffffff16815260200191505060405180910390f35b610d5660048036036020811015610d2a57600080fd5b81019080803573ffffffffffffffffffffffffffffffffffffffff169060200190929190505050612e29565b005b6201010181565b6000610d6a84612869565b90506001151581151514610de6576040517f08c379a000000000000000000000000000000000000000000000000000000000815260040180806020018281038252601e8152602001807f65787065637465642070726f6f6620746f20626520737570706f72746564000081525060200191505060405180910390fd5b6000610df68562ffffff16612eaf565b5091505060016004811115610e0757fe5b60ff168160ff1614610e81576040517f08c379a000000000000000000000000000000000000000000000000000000000815260040180806020018281038252601c8152602001807f74686973206973206e6f7420612062616c616e6365642070726f6f660000000081525060200191505060405180910390fd5b6060600160009054906101000a900473ffffffffffffffffffffffffffffffffffffffff1673ffffffffffffffffffffffffffffffffffffffff1663a2866ea36201010133886040518463ffffffff1660e01b8152600401808462ffffff1662ffffff1681526020018373ffffffffffffffffffffffffffffffffffffffff1673ffffffffffffffffffffffffffffffffffffffff16815260200180602001828103825283818151815260200191508051906020019080838360005b83811015610f58578082015181840152602081019050610f3d565b50505050905090810190601f168015610f855780820380516001836020036101000a031916815260200191505b50945050505050600060405180830381600087803b158015610fa657600080fd5b505af1158015610fba573d6000803e3d6000fd5b505050506040513d6000823e3d601f19601f820116820180604052506020811015610fe457600080fd5b810190808051604051939291908464010000000082111561100457600080fd5b8382019150602082018581111561101a57600080fd5b825186600182028301116401000000008211171561103757600080fd5b8083526020830192505050908051906020019080838360005b8381101561106b578082015181840152602081019050611050565b50505050905090810190601f1680156110985780820380516001836020036101000a031916815260200191505b506040525050509050600081511415611119576040517f08c379a000000000000000000000000000000000000000000000000000000000815260040180806020018281038252600d8152602001807f70726f6f6620696e76616c69640000000000000000000000000000000000000081525060200191505060405180910390fd5b606061112f600083612edf90919063ffffffff16565b9050600061113c82612f57565b935050505060008113156111545761115381612f9a565b5b6111636201010184888a61338c565b5050505050505050565b6201040381565b60066020528060005260406000206000915054906101000a900460ff1681565b6000828260405180838380828437808301925050509250505060405180910390209050600115156006600083815260200190815260200160002060009054906101000a900460ff1615151415611252576040517f08c379a000000000000000000000000000000000000000000000000000000000815260040180806020018281038252601f8152602001807f7369676e61747572652068617320616c7265616479206265656e20757365640081525060200191505060405180910390fd5b60016006600083815260200190815260200160002060006101000a81548160ff021916908315150217905550600060405180608001604052806042815260200161439d604291396040516020018082805190602001908083835b602083106112cf57805182526020820191506020810190506020830392506112ac565b6001836020036101000a0380198251168184511680821785525050505050509050019150506040516020818303038152906040528051906020012060405180807f5a4b5f41535345540000000000000000000000000000000000000000000000008152506008019050604051809103902060405180807f31000000000000000000000000000000000000000000000000000000000000008152506001019050604051809103902030604051602001808581526020018481526020018381526020018273ffffffffffffffffffffffffffffffffffffffff1673ffffffffffffffffffffffffffffffffffffffff16815260200194505050505060405160208183030381529060405280519060200120905060008160405160200180807f50726f6f665369676e6174757265280000000000000000000000000000000000815250600f01807f627974657333322070726f6f66486173682c0000000000000000000000000000815250601201807f61646472657373207370656e6465722c00000000000000000000000000000000815250601001807f626f6f6c20617070726f76616c00000000000000000000000000000000000000815250600d01807f29000000000000000000000000000000000000000000000000000000000000008152506001019050604051602081830303815290604052805190602001208a8a60405180838380828437808301925050509250505060405180910390208989604051602001808581526020018481526020018373ffffffffffffffffffffffffffffffffffffffff1673ffffffffffffffffffffffffffffffffffffffff168152602001821515151581526020019450505050506040516020818303038152906040528051906020012060405160200180807f19010000000000000000000000000000000000000000000000000000000000008152506002018381526020018281526020019250505060405160208183030381529060405280519060200120905060006115fd8287878080601f016020809104026020016040519081016040528093929190818152602001838380828437600081840152601f19601f820116905080830192505050505050506137ee565b905060008090505b6116528b8b8080601f016020809104026020016040519081016040528093929190818152602001838380828437600081840152601f19601f820116905080830192505050505050506139d8565b81101561196f5760606116b2828d8d8080601f016020809104026020016040519081016040528093929190818152602001838380828437600081840152601f19601f82011690508083019250505050505050612edf90919063ffffffff16565b905060606116bf82612f57565b505050905060008090505b6116d3826139d8565b8110156118f25760006116f76116f28385612edf90919063ffffffff16565b6139e6565b50915050600080600160009054906101000a900473ffffffffffffffffffffffffffffffffffffffff1673ffffffffffffffffffffffffffffffffffffffff1663fedee26630856040518363ffffffff1660e01b8152600401808373ffffffffffffffffffffffffffffffffffffffff1673ffffffffffffffffffffffffffffffffffffffff1681526020018281526020019250505060806040518083038186803b1580156117a557600080fd5b505afa1580156117b9573d6000803e3d6000fd5b505050506040513d60808110156117cf57600080fd5b810190808051906020019092919080519060200190929190805190602001909291908051906020019092919050505093505050915060018260ff1614611860576040517f08c379a00000000000000000000000000000000000000000000000000000000081526004018080602001828103825260228152602001806142e66022913960400191505060405180910390fd5b8773ffffffffffffffffffffffffffffffffffffffff168173ffffffffffffffffffffffffffffffffffffffff16146118e4576040517f08c379a00000000000000000000000000000000000000000000000000000000081526004018080602001828103825260268152602001806143566026913960400191505060405180910390fd5b5050506001810190506116ca565b5089600360008480519060200120815260200190815260200160002060008d73ffffffffffffffffffffffffffffffffffffffff1673ffffffffffffffffffffffffffffffffffffffff16815260200190815260200160002060006101000a81548160ff0219169083151502179055505050600181019050611605565b505050505050505050505050565b60036020528160005260406000206020528060005260406000206000915091509054906101000a900460ff1681565b6119b461298c565b611a26576040517f08c379a00000000000000000000000000000000000000000000000000000000081526004018080602001828103825260208152602001807f4f776e61626c653a2063616c6c6572206973206e6f7420746865206f776e657281525060200191505060405180910390fd5b600081511415611a9e576040517f08c379a000000000000000000000000000000000000000000000000000000000815260040180806020018281038252600d8152602001807f70726f6f6620696e76616c69640000000000000000000000000000000000000081525060200191505060405180910390fd5b6060600160009054906101000a900473ffffffffffffffffffffffffffffffffffffffff1673ffffffffffffffffffffffffffffffffffffffff166380037eeb8484611ae861295b565b6040518463ffffffff1660e01b8152600401808462ffffff1662ffffff168152602001806020018373ffffffffffffffffffffffffffffffffffffffff1673ffffffffffffffffffffffffffffffffffffffff168152602001828103825284818151815260200191508051906020019080838360005b83811015611b79578082015181840152602081019050611b5e565b50505050905090810190601f168015611ba65780820380516001836020036101000a031916815260200191505b50945050505050600060405180830381600087803b158015611bc757600080fd5b505af1158015611bdb573d6000803e3d6000fd5b505050506040513d6000823e3d601f19601f820116820180604052506020811015611c0557600080fd5b8101908080516040519392919084640100000000821115611c2557600080fd5b83820191506020820185811115611c3b57600080fd5b8251866001820283011164010000000082111715611c5857600080fd5b8083526020830192505050908051906020019080838360005b83811015611c8c578082015181840152602081019050611c71565b50505050905090810190601f168015611cb95780820380516001836020036101000a031916815260200191505b5060405250505090506060611ce0611cdb600084612edf90919063ffffffff16565b612f57565b50509150506060611d03611cfe600185612edf90919063ffffffff16565b612f57565b505091505060006060611d28611d23600086612edf90919063ffffffff16565b6139e6565b9250925050611d3683613a1c565b7f6bc2dccbfc40ed5201f2896c7bc80fa4529202979a6c4195e7c95548b7bdedcb82826040518083815260200180602001828103825283818151815260200191508051906020019080838360005b83811015611d9f578082015181840152602081019050611d84565b50505050905090810190601f168015611dcc5780820380516001836020036101000a031916815260200191505b50935050505060405180910390a150505050505050565b6000600160009054906101000a900473ffffffffffffffffffffffffffffffffffffffff1673ffffffffffffffffffffffffffffffffffffffff1663fedee26630876040518363ffffffff1660e01b8152600401808373ffffffffffffffffffffffffffffffffffffffff1673ffffffffffffffffffffffffffffffffffffffff1681526020018281526020019250505060806040518083038186803b158015611e8c57600080fd5b505afa158015611ea0573d6000803e3d6000fd5b505050506040513d6080811015611eb657600080fd5b8101908080519060200190929190805190602001909291908051906020019092919080519060200190929190505050505050905060018160ff1614611f46576040517f08c379a00000000000000000000000000000000000000000000000000000000081526004018080602001828103825260228152602001806142e66022913960400191505060405180910390fd5b6000826040516020018082805190602001908083835b60208310611f7f5780518252602082019150602081019050602083039250611f5c565b6001836020036101000a038019825116818451168082178552505050505050905001915050604051602081830303815290604052805190602001209050600115156006600083815260200190815260200160002060009054906101000a900460ff1615151415612057576040517f08c379a000000000000000000000000000000000000000000000000000000000815260040180806020018281038252601f8152602001807f7369676e61747572652068617320616c7265616479206265656e20757365640081525060200191505060405180910390fd5b600083511461208d5760016006600083815260200190815260200160002060006101000a81548160ff0219169083151502179055505b600060405160200180807f4e6f74655369676e617475726528000000000000000000000000000000000000815250600e01807f62797465733332206e6f7465486173682c000000000000000000000000000000815250601101807f61646472657373207370656e6465722c00000000000000000000000000000000815250601001807f626f6f6c207370656e646572417070726f76616c000000000000000000000000815250601401807f2900000000000000000000000000000000000000000000000000000000000000815250600101905060405160208183030381529060405280519060200120878787604051602001808581526020018481526020018373ffffffffffffffffffffffffffffffffffffffff1673ffffffffffffffffffffffffffffffffffffffff168152602001821515151581526020019450505050506040516020818303038152906040528051906020012090506121f1818886613b31565b846003600089815260200190815260200160002060008873ffffffffffffffffffffffffffffffffffffffff1673ffffffffffffffffffffffffffffffffffffffff16815260200190815260200160002060006101000a81548160ff02191690831515021790555050505050505050565b61226a61298c565b6122dc576040517f08c379a00000000000000000000000000000000000000000000000000000000081526004018080602001828103825260208152602001807f4f776e61626c653a2063616c6c6572206973206e6f7420746865206f776e657281525060200191505060405180910390fd5b600160009054906101000a900473ffffffffffffffffffffffffffffffffffffffff1673ffffffffffffffffffffffffffffffffffffffff166385b69d7c826040518263ffffffff1660e01b8152600401808262ffffff1662ffffff168152602001915050600060405180830381600087803b15801561235b57600080fd5b505af115801561236f573d6000803e3d6000fd5b5050505050565b600080600160009054906101000a900473ffffffffffffffffffffffffffffffffffffffff1673ffffffffffffffffffffffffffffffffffffffff1663fedee26630866040518363ffffffff1660e01b8152600401808373ffffffffffffffffffffffffffffffffffffffff1673ffffffffffffffffffffffffffffffffffffffff1681526020018281526020019250505060806040518083038186803b15801561242057600080fd5b505afa158015612434573d6000803e3d6000fd5b505050506040513d608081101561244a57600080fd5b810190808051906020019092919080519060200190929190805190602001909291908051906020019092919050505093505050915060003385604051602001808373ffffffffffffffffffffffffffffffffffffffff1673ffffffffffffffffffffffffffffffffffffffff1660601b8152601401828152602001925050506040516020818303038152906040528051906020012090506004600086815260200190815260200160002054600560008381526020019081526020016000205410158061254157503373ffffffffffffffffffffffffffffffffffffffff168273ffffffffffffffffffffffffffffffffffffffff16145b8015612550575060018360ff16145b6125a5576040517f08c379a00000000000000000000000000000000000000000000000000000000081526004018080602001828103825260328152602001806143df6032913960400191505060405180910390fd5b6125af8486613cf0565b6125b885613db8565b848273ffffffffffffffffffffffffffffffffffffffff167fda392cb8aa0843e7e474e7bacfae355313fc4202094b3e81d2a488b5c05207bf866040518080602001828103825283818151815260200191508051906020019080838360005b83811015612632578082015181840152602081019050612617565b50505050905090810190601f16801561265f5780820380516001836020036101000a031916815260200191505b509250505060405180910390a35050505050565b6201040281565b61268261298c565b6126f4576040517f08c379a00000000000000000000000000000000000000000000000000000000081526004018080602001828103825260208152602001807f4f776e61626c653a2063616c6c6572206973206e6f7420746865206f776e657281525060200191505060405180910390fd5b600073ffffffffffffffffffffffffffffffffffffffff16600760009054906101000a900473ffffffffffffffffffffffffffffffffffffffff1673ffffffffffffffffffffffffffffffffffffffff167f8be0079c531659141344cd1fd0a4f28419497f9722a3daafe3b4186f6b6457e060405160405180910390a36000600760006101000a81548173ffffffffffffffffffffffffffffffffffffffff021916908373ffffffffffffffffffffffffffffffffffffffff160217905550565b60086020528060005260406000206000915090505481565b6127d561298c565b612847576040517f08c379a00000000000000000000000000000000000000000000000000000000081526004018080602001828103825260208152602001807f4f776e61626c653a2063616c6c6572206973206e6f7420746865206f776e657281525060200191505060405180910390fd5b80600860008460ff1660ff168152602001908152602001600020819055505050565b60008060008061287d8562ffffff16612eaf565b9250925092506001600481111561289057fe5b60ff168260ff16146128ed576040517f08c379a00000000000000000000000000000000000000000000000000000000081526004018080602001828103825260288152602001806142be6028913960400191505060405180910390fd5b6000600161290860018460ff16613dd390919063ffffffff16565b60ff16600860008760ff1660ff16815260200190815260200160002054901c16905060018160ff1614945050505050919050565b60056020528060005260406000206000915090505481565b6201040181565b6000600760009054906101000a900473ffffffffffffffffffffffffffffffffffffffff16905090565b6201020181565b6000600760009054906101000a900473ffffffffffffffffffffffffffffffffffffffff1673ffffffffffffffffffffffffffffffffffffffff166129cf613e3f565b73ffffffffffffffffffffffffffffffffffffffff1614905090565b6129f9620101018383610d5f565b5050565b60046020528060005260406000206000915090505481565b600160009054906101000a900473ffffffffffffffffffffffffffffffffffffffff1681565b6000612a4683612869565b90506001151581151514612ac2576040517f08c379a000000000000000000000000000000000000000000000000000000000815260040180806020018281038252601e8152602001807f65787065637465642070726f6f6620746f20626520737570706f72746564000081525060200191505060405180910390fd5b606080600080612ad186612f57565b93509350935093506000612ae4856139d8565b905060008090505b81811015612bdb576000612b11612b0c8389612edf90919063ffffffff16565b6139e6565b50915050600115156003600083815260200190815260200160002060003373ffffffffffffffffffffffffffffffffffffffff1673ffffffffffffffffffffffffffffffffffffffff16815260200190815260200160002060009054906101000a900460ff16151514612bcf576040517f08c379a000000000000000000000000000000000000000000000000000000000815260040180806020018281038252603181526020018061446f6031913960400191505060405180910390fd5b50600181019050612aec565b506000821315612bef57612bee82612f9a565b5b600160009054906101000a900473ffffffffffffffffffffffffffffffffffffffff1673ffffffffffffffffffffffffffffffffffffffff1663977796d28989336040518463ffffffff1660e01b8152600401808462ffffff1662ffffff168152602001806020018373ffffffffffffffffffffffffffffffffffffffff1673ffffffffffffffffffffffffffffffffffffffff168152602001828103825284818151815260200191508051906020019080838360005b83811015612cc1578082015181840152602081019050612ca6565b50505050905090810190601f168015612cee5780820380516001836020036101000a031916815260200191505b50945050505050600060405180830381600087803b158015612d0f57600080fd5b505af1158015612d23573d6000803e3d6000fd5b50505050612d3085613e47565b612d3984613a1c565b6000821215612d94578273ffffffffffffffffffffffffffffffffffffffff167ffed3b27b73d78d9d1f344bbbf25f7af35e0ac4d6cf8193604ce18082168e461a836000036040518082815260200191505060405180910390a25b6000821315612dec578273ffffffffffffffffffffffffffffffffffffffff167f60213c45c34d8b94e495fd5871fdea7a7511f659e884ea25a0c8843b7f98bfad836040518082815260200191505060405180910390a25b5050505050505050565b6201030181565b60005481565b600260009054906101000a900473ffffffffffffffffffffffffffffffffffffffff1681565b612e3161298c565b612ea3576040517f08c379a00000000000000000000000000000000000000000000000000000000081526004018080602001828103825260208152602001807f4f776e61626c653a2063616c6c6572206973206e6f7420746865206f776e657281525060200191505060405180910390fd5b612eac81613ed5565b50565b600080600060ff8416905060ff610100850416915060ff6201000085041692508282829250925092509193909250565b60606000602084015183109050836020840260408601015101915080612f50576040517f08c379a00000000000000000000000000000000000000000000000000000000081526004018080602001828103825260228152602001806144c56022913960400191505060405180910390fd5b5092915050565b60608060008060208501518501935060408501518501925073ffffffffffffffffffffffffffffffffffffffff6060860151169150608085015190509193509193565b600080600160009054906101000a900473ffffffffffffffffffffffffffffffffffffffff1673ffffffffffffffffffffffffffffffffffffffff1663f971d77c306040518263ffffffff1660e01b8152600401808273ffffffffffffffffffffffffffffffffffffffff1673ffffffffffffffffffffffffffffffffffffffff1681526020019150506101006040518083038186803b15801561303d57600080fd5b505afa158015613051573d6000803e3d6000fd5b505050506040513d61010081101561306857600080fd5b81019080805190602001909291908051906020019092919080519060200190929190805190602001909291908051906020019092919080519060200190929190805190602001909291908051906020019092919050505050505094505050925050828110156133875760006130e6828561401b90919063ffffffff16565b9050600260009054906101000a900473ffffffffffffffffffffffffffffffffffffffff1673ffffffffffffffffffffffffffffffffffffffff166340c10f193061313a868561406590919063ffffffff16565b6040518363ffffffff1660e01b8152600401808373ffffffffffffffffffffffffffffffffffffffff1673ffffffffffffffffffffffffffffffffffffffff16815260200182815260200192505050602060405180830381600087803b1580156131a357600080fd5b505af11580156131b7573d6000803e3d6000fd5b505050506040513d60208110156131cd57600080fd5b810190808051906020019092919050505050600260009054906101000a900473ffffffffffffffffffffffffffffffffffffffff1673ffffffffffffffffffffffffffffffffffffffff1663095ea7b3600160009054906101000a900473ffffffffffffffffffffffffffffffffffffffff16613253868561406590919063ffffffff16565b6040518363ffffffff1660e01b8152600401808373ffffffffffffffffffffffffffffffffffffffff1673ffffffffffffffffffffffffffffffffffffffff16815260200182815260200192505050602060405180830381600087803b1580156132bc57600080fd5b505af11580156132d0573d6000803e3d6000fd5b505050506040513d60208110156132e657600080fd5b810190808051906020019092919050505050600160009054906101000a900473ffffffffffffffffffffffffffffffffffffffff1673ffffffffffffffffffffffffffffffffffffffff166343b54208826040518263ffffffff1660e01b815260040180828152602001915050600060405180830381600087803b15801561336d57600080fd5b505af1158015613381573d6000803e3d6000fd5b50505050505b505050565b60006040820151905060008090505b6133a4856139d8565b8110156137e65760606133c08287612edf90919063ffffffff16565b9050600160009054906101000a900473ffffffffffffffffffffffffffffffffffffffff1673ffffffffffffffffffffffffffffffffffffffff1663977796d28883306040518463ffffffff1660e01b8152600401808462ffffff1662ffffff168152602001806020018373ffffffffffffffffffffffffffffffffffffffff1673ffffffffffffffffffffffffffffffffffffffff168152602001828103825284818151815260200191508051906020019080838360005b83811015613494578082015181840152602081019050613479565b50505050905090810190601f1680156134c15780820380516001836020036101000a031916815260200191505b50945050505050600060405180830381600087803b1580156134e257600080fd5b505af11580156134f6573d6000803e3d6000fd5b5050505060608060008061350985612f57565b9350935093509350600061351c856139d8565b11156137115760008090505b613531856139d8565b81101561370f5760606135448b836140eb565b9050600061356361355e8489612edf90919063ffffffff16565b6139e6565b50915050600060405160200180807f4a6f696e53706c69745369676e61747572652800000000000000000000000000815250601301807f75696e7432342070726f6f662c00000000000000000000000000000000000000815250600d01807f62797465733332206e6f7465486173682c000000000000000000000000000000815250601101807f75696e74323536206368616c6c656e67652c0000000000000000000000000000815250601201807f616464726573732073656e646572000000000000000000000000000000000000815250600e01807f29000000000000000000000000000000000000000000000000000000000000008152506001019050604051602081830303815290604052805190602001208f838d33604051602001808681526020018562ffffff1662ffffff1681526020018481526020018381526020018273ffffffffffffffffffffffffffffffffffffffff1673ffffffffffffffffffffffffffffffffffffffff16815260200195505050505050604051602081830303815290604052805190602001209050613701818385613b31565b505050600181019050613528565b505b61371a84613e47565b61372383613a1c565b600081121561377e578173ffffffffffffffffffffffffffffffffffffffff167ffed3b27b73d78d9d1f344bbbf25f7af35e0ac4d6cf8193604ce18082168e461a826000036040518082815260200191505060405180910390a25b60008113156137d6578173ffffffffffffffffffffffffffffffffffffffff167f60213c45c34d8b94e495fd5871fdea7a7511f659e884ea25a0c8843b7f98bfad826040518082815260200191505060405180910390a25b505050505060018101905061339b565b505050505050565b6000808251848452606084015160408501518160f81c9150604086015160608701526020860151604087015281602087015260208660808860015afa601c8314601b84141760418514167f7fffffffffffffffffffffffffffffff5d576e7357a4501ddfe92f46681b20a0831016169350855187146000811461387057613875565b865195505b508286525050508080156138b65750600073ffffffffffffffffffffffffffffffffffffffff168273ffffffffffffffffffffffffffffffffffffffff1614155b6139d157600073ffffffffffffffffffffffffffffffffffffffff168273ffffffffffffffffffffffffffffffffffffffff16141561395d576040517f08c379a000000000000000000000000000000000000000000000000000000000815260040180806020018281038252601a8152602001807f7369676e657220616464726573732063616e6e6f74206265203000000000000081525060200191505060405180910390fd5b806139d0576040517f08c379a00000000000000000000000000000000000000000000000000000000081526004018080602001828103825260198152602001807f7369676e6174757265207265636f76657279206661696c65640000000000000081525060200191505060405180910390fd5b5b5092915050565b600060208201519050919050565b600080606073ffffffffffffffffffffffffffffffffffffffff6040850151169250606084015191506080840190509193909250565b60008090505b613a2b826139d8565b811015613b2d576000806060613a52613a4d8587612edf90919063ffffffff16565b6139e6565b925092509250613a6182613db8565b613a6b8183613cf0565b818373ffffffffffffffffffffffffffffffffffffffff167f5ffb3072e4515cf3bfae8b16be9dff6313cf7c313a0c26faafe6971d8c7585f1836040518080602001828103825283818151815260200191508051906020019080838360005b83811015613ae5578082015181840152602081019050613aca565b50505050905090810190601f168015613b125780820380516001836020036101000a031916815260200191505b509250505060405180910390a3505050600181019050613a22565b5050565b6000600160009054906101000a900473ffffffffffffffffffffffffffffffffffffffff1673ffffffffffffffffffffffffffffffffffffffff1663fedee26630856040518363ffffffff1660e01b8152600401808373ffffffffffffffffffffffffffffffffffffffff1673ffffffffffffffffffffffffffffffffffffffff1681526020018281526020019250505060806040518083038186803b158015613bda57600080fd5b505afa158015613bee573d6000803e3d6000fd5b505050506040513d6080811015613c0457600080fd5b81019080805190602001909291908051906020019092919080519060200190929190805190602001909291905050509350505050600080835114613c61576000613c4d8661415a565b9050613c5981856137ee565b915050613c65565b3390505b8173ffffffffffffffffffffffffffffffffffffffff168173ffffffffffffffffffffffffffffffffffffffff1614613ce9576040517f08c379a000000000000000000000000000000000000000000000000000000000815260040180806020018281038252602881526020018061432e6028913960400191505060405180910390fd5b5050505050565b6000808351915060e1840151905060618260001c1115613db25760008090505b8160001c811015613db0576000613d278683614185565b905060008186604051602001808373ffffffffffffffffffffffffffffffffffffffff1673ffffffffffffffffffffffffffffffffffffffff1660601b8152601401828152602001925050506040516020818303038152906040528051906020012090504260056000838152602001908152602001600020819055505050600181019050613d10565b505b50505050565b42600460008381526020019081526020016000208190555050565b60008260ff168260ff161115613e34576040517f08c379a00000000000000000000000000000000000000000000000000000000081526004018080602001828103825260258152602001806144a06025913960400191505060405180910390fd5b818303905092915050565b600033905090565b60008090505b613e56826139d8565b811015613ed157600080613e7b613e768486612edf90919063ffffffff16565b6139e6565b5091509150808273ffffffffffffffffffffffffffffffffffffffff167f979308e20fbd28822c4526e85d528175e04e3ca0cf91c46301db34401a26a8c660405160405180910390a35050600181019050613e4d565b5050565b600073ffffffffffffffffffffffffffffffffffffffff168173ffffffffffffffffffffffffffffffffffffffff161415613f5b576040517f08c379a00000000000000000000000000000000000000000000000000000000081526004018080602001828103825260268152602001806143086026913960400191505060405180910390fd5b8073ffffffffffffffffffffffffffffffffffffffff16600760009054906101000a900473ffffffffffffffffffffffffffffffffffffffff1673ffffffffffffffffffffffffffffffffffffffff167f8be0079c531659141344cd1fd0a4f28419497f9722a3daafe3b4186f6b6457e060405160405180910390a380600760006101000a81548173ffffffffffffffffffffffffffffffffffffffff021916908373ffffffffffffffffffffffffffffffffffffffff16021790555050565b600061405d83836040518060400160405280601e81526020017f536166654d6174683a207375627472616374696f6e206f766572666c6f7700008152506141fd565b905092915050565b60008083141561407857600090506140e5565b600082840290508284828161408957fe5b04146140e0576040517f08c379a000000000000000000000000000000000000000000000000000000000815260040180806020018281038252602181526020018061437c6021913960400191505060405180910390fd5b809150505b92915050565b60606000806000604180860260208801015193508086026040880101519250808602604188010151915050828282604051602001808481526020018381526020018260ff1660ff1660f81b81526001019350505050604051602081830303815290604052935050505092915050565b600080600054905060405161190160005281602052836040526042601e209250806040525050919050565b6000806020840151905060208302602060e1018501015191508083106141f6576040517f08c379a000000000000000000000000000000000000000000000000000000000815260040180806020018281038252605e815260200180614411605e913960600191505060405180910390fd5b5092915050565b60008383111582906142aa576040517f08c379a00000000000000000000000000000000000000000000000000000000081526004018080602001828103825283818151815260200191508051906020019080838360005b8381101561426f578082015181840152602081019050614254565b50505050905090810190601f16801561429c5780820380516001836020036101000a031916815260200191505b509250505060405180910390fd5b506000838503905080915050939250505056fe74686973206173736574206f6e6c7920737570706f7274732062616c616e6365642070726f6f66736f6e6c7920756e7370656e74206e6f7465732063616e20626520617070726f7665644f776e61626c653a206e6577206f776e657220697320746865207a65726f2061646472657373746865206e6f7465206f776e657220646964206e6f74207369676e2074686973206d657373616765746865206e6f7465206f776e657220646964206e6f74207369676e20746869732070726f6f66536166654d6174683a206d756c7469706c69636174696f6e206f766572666c6f77454950373132446f6d61696e28737472696e67206e616d652c737472696e672076657273696f6e2c6164647265737320766572696679696e67436f6e74726163742963616c6c657220646f6573206e6f742068617665207065726d697373696f6e20746f20757064617465206d6574614461746161646472657373506f73206f7574206f6620626f756e6473202d2061646472657373506f73206d757374206265206c657373207468616e20746865206e756d626572206f662061646472657373657320746f20626520617070726f76656473656e64657220646f6573206e6f74206861766520617070726f76616c20746f207370656e6420696e707574206e6f746575696e7438207375622074726967676572656420696e746567657220756e646572666c6f77415a54454320617272617920696e646578206973206f7574206f6620626f756e6473a265627a7a723158207feabf7986a366df2281bc42f07b49cd2503c4e40f204a950ef2c74803a6ddbb64736f6c6343000510003261646472657373506f73206f7574206f6620626f756e6473202d2061646472657373506f73206d757374206265206c657373207468616e20746865206e756d626572206f662061646472657373657320746f20626520617070726f766564415a54454320617272617920696e646578206973206f7574206f6620626f756e6473",
  "source": "\n\npragma solidity >=0.5.0 <0.6.0;\n\nimport \"./base/ZkAssetMintableBase.sol\";\n\n/**\n * @title ZkAssetMintable\n * @author AZTEC\n * @dev A contract defining the standard interface and behaviours of a mintable confidential asset.\n * The ownership values and transfer values are encrypted.\n *\n * Copyright 2020 Spilsbury Holdings Ltd \n *\n * Licensed under the GNU Lesser General Public Licence, Version 3.0 (the \"License\");\n * you may not use this file except in compliance with the License.\n *\n * This program is distributed in the hope that it will be useful,\n * but WITHOUT ANY WARRANTY; without even the implied warranty of\n * MERCHANTABILITY or FITNESS FOR A PARTICULAR PURPOSE.  See the\n * GNU Lesser General Public License for more details.\n *\n * You should have received a copy of the GNU Lesser General Public License\n * along with this program.  If not, see <https://www.gnu.org/licenses/>.\n**/\ncontract ZkAssetMintable is ZkAssetMintableBase {\n    constructor(\n        address _aceAddress,\n        address _linkedTokenAddress,\n        uint256 _scalingFactor,\n        uint24 _optionalMintProofId,\n        bytes memory _optionalInitialisationMint\n    ) public ZkAssetOwnableBase(\n        _aceAddress,\n        _linkedTokenAddress,\n        _scalingFactor,\n        true // canAdjustSupply\n    ) {\n        if (_optionalMintProofId != 0 && _optionalInitialisationMint.length != 0) {\n            confidentialMint(_optionalMintProofId, _optionalInitialisationMint);\n        }\n    }\n}\n\n",
  "sourcePath": "@aztec/protocol/contracts/ERC1724/ZkAssetMintable.sol",
  "compiler": {
    "name": "solc",
    "version": "0.5.16+commit.9c3226ce.Emscripten.clang"
  },
  "schemaVersion": "3.2.0",
  "updatedAt": "2020-07-07T03:22:24.635Z",
  "devdoc": {
    "author": "AZTEC",
    "details": "A contract defining the standard interface and behaviours of a mintable confidential asset. The ownership values and transfer values are encrypted. * Copyright 2020 Spilsbury Holdings Ltd  * Licensed under the GNU Lesser General Public Licence, Version 3.0 (the \"License\"); you may not use this file except in compliance with the License. * This program is distributed in the hope that it will be useful, but WITHOUT ANY WARRANTY; without even the implied warranty of MERCHANTABILITY or FITNESS FOR A PARTICULAR PURPOSE.  See the GNU Lesser General Public License for more details. * You should have received a copy of the GNU Lesser General Public License along with this program.  If not, see <https://www.gnu.org/licenses/>.*",
    "methods": {
      "approveProof(uint24,bytes,address,bool,bytes)": {
        "details": "Note owner can approve a third party address, such as a smart contract, to spend a proof on their behalf. This allows a batch approval of notes to be performed, rather than individually for each note via confidentialApprove().",
        "params": {
          "_proofId": "- id of proof to be approved. Needs to be a balanced proof.",
          "_proofOutputs": "- data of proof",
          "_proofSignature": "- ECDSA signature over the proof, approving it to be spent",
          "_spender": "- address being approved to spend the notes"
        }
      },
      "confidentialApprove(bytes32,address,bool,bytes)": {
        "details": "Note owner approving a third party, another address, to spend the note on owner's behalf. This is necessary to allow the confidentialTransferFrom() method to be called",
        "params": {
          "_noteHash": "- keccak256 hash of the note coordinates (gamma and sigma)",
          "_signature": "- ECDSA signature from the note owner that validates the confidentialApprove() instruction",
          "_spender": "- address being approved to spend the note",
          "_spenderApproval": "- defines whether the _spender address is being approved to spend the note, or if permission is being revoked. True if approved, false if not approved"
        }
      },
      "confidentialMint(uint24,bytes)": {
        "details": "Executes a confidential minting procedure, dependent on the provided proofData being succesfully validated by the zero-knowledge validator",
        "params": {
          "_proof": "- uint24 variable which acts as a unique identifier for the proof which _proofOutput is being submitted. _proof contains three concatenated uint8 variables: 1) epoch number 2) category number 3) ID number for the proof",
          "_proofData": "- bytes array of proof data, outputted from a proof construction"
        }
      },
      "confidentialTransfer(bytes,bytes)": {
        "details": "Executes a basic unilateral, confidential transfer of AZTEC notes adapted for use with a mintable ZkAsset.    * Will submit _proofData to the validateProof() function of the Cryptography Engine.    * If public value is being transferred out of the ACE, and the minted value is greater than ACE's token balance, then tokens will be minted from the linked ERC20 token using supplementTokens()    * Upon successfull verification, it will update note registry state - creating output notes and destroying input notes.",
        "params": {
          "_proofData": "bytes variable outputted from proof construction",
          "_signatures": "ECDSA signatures over all input notes involved in the confidentialTransfer()"
        }
      },
      "confidentialTransfer(uint24,bytes,bytes)": {
        "details": "Executes a basic unilateral, confidential transfer of AZTEC notes Will submit _proofData to the validateProof() function of the Cryptography Engine.    * Upon successfull verification, it will update note registry state - creating output notes and destroying input notes.",
        "params": {
          "_proofData": "- bytes variable outputted from a proof verification contract, representing transfer instructions for the ACE",
          "_proofId": "- id of proof to be validated. Needs to be a balanced proof.",
          "_signatures": "- array of the ECDSA signatures over all inputNotes"
        }
      },
      "confidentialTransferFrom(uint24,bytes)": {
        "details": "Executes a value transfer mediated by smart contracts. The method is supplied with transfer instructions represented by a bytes _proofOutput argument that was outputted from a proof verification contract. Adapted for use with a mintable ZkAsset. If public value is being transferred out of the ACE, and the minted value is greater than ACE's token balance, then tokens will be minted from the linked ERC20 token using supplementTokens()",
        "params": {
          "_proofId": "- uint24 variable which acts as a unique identifier for the proof which _proofOutput is being submitted. _proof contains three concatenated uint8 variables: 1) epoch number 2) category number 3) ID number for the proof",
          "_proofOutput": "- output of a zero-knowledge proof validation contract. Represents transfer instructions for the ACE"
        }
      },
      "isOwner()": {
        "details": "Returns true if the caller is the current owner."
      },
      "owner()": {
        "details": "Returns the address of the current owner."
      },
      "renounceOwnership()": {
        "details": "Leaves the contract without owner. It will not be possible to call `onlyOwner` functions anymore. Can only be called by the current owner.     * NOTE: Renouncing ownership will leave the contract without an owner, thereby removing any functionality that is only available to the owner."
      },
      "setProofs(uint8,uint256)": {
        "details": "Set which proofs this asset is able to listen to and validate",
        "params": {
          "_epoch": "epoch number to which the proof belongs",
          "_proofs": "proofs for which the asset will listen to"
        }
      },
      "supportsProof(uint24)": {
        "details": "Return whether the proof is supported or not by this asset. Note that we have    to subtract 1 from the proof id because the original representation is uint8,    but here that id is considered to be an exponent",
        "params": {
          "_proof": "- unique identifier specifying the proof to be checked as to whether it is                supported by the asset"
        },
        "return": "boolean defining whether the asset supports the proof specified by _proof input"
      },
      "transferOwnership(address)": {
        "details": "Transfers ownership of the contract to a new account (`newOwner`). Can only be called by the current owner."
      },
      "updateNoteMetaData(bytes32,bytes)": {
        "details": "Update the metadata of a note that already exists in storage.",
        "params": {
          "metaData": "- metadata to update the note with",
          "noteHash": "- hash of a note, used as a unique identifier for the note"
        }
      },
      "upgradeRegistryVersion(uint24)": {
        "details": "Upgrade the note registry of this asset, by pointing it to a new factory",
        "params": {
          "_factoryId": "- the ID of the factory which will supply the upgraded behaviour contracts"
        }
      }
    },
    "title": "ZkAssetMintable"
  },
  "userdoc": {
    "methods": {}
  }
}