{
  "contractName": "ZkAssetOwnableBase",
  "abi": [
    {
      "inputs": [
        {
          "internalType": "address",
          "name": "_aceAddress",
          "type": "address"
        },
        {
          "internalType": "address",
          "name": "_linkedTokenAddress",
          "type": "address"
        },
        {
          "internalType": "uint256",
          "name": "_scalingFactor",
          "type": "uint256"
        },
        {
          "internalType": "bool",
          "name": "_canAdjustSupply",
          "type": "bool"
        }
      ],
      "payable": false,
      "stateMutability": "nonpayable",
      "type": "constructor"
    },
    {
      "anonymous": false,
      "inputs": [
        {
          "indexed": true,
          "internalType": "address",
          "name": "owner",
          "type": "address"
        },
        {
          "indexed": false,
          "internalType": "uint256",
          "name": "value",
          "type": "uint256"
        }
      ],
      "name": "ConvertTokens",
      "type": "event"
    },
    {
      "anonymous": false,
      "inputs": [
        {
          "indexed": true,
          "internalType": "address",
          "name": "owner",
          "type": "address"
        },
        {
          "indexed": true,
          "internalType": "bytes32",
          "name": "noteHash",
          "type": "bytes32"
        },
        {
          "indexed": false,
          "internalType": "bytes",
          "name": "metadata",
          "type": "bytes"
        }
      ],
      "name": "CreateNote",
      "type": "event"
    },
    {
      "anonymous": false,
      "inputs": [
        {
          "indexed": false,
          "internalType": "uint256",
          "name": "noteRegistryId",
          "type": "uint256"
        }
      ],
      "name": "CreateNoteRegistry",
      "type": "event"
    },
    {
      "anonymous": false,
      "inputs": [
        {
          "indexed": true,
          "internalType": "address",
          "name": "aceAddress",
          "type": "address"
        },
        {
          "indexed": true,
          "internalType": "address",
          "name": "linkedTokenAddress",
          "type": "address"
        },
        {
          "indexed": false,
          "internalType": "uint256",
          "name": "scalingFactor",
          "type": "uint256"
        },
        {
          "indexed": true,
          "internalType": "bool",
          "name": "_canAdjustSupply",
          "type": "bool"
        },
        {
          "indexed": false,
          "internalType": "bool",
          "name": "_canConvert",
          "type": "bool"
        }
      ],
      "name": "CreateZkAsset",
      "type": "event"
    },
    {
      "anonymous": false,
      "inputs": [
        {
          "indexed": true,
          "internalType": "address",
          "name": "owner",
          "type": "address"
        },
        {
          "indexed": true,
          "internalType": "bytes32",
          "name": "noteHash",
          "type": "bytes32"
        }
      ],
      "name": "DestroyNote",
      "type": "event"
    },
    {
      "anonymous": false,
      "inputs": [
        {
          "indexed": true,
          "internalType": "address",
          "name": "previousOwner",
          "type": "address"
        },
        {
          "indexed": true,
          "internalType": "address",
          "name": "newOwner",
          "type": "address"
        }
      ],
      "name": "OwnershipTransferred",
      "type": "event"
    },
    {
      "anonymous": false,
      "inputs": [
        {
          "indexed": true,
          "internalType": "address",
          "name": "owner",
          "type": "address"
        },
        {
          "indexed": false,
          "internalType": "uint256",
          "name": "value",
          "type": "uint256"
        }
      ],
      "name": "RedeemTokens",
      "type": "event"
    },
    {
      "anonymous": false,
      "inputs": [
        {
          "indexed": true,
          "internalType": "address",
          "name": "owner",
          "type": "address"
        },
        {
          "indexed": true,
          "internalType": "bytes32",
          "name": "noteHash",
          "type": "bytes32"
        },
        {
          "indexed": false,
          "internalType": "bytes",
          "name": "metadata",
          "type": "bytes"
        }
      ],
      "name": "UpdateNoteMetaData",
      "type": "event"
    },
    {
      "constant": true,
      "inputs": [],
      "name": "BURN_PROOF",
      "outputs": [
        {
          "internalType": "uint24",
          "name": "",
          "type": "uint24"
        }
      ],
      "payable": false,
      "stateMutability": "view",
      "type": "function"
    },
    {
      "constant": true,
      "inputs": [],
      "name": "DIVIDEND_PROOF",
      "outputs": [
        {
          "internalType": "uint24",
          "name": "",
          "type": "uint24"
        }
      ],
      "payable": false,
      "stateMutability": "view",
      "type": "function"
    },
    {
      "constant": true,
      "inputs": [],
      "name": "EIP712_DOMAIN_HASH",
      "outputs": [
        {
          "internalType": "bytes32",
          "name": "",
          "type": "bytes32"
        }
      ],
      "payable": false,
      "stateMutability": "view",
      "type": "function"
    },
    {
      "constant": true,
      "inputs": [],
      "name": "JOIN_SPLIT_PROOF",
      "outputs": [
        {
          "internalType": "uint24",
          "name": "",
          "type": "uint24"
        }
      ],
      "payable": false,
      "stateMutability": "view",
      "type": "function"
    },
    {
      "constant": true,
      "inputs": [],
      "name": "MINT_PROOF",
      "outputs": [
        {
          "internalType": "uint24",
          "name": "",
          "type": "uint24"
        }
      ],
      "payable": false,
      "stateMutability": "view",
      "type": "function"
    },
    {
      "constant": true,
      "inputs": [],
      "name": "PRIVATE_RANGE_PROOF",
      "outputs": [
        {
          "internalType": "uint24",
          "name": "",
          "type": "uint24"
        }
      ],
      "payable": false,
      "stateMutability": "view",
      "type": "function"
    },
    {
      "constant": true,
      "inputs": [],
      "name": "PUBLIC_RANGE_PROOF",
      "outputs": [
        {
          "internalType": "uint24",
          "name": "",
          "type": "uint24"
        }
      ],
      "payable": false,
      "stateMutability": "view",
      "type": "function"
    },
    {
      "constant": true,
      "inputs": [],
      "name": "ace",
      "outputs": [
        {
          "internalType": "contract IACE",
          "name": "",
          "type": "address"
        }
      ],
      "payable": false,
      "stateMutability": "view",
      "type": "function"
    },
    {
      "constant": false,
      "inputs": [
        {
          "internalType": "uint24",
          "name": "_proofId",
          "type": "uint24"
        },
        {
          "internalType": "bytes",
          "name": "_proofOutputs",
          "type": "bytes"
        },
        {
          "internalType": "address",
          "name": "_spender",
          "type": "address"
        },
        {
          "internalType": "bool",
          "name": "_approval",
          "type": "bool"
        },
        {
          "internalType": "bytes",
          "name": "_proofSignature",
          "type": "bytes"
        }
      ],
      "name": "approveProof",
      "outputs": [],
      "payable": false,
      "stateMutability": "nonpayable",
      "type": "function"
    },
    {
      "constant": false,
      "inputs": [
        {
          "internalType": "bytes32",
          "name": "_noteHash",
          "type": "bytes32"
        },
        {
          "internalType": "address",
          "name": "_spender",
          "type": "address"
        },
        {
          "internalType": "bool",
          "name": "_spenderApproval",
          "type": "bool"
        },
        {
          "internalType": "bytes",
          "name": "_signature",
          "type": "bytes"
        }
      ],
      "name": "confidentialApprove",
      "outputs": [],
      "payable": false,
      "stateMutability": "nonpayable",
      "type": "function"
    },
    {
      "constant": true,
      "inputs": [
        {
          "internalType": "bytes32",
          "name": "",
          "type": "bytes32"
        },
        {
          "internalType": "address",
          "name": "",
          "type": "address"
        }
      ],
      "name": "confidentialApproved",
      "outputs": [
        {
          "internalType": "bool",
          "name": "",
          "type": "bool"
        }
      ],
      "payable": false,
      "stateMutability": "view",
      "type": "function"
    },
    {
      "constant": true,
      "inputs": [],
      "name": "isOwner",
      "outputs": [
        {
          "internalType": "bool",
          "name": "",
          "type": "bool"
        }
      ],
      "payable": false,
      "stateMutability": "view",
      "type": "function"
    },
    {
      "constant": true,
      "inputs": [],
      "name": "linkedToken",
      "outputs": [
        {
          "internalType": "contract IERC20Mintable",
          "name": "",
          "type": "address"
        }
      ],
      "payable": false,
      "stateMutability": "view",
      "type": "function"
    },
    {
      "constant": true,
      "inputs": [
        {
          "internalType": "bytes32",
          "name": "",
          "type": "bytes32"
        }
      ],
      "name": "metaDataTimeLog",
      "outputs": [
        {
          "internalType": "uint256",
          "name": "",
          "type": "uint256"
        }
      ],
      "payable": false,
      "stateMutability": "view",
      "type": "function"
    },
    {
      "constant": true,
      "inputs": [
        {
          "internalType": "bytes32",
          "name": "",
          "type": "bytes32"
        }
      ],
      "name": "noteAccess",
      "outputs": [
        {
          "internalType": "uint256",
          "name": "",
          "type": "uint256"
        }
      ],
      "payable": false,
      "stateMutability": "view",
      "type": "function"
    },
    {
      "constant": true,
      "inputs": [],
      "name": "owner",
      "outputs": [
        {
          "internalType": "address",
          "name": "",
          "type": "address"
        }
      ],
      "payable": false,
      "stateMutability": "view",
      "type": "function"
    },
    {
      "constant": true,
      "inputs": [
        {
          "internalType": "uint8",
          "name": "",
          "type": "uint8"
        }
      ],
      "name": "proofs",
      "outputs": [
        {
          "internalType": "uint256",
          "name": "",
          "type": "uint256"
        }
      ],
      "payable": false,
      "stateMutability": "view",
      "type": "function"
    },
    {
      "constant": false,
      "inputs": [],
      "name": "renounceOwnership",
      "outputs": [],
      "payable": false,
      "stateMutability": "nonpayable",
      "type": "function"
    },
    {
      "constant": true,
      "inputs": [
        {
          "internalType": "bytes32",
          "name": "",
          "type": "bytes32"
        }
      ],
      "name": "signatureLog",
      "outputs": [
        {
          "internalType": "bool",
          "name": "",
          "type": "bool"
        }
      ],
      "payable": false,
      "stateMutability": "view",
      "type": "function"
    },
    {
      "constant": false,
      "inputs": [
        {
          "internalType": "address",
          "name": "newOwner",
          "type": "address"
        }
      ],
      "name": "transferOwnership",
      "outputs": [],
      "payable": false,
      "stateMutability": "nonpayable",
      "type": "function"
    },
    {
      "constant": false,
      "inputs": [
        {
          "internalType": "bytes32",
          "name": "noteHash",
          "type": "bytes32"
        },
        {
          "internalType": "bytes",
          "name": "metaData",
          "type": "bytes"
        }
      ],
      "name": "updateNoteMetaData",
      "outputs": [],
      "payable": false,
      "stateMutability": "nonpayable",
      "type": "function"
    },
    {
      "constant": false,
      "inputs": [
        {
          "internalType": "uint8",
          "name": "_epoch",
          "type": "uint8"
        },
        {
          "internalType": "uint256",
          "name": "_proofs",
          "type": "uint256"
        }
      ],
      "name": "setProofs",
      "outputs": [],
      "payable": false,
      "stateMutability": "nonpayable",
      "type": "function"
    },
    {
      "constant": false,
      "inputs": [
        {
          "internalType": "uint24",
          "name": "_proofId",
          "type": "uint24"
        },
        {
          "internalType": "bytes",
          "name": "_proofData",
          "type": "bytes"
        },
        {
          "internalType": "bytes",
          "name": "_signatures",
          "type": "bytes"
        }
      ],
      "name": "confidentialTransfer",
      "outputs": [],
      "payable": false,
      "stateMutability": "nonpayable",
      "type": "function"
    },
    {
      "constant": false,
      "inputs": [
        {
          "internalType": "bytes",
          "name": "_proofData",
          "type": "bytes"
        },
        {
          "internalType": "bytes",
          "name": "_signatures",
          "type": "bytes"
        }
      ],
      "name": "confidentialTransfer",
      "outputs": [],
      "payable": false,
      "stateMutability": "nonpayable",
      "type": "function"
    },
    {
      "constant": false,
      "inputs": [
        {
          "internalType": "uint24",
          "name": "_proofId",
          "type": "uint24"
        },
        {
          "internalType": "bytes",
          "name": "_proofOutput",
          "type": "bytes"
        }
      ],
      "name": "confidentialTransferFrom",
      "outputs": [],
      "payable": false,
      "stateMutability": "nonpayable",
      "type": "function"
    },
    {
      "constant": true,
      "inputs": [
        {
          "internalType": "uint24",
          "name": "_proof",
          "type": "uint24"
        }
      ],
      "name": "supportsProof",
      "outputs": [
        {
          "internalType": "bool",
          "name": "",
          "type": "bool"
        }
      ],
      "payable": false,
      "stateMutability": "view",
      "type": "function"
    },
    {
      "constant": false,
      "inputs": [
        {
          "internalType": "uint24",
          "name": "_factoryId",
          "type": "uint24"
        }
      ],
      "name": "upgradeRegistryVersion",
      "outputs": [],
      "payable": false,
      "stateMutability": "nonpayable",
      "type": "function"
    }
  ],
  "bytecode": "0x60806040523480156200001157600080fd5b50604051620041c8380380620041c8833981810160405260808110156200003757600080fd5b81019080805190602001909291908051906020019092919080519060200190929190805190602001909291905050508383838360405160200180807f454950373132446f6d61696e2800000000000000000000000000000000000000815250600d01807f737472696e67206e616d652c0000000000000000000000000000000000000000815250600c01807f737472696e672076657273696f6e2c0000000000000000000000000000000000815250600f01807f6164647265737320766572696679696e67436f6e747261637400000000000000815250601901807f29000000000000000000000000000000000000000000000000000000000000008152506001019050604051602081830303815290604052805190602001206040518060400160405280601981526020017f415a5445435f43525950544f4752415048595f454e47494e4500000000000000815250805190602001206040518060400160405280600181526020017f31000000000000000000000000000000000000000000000000000000000000008152508051906020012030604051602001808581526020018481526020018381526020018273ffffffffffffffffffffffffffffffffffffffff1673ffffffffffffffffffffffffffffffffffffffff1681526020019450505050506040516020818303038152906040528051906020012060008190555060008073ffffffffffffffffffffffffffffffffffffffff168473ffffffffffffffffffffffffffffffffffffffff1614620002775760016200027a565b60005b905060405160200180807f454950373132446f6d61696e2800000000000000000000000000000000000000815250600d01807f737472696e67206e616d652c0000000000000000000000000000000000000000815250600c01807f737472696e672076657273696f6e2c0000000000000000000000000000000000815250600f01807f6164647265737320766572696679696e67436f6e747261637400000000000000815250601901807f29000000000000000000000000000000000000000000000000000000000000008152506001019050604051602081830303815290604052805190602001206040518060400160405280600881526020017f5a4b5f4153534554000000000000000000000000000000000000000000000000815250805190602001206040518060400160405280600181526020017f3100000000000000000000000000000000000000000000000000000000000000815250805190602001203073ffffffffffffffffffffffffffffffffffffffff1660001b604051602001808581526020018481526020018381526020018281526020019450505050506040516020818303038152906040528051906020012060008190555084600160006101000a81548173ffffffffffffffffffffffffffffffffffffffff021916908373ffffffffffffffffffffffffffffffffffffffff16021790555083600260006101000a81548173ffffffffffffffffffffffffffffffffffffffff021916908373ffffffffffffffffffffffffffffffffffffffff160217905550600160009054906101000a900473ffffffffffffffffffffffffffffffffffffffff1673ffffffffffffffffffffffffffffffffffffffff1663a5468ca2858585856040518563ffffffff1660e01b8152600401808573ffffffffffffffffffffffffffffffffffffffff1673ffffffffffffffffffffffffffffffffffffffff1681526020018481526020018315151515815260200182151515158152602001945050505050600060405180830381600087803b1580156200057c57600080fd5b505af115801562000591573d6000803e3d6000fd5b505050508115158473ffffffffffffffffffffffffffffffffffffffff168673ffffffffffffffffffffffffffffffffffffffff167fca576e79bcb5c4a0045d9d596a80c733c3997559f688f69e5c03bd737d885b86868560405180838152602001821515151581526020019250505060405180910390a450505050506000620006206200078d60201b60201c565b905080600760006101000a81548173ffffffffffffffffffffffffffffffffffffffff021916908373ffffffffffffffffffffffffffffffffffffffff1602179055508073ffffffffffffffffffffffffffffffffffffffff16600073ffffffffffffffffffffffffffffffffffffffff167f8be0079c531659141344cd1fd0a4f28419497f9722a3daafe3b4186f6b6457e060405160405180910390a350601160086000600160009054906101000a900473ffffffffffffffffffffffffffffffffffffffff1673ffffffffffffffffffffffffffffffffffffffff16639cb118bf6040518163ffffffff1660e01b815260040160206040518083038186803b1580156200072e57600080fd5b505afa15801562000743573d6000803e3d6000fd5b505050506040513d60208110156200075a57600080fd5b810190808051906020019092919050505060ff1660ff168152602001908152602001600020819055505050505062000795565b600033905090565b613a2380620007a56000396000f3fe608060405234801561001057600080fd5b50600436106101a85760003560e01c80637f08dede116100f9578063985cd3b711610097578063df92462511610071578063df92462514610b9f578063e306f77914610bc7578063ea12489f14610be5578063f2fde38b14610c2f576101a8565b8063985cd3b714610a49578063a5c8fa8414610a8b578063cdfea90e14610ad5576101a8565b80638da5cb5b116100d35780638da5cb5b146108635780638e526d9b146108ad5780638f32d59b146108d557806396988498146108f7576101a8565b80637f08dede146107ae57806384a26fc8146107f95780638500e1f81461083b576101a8565b80631f2ac16a1161016657806349518b281161014057806349518b28146106fc578063715018a614610724578063764481181461072e57806376ae6bee14610773576101a8565b80631f2ac16a146105135780632140e0c5146106045780632e3b9a3b14610637576101a8565b80625bf732146101ad57806302d1fdc9146101d557806308ae900a1461033657806309146c7c1461035e5780630a60305a146103a45780630f4a80fe146104ad575b600080fd5b6101b5610c73565b604051808262ffffff1662ffffff16815260200191505060405180910390f35b610334600480360360608110156101eb57600080fd5b81019080803562ffffff1690602001909291908035906020019064010000000081111561021757600080fd5b82018360208201111561022957600080fd5b8035906020019184600183028401116401000000008311171561024b57600080fd5b91908080601f016020809104026020016040519081016040528093929190818152602001838380828437600081840152601f19601f820116905080830192505050505050509192919290803590602001906401000000008111156102ae57600080fd5b8201836020820111156102c057600080fd5b803590602001918460018302840111640100000000831117156102e257600080fd5b91908080601f016020809104026020016040519081016040528093929190818152602001838380828437600081840152601f19601f820116905080830192505050505050509192919290505050610c7a565b005b61033e610d12565b604051808262ffffff1662ffffff16815260200191505060405180910390f35b61038a6004803603602081101561037457600080fd5b8101908080359060200190929190505050610d19565b604051808215151515815260200191505060405180910390f35b6104ab600480360360a08110156103ba57600080fd5b81019080803562ffffff169060200190929190803590602001906401000000008111156103e657600080fd5b8201836020820111156103f857600080fd5b8035906020019184600183028401116401000000008311171561041a57600080fd5b9091929391929390803573ffffffffffffffffffffffffffffffffffffffff1690602001909291908035151590602001909291908035906020019064010000000081111561046757600080fd5b82018360208201111561047957600080fd5b8035906020019184600183028401116401000000008311171561049b57600080fd5b9091929391929390505050610d39565b005b6104f9600480360360408110156104c357600080fd5b8101908080359060200190929190803573ffffffffffffffffffffffffffffffffffffffff169060200190929190505050611522565b604051808215151515815260200191505060405180910390f35b6106026004803603608081101561052957600080fd5b8101908080359060200190929190803573ffffffffffffffffffffffffffffffffffffffff1690602001909291908035151590602001909291908035906020019064010000000081111561057c57600080fd5b82018360208201111561058e57600080fd5b803590602001918460018302840111640100000000831117156105b057600080fd5b91908080601f016020809104026020016040519081016040528093929190818152602001838380828437600081840152601f19601f820116905080830192505050505050509192919290505050611551565b005b6106356004803603602081101561061a57600080fd5b81019080803562ffffff1690602001909291905050506119d0565b005b6106fa6004803603604081101561064d57600080fd5b81019080803590602001909291908035906020019064010000000081111561067457600080fd5b82018360208201111561068657600080fd5b803590602001918460018302840111640100000000831117156106a857600080fd5b91908080601f016020809104026020016040519081016040528093929190818152602001838380828437600081840152601f19601f820116905080830192505050505050509192919290505050611ae4565b005b610704611de1565b604051808262ffffff1662ffffff16815260200191505060405180910390f35b61072c611de8565b005b61075d6004803603602081101561074457600080fd5b81019080803560ff169060200190929190505050611f23565b6040518082815260200191505060405180910390f35b6107ac6004803603604081101561078957600080fd5b81019080803560ff16906020019092919080359060200190929190505050611f3b565b005b6107df600480360360208110156107c457600080fd5b81019080803562ffffff169060200190929190505050611fd7565b604051808215151515815260200191505060405180910390f35b6108256004803603602081101561080f57600080fd5b81019080803590602001909291905050506120aa565b6040518082815260200191505060405180910390f35b6108436120c2565b604051808262ffffff1662ffffff16815260200191505060405180910390f35b61086b6120c9565b604051808273ffffffffffffffffffffffffffffffffffffffff1673ffffffffffffffffffffffffffffffffffffffff16815260200191505060405180910390f35b6108b56120f3565b604051808262ffffff1662ffffff16815260200191505060405180910390f35b6108dd6120fa565b604051808215151515815260200191505060405180910390f35b610a476004803603604081101561090d57600080fd5b810190808035906020019064010000000081111561092a57600080fd5b82018360208201111561093c57600080fd5b8035906020019184600183028401116401000000008311171561095e57600080fd5b91908080601f016020809104026020016040519081016040528093929190818152602001838380828437600081840152601f19601f820116905080830192505050505050509192919290803590602001906401000000008111156109c157600080fd5b8201836020820111156109d357600080fd5b803590602001918460018302840111640100000000831117156109f557600080fd5b91908080601f016020809104026020016040519081016040528093929190818152602001838380828437600081840152601f19601f820116905080830192505050505050509192919290505050612159565b005b610a7560048036036020811015610a5f57600080fd5b810190808035906020019092919050505061216b565b6040518082815260200191505060405180910390f35b610a93612183565b604051808273ffffffffffffffffffffffffffffffffffffffff1673ffffffffffffffffffffffffffffffffffffffff16815260200191505060405180910390f35b610b9d60048036036040811015610aeb57600080fd5b81019080803562ffffff16906020019092919080359060200190640100000000811115610b1757600080fd5b820183602082011115610b2957600080fd5b80359060200191846001830284011164010000000083111715610b4b57600080fd5b91908080601f016020809104026020016040519081016040528093929190818152602001838380828437600081840152601f19601f8201169050808301925050505050505091929192905050506121a9565b005b610ba761223f565b604051808262ffffff1662ffffff16815260200191505060405180910390f35b610bcf612246565b6040518082815260200191505060405180910390f35b610bed61224c565b604051808273ffffffffffffffffffffffffffffffffffffffff1673ffffffffffffffffffffffffffffffffffffffff16815260200191505060405180910390f35b610c7160048036036020811015610c4557600080fd5b81019080803573ffffffffffffffffffffffffffffffffffffffff169060200190929190505050612272565b005b6201010181565b6000610c8584611fd7565b90506001151581151514610d01576040517f08c379a000000000000000000000000000000000000000000000000000000000815260040180806020018281038252601e8152602001807f65787065637465642070726f6f6620746f20626520737570706f72746564000081525060200191505060405180910390fd5b610d0c8484846122f8565b50505050565b6201040381565b60066020528060005260406000206000915054906101000a900460ff1681565b6000828260405180838380828437808301925050509250505060405180910390209050600115156006600083815260200190815260200160002060009054906101000a900460ff1615151415610df7576040517f08c379a000000000000000000000000000000000000000000000000000000000815260040180806020018281038252601f8152602001807f7369676e61747572652068617320616c7265616479206265656e20757365640081525060200191505060405180910390fd5b60016006600083815260200190815260200160002060006101000a81548160ff02191690831515021790555060006040518060800160405280604281526020016138a5604291396040516020018082805190602001908083835b60208310610e745780518252602082019150602081019050602083039250610e51565b6001836020036101000a0380198251168184511680821785525050505050509050019150506040516020818303038152906040528051906020012060405180807f5a4b5f41535345540000000000000000000000000000000000000000000000008152506008019050604051809103902060405180807f31000000000000000000000000000000000000000000000000000000000000008152506001019050604051809103902030604051602001808581526020018481526020018381526020018273ffffffffffffffffffffffffffffffffffffffff1673ffffffffffffffffffffffffffffffffffffffff16815260200194505050505060405160208183030381529060405280519060200120905060008160405160200180807f50726f6f665369676e6174757265280000000000000000000000000000000000815250600f01807f627974657333322070726f6f66486173682c0000000000000000000000000000815250601201807f61646472657373207370656e6465722c00000000000000000000000000000000815250601001807f626f6f6c20617070726f76616c00000000000000000000000000000000000000815250600d01807f29000000000000000000000000000000000000000000000000000000000000008152506001019050604051602081830303815290604052805190602001208a8a60405180838380828437808301925050509250505060405180910390208989604051602001808581526020018481526020018373ffffffffffffffffffffffffffffffffffffffff1673ffffffffffffffffffffffffffffffffffffffff168152602001821515151581526020019450505050506040516020818303038152906040528051906020012060405160200180807f19010000000000000000000000000000000000000000000000000000000000008152506002018381526020018281526020019250505060405160208183030381529060405280519060200120905060006111a28287878080601f016020809104026020016040519081016040528093929190818152602001838380828437600081840152601f19601f820116905080830192505050505050506125c3565b905060008090505b6111f78b8b8080601f016020809104026020016040519081016040528093929190818152602001838380828437600081840152601f19601f820116905080830192505050505050506127ad565b811015611514576060611257828d8d8080601f016020809104026020016040519081016040528093929190818152602001838380828437600081840152601f19601f820116905080830192505050505050506127bb90919063ffffffff16565b9050606061126482612833565b505050905060008090505b611278826127ad565b81101561149757600061129c61129783856127bb90919063ffffffff16565b612876565b50915050600080600160009054906101000a900473ffffffffffffffffffffffffffffffffffffffff1673ffffffffffffffffffffffffffffffffffffffff1663fedee26630856040518363ffffffff1660e01b8152600401808373ffffffffffffffffffffffffffffffffffffffff1673ffffffffffffffffffffffffffffffffffffffff1681526020018281526020019250505060806040518083038186803b15801561134a57600080fd5b505afa15801561135e573d6000803e3d6000fd5b505050506040513d608081101561137457600080fd5b810190808051906020019092919080519060200190929190805190602001909291908051906020019092919050505093505050915060018260ff1614611405576040517f08c379a000000000000000000000000000000000000000000000000000000000815260040180806020018281038252602281526020018061380f6022913960400191505060405180910390fd5b8773ffffffffffffffffffffffffffffffffffffffff168173ffffffffffffffffffffffffffffffffffffffff1614611489576040517f08c379a000000000000000000000000000000000000000000000000000000000815260040180806020018281038252602681526020018061387f6026913960400191505060405180910390fd5b50505060018101905061126f565b5089600360008480519060200120815260200190815260200160002060008d73ffffffffffffffffffffffffffffffffffffffff1673ffffffffffffffffffffffffffffffffffffffff16815260200190815260200160002060006101000a81548160ff02191690831515021790555050506001810190506111aa565b505050505050505050505050565b60036020528160005260406000206020528060005260406000206000915091509054906101000a900460ff1681565b6000600160009054906101000a900473ffffffffffffffffffffffffffffffffffffffff1673ffffffffffffffffffffffffffffffffffffffff1663fedee26630876040518363ffffffff1660e01b8152600401808373ffffffffffffffffffffffffffffffffffffffff1673ffffffffffffffffffffffffffffffffffffffff1681526020018281526020019250505060806040518083038186803b1580156115fa57600080fd5b505afa15801561160e573d6000803e3d6000fd5b505050506040513d608081101561162457600080fd5b8101908080519060200190929190805190602001909291908051906020019092919080519060200190929190505050505050905060018160ff16146116b4576040517f08c379a000000000000000000000000000000000000000000000000000000000815260040180806020018281038252602281526020018061380f6022913960400191505060405180910390fd5b6000826040516020018082805190602001908083835b602083106116ed57805182526020820191506020810190506020830392506116ca565b6001836020036101000a038019825116818451168082178552505050505050905001915050604051602081830303815290604052805190602001209050600115156006600083815260200190815260200160002060009054906101000a900460ff16151514156117c5576040517f08c379a000000000000000000000000000000000000000000000000000000000815260040180806020018281038252601f8152602001807f7369676e61747572652068617320616c7265616479206265656e20757365640081525060200191505060405180910390fd5b60008351146117fb5760016006600083815260200190815260200160002060006101000a81548160ff0219169083151502179055505b600060405160200180807f4e6f74655369676e617475726528000000000000000000000000000000000000815250600e01807f62797465733332206e6f7465486173682c000000000000000000000000000000815250601101807f61646472657373207370656e6465722c00000000000000000000000000000000815250601001807f626f6f6c207370656e646572417070726f76616c000000000000000000000000815250601401807f2900000000000000000000000000000000000000000000000000000000000000815250600101905060405160208183030381529060405280519060200120878787604051602001808581526020018481526020018373ffffffffffffffffffffffffffffffffffffffff1673ffffffffffffffffffffffffffffffffffffffff1681526020018215151515815260200194505050505060405160208183030381529060405280519060200120905061195f8188866128ac565b846003600089815260200190815260200160002060008873ffffffffffffffffffffffffffffffffffffffff1673ffffffffffffffffffffffffffffffffffffffff16815260200190815260200160002060006101000a81548160ff02191690831515021790555050505050505050565b6119d86120fa565b611a4a576040517f08c379a00000000000000000000000000000000000000000000000000000000081526004018080602001828103825260208152602001807f4f776e61626c653a2063616c6c6572206973206e6f7420746865206f776e657281525060200191505060405180910390fd5b600160009054906101000a900473ffffffffffffffffffffffffffffffffffffffff1673ffffffffffffffffffffffffffffffffffffffff166385b69d7c826040518263ffffffff1660e01b8152600401808262ffffff1662ffffff168152602001915050600060405180830381600087803b158015611ac957600080fd5b505af1158015611add573d6000803e3d6000fd5b5050505050565b600080600160009054906101000a900473ffffffffffffffffffffffffffffffffffffffff1673ffffffffffffffffffffffffffffffffffffffff1663fedee26630866040518363ffffffff1660e01b8152600401808373ffffffffffffffffffffffffffffffffffffffff1673ffffffffffffffffffffffffffffffffffffffff1681526020018281526020019250505060806040518083038186803b158015611b8e57600080fd5b505afa158015611ba2573d6000803e3d6000fd5b505050506040513d6080811015611bb857600080fd5b810190808051906020019092919080519060200190929190805190602001909291908051906020019092919050505093505050915060003385604051602001808373ffffffffffffffffffffffffffffffffffffffff1673ffffffffffffffffffffffffffffffffffffffff1660601b81526014018281526020019250505060405160208183030381529060405280519060200120905060046000868152602001908152602001600020546005600083815260200190815260200160002054101580611caf57503373ffffffffffffffffffffffffffffffffffffffff168273ffffffffffffffffffffffffffffffffffffffff16145b8015611cbe575060018360ff16145b611d13576040517f08c379a00000000000000000000000000000000000000000000000000000000081526004018080602001828103825260328152602001806138e76032913960400191505060405180910390fd5b611d1d8486612a6b565b611d2685612b33565b848273ffffffffffffffffffffffffffffffffffffffff167fda392cb8aa0843e7e474e7bacfae355313fc4202094b3e81d2a488b5c05207bf866040518080602001828103825283818151815260200191508051906020019080838360005b83811015611da0578082015181840152602081019050611d85565b50505050905090810190601f168015611dcd5780820380516001836020036101000a031916815260200191505b509250505060405180910390a35050505050565b6201040281565b611df06120fa565b611e62576040517f08c379a00000000000000000000000000000000000000000000000000000000081526004018080602001828103825260208152602001807f4f776e61626c653a2063616c6c6572206973206e6f7420746865206f776e657281525060200191505060405180910390fd5b600073ffffffffffffffffffffffffffffffffffffffff16600760009054906101000a900473ffffffffffffffffffffffffffffffffffffffff1673ffffffffffffffffffffffffffffffffffffffff167f8be0079c531659141344cd1fd0a4f28419497f9722a3daafe3b4186f6b6457e060405160405180910390a36000600760006101000a81548173ffffffffffffffffffffffffffffffffffffffff021916908373ffffffffffffffffffffffffffffffffffffffff160217905550565b60086020528060005260406000206000915090505481565b611f436120fa565b611fb5576040517f08c379a00000000000000000000000000000000000000000000000000000000081526004018080602001828103825260208152602001807f4f776e61626c653a2063616c6c6572206973206e6f7420746865206f776e657281525060200191505060405180910390fd5b80600860008460ff1660ff168152602001908152602001600020819055505050565b600080600080611feb8562ffffff16612b4e565b92509250925060016004811115611ffe57fe5b60ff168260ff161461205b576040517f08c379a00000000000000000000000000000000000000000000000000000000081526004018080602001828103825260288152602001806137e76028913960400191505060405180910390fd5b6000600161207660018460ff16612b7e90919063ffffffff16565b60ff16600860008760ff1660ff16815260200190815260200160002054901c16905060018160ff1614945050505050919050565b60056020528060005260406000206000915090505481565b6201040181565b6000600760009054906101000a900473ffffffffffffffffffffffffffffffffffffffff16905090565b6201020181565b6000600760009054906101000a900473ffffffffffffffffffffffffffffffffffffffff1673ffffffffffffffffffffffffffffffffffffffff1661213d612bea565b73ffffffffffffffffffffffffffffffffffffffff1614905090565b612167620101018383610c7a565b5050565b60046020528060005260406000206000915090505481565b600160009054906101000a900473ffffffffffffffffffffffffffffffffffffffff1681565b60006121b483611fd7565b90506001151581151514612230576040517f08c379a000000000000000000000000000000000000000000000000000000000815260040180806020018281038252601e8152602001807f65787065637465642070726f6f6620746f20626520737570706f72746564000081525060200191505060405180910390fd5b61223a8383612bf2565b505050565b6201030181565b60005481565b600260009054906101000a900473ffffffffffffffffffffffffffffffffffffffff1681565b61227a6120fa565b6122ec576040517f08c379a00000000000000000000000000000000000000000000000000000000081526004018080602001828103825260208152602001807f4f776e61626c653a2063616c6c6572206973206e6f7420746865206f776e657281525060200191505060405180910390fd5b6122f581612f89565b50565b60006123088462ffffff16612b4e565b509150506001600481111561231957fe5b60ff168160ff1614612393576040517f08c379a000000000000000000000000000000000000000000000000000000000815260040180806020018281038252601c8152602001807f74686973206973206e6f7420612062616c616e6365642070726f6f660000000081525060200191505060405180910390fd5b6060600160009054906101000a900473ffffffffffffffffffffffffffffffffffffffff1673ffffffffffffffffffffffffffffffffffffffff1663a2866ea38633876040518463ffffffff1660e01b8152600401808462ffffff1662ffffff1681526020018373ffffffffffffffffffffffffffffffffffffffff1673ffffffffffffffffffffffffffffffffffffffff16815260200180602001828103825283818151815260200191508051906020019080838360005b8381101561246757808201518184015260208101905061244c565b50505050905090810190601f1680156124945780820380516001836020036101000a031916815260200191505b50945050505050600060405180830381600087803b1580156124b557600080fd5b505af11580156124c9573d6000803e3d6000fd5b505050506040513d6000823e3d601f19601f8201168201806040525060208110156124f357600080fd5b810190808051604051939291908464010000000082111561251357600080fd5b8382019150602082018581111561252957600080fd5b825186600182028301116401000000008211171561254657600080fd5b8083526020830192505050908051906020019080838360005b8381101561257a57808201518184015260208101905061255f565b50505050905090810190601f1680156125a75780820380516001836020036101000a031916815260200191505b5060405250505090506125bc858285876130cf565b5050505050565b6000808251848452606084015160408501518160f81c9150604086015160608701526020860151604087015281602087015260208660808860015afa601c8314601b84141760418514167f7fffffffffffffffffffffffffffffff5d576e7357a4501ddfe92f46681b20a083101616935085518714600081146126455761264a565b865195505b5082865250505080801561268b5750600073ffffffffffffffffffffffffffffffffffffffff168273ffffffffffffffffffffffffffffffffffffffff1614155b6127a657600073ffffffffffffffffffffffffffffffffffffffff168273ffffffffffffffffffffffffffffffffffffffff161415612732576040517f08c379a000000000000000000000000000000000000000000000000000000000815260040180806020018281038252601a8152602001807f7369676e657220616464726573732063616e6e6f74206265203000000000000081525060200191505060405180910390fd5b806127a5576040517f08c379a00000000000000000000000000000000000000000000000000000000081526004018080602001828103825260198152602001807f7369676e6174757265207265636f76657279206661696c65640000000000000081525060200191505060405180910390fd5b5b5092915050565b600060208201519050919050565b6060600060208401518310905083602084026040860101510191508061282c576040517f08c379a00000000000000000000000000000000000000000000000000000000081526004018080602001828103825260228152602001806139cd6022913960400191505060405180910390fd5b5092915050565b60608060008060208501518501935060408501518501925073ffffffffffffffffffffffffffffffffffffffff6060860151169150608085015190509193509193565b600080606073ffffffffffffffffffffffffffffffffffffffff6040850151169250606084015191506080840190509193909250565b6000600160009054906101000a900473ffffffffffffffffffffffffffffffffffffffff1673ffffffffffffffffffffffffffffffffffffffff1663fedee26630856040518363ffffffff1660e01b8152600401808373ffffffffffffffffffffffffffffffffffffffff1673ffffffffffffffffffffffffffffffffffffffff1681526020018281526020019250505060806040518083038186803b15801561295557600080fd5b505afa158015612969573d6000803e3d6000fd5b505050506040513d608081101561297f57600080fd5b810190808051906020019092919080519060200190929190805190602001909291908051906020019092919050505093505050506000808351146129dc5760006129c886613531565b90506129d481856125c3565b9150506129e0565b3390505b8173ffffffffffffffffffffffffffffffffffffffff168173ffffffffffffffffffffffffffffffffffffffff1614612a64576040517f08c379a00000000000000000000000000000000000000000000000000000000081526004018080602001828103825260288152602001806138576028913960400191505060405180910390fd5b5050505050565b6000808351915060e1840151905060618260001c1115612b2d5760008090505b8160001c811015612b2b576000612aa2868361355c565b905060008186604051602001808373ffffffffffffffffffffffffffffffffffffffff1673ffffffffffffffffffffffffffffffffffffffff1660601b8152601401828152602001925050506040516020818303038152906040528051906020012090504260056000838152602001908152602001600020819055505050600181019050612a8b565b505b50505050565b42600460008381526020019081526020016000208190555050565b600080600060ff8416905060ff610100850416915060ff6201000085041692508282829250925092509193909250565b60008260ff168260ff161115612bdf576040517f08c379a00000000000000000000000000000000000000000000000000000000081526004018080602001828103825260258152602001806139a86025913960400191505060405180910390fd5b818303905092915050565b600033905090565b606080600080612c0185612833565b9350935093509350600085805190602001209050600115156003600083815260200190815260200160002060003373ffffffffffffffffffffffffffffffffffffffff1673ffffffffffffffffffffffffffffffffffffffff16815260200190815260200160002060009054906101000a900460ff16151514612d83576000612c89866127ad565b905060008090505b81811015612d80576000612cb6612cb1838a6127bb90919063ffffffff16565b612876565b50915050600115156003600083815260200190815260200160002060003373ffffffffffffffffffffffffffffffffffffffff1673ffffffffffffffffffffffffffffffffffffffff16815260200190815260200160002060009054906101000a900460ff16151514612d74576040517f08c379a00000000000000000000000000000000000000000000000000000000081526004018080602001828103825260318152602001806139776031913960400191505060405180910390fd5b50600181019050612c91565b50505b600160009054906101000a900473ffffffffffffffffffffffffffffffffffffffff1673ffffffffffffffffffffffffffffffffffffffff1663977796d28888336040518463ffffffff1660e01b8152600401808462ffffff1662ffffff168152602001806020018373ffffffffffffffffffffffffffffffffffffffff1673ffffffffffffffffffffffffffffffffffffffff168152602001828103825284818151815260200191508051906020019080838360005b83811015612e55578082015181840152602081019050612e3a565b50505050905090810190601f168015612e825780820380516001836020036101000a031916815260200191505b50945050505050600060405180830381600087803b158015612ea357600080fd5b505af1158015612eb7573d6000803e3d6000fd5b50505050612ec4856135d4565b612ecd84613662565b6000821215612f28578273ffffffffffffffffffffffffffffffffffffffff167ffed3b27b73d78d9d1f344bbbf25f7af35e0ac4d6cf8193604ce18082168e461a836000036040518082815260200191505060405180910390a25b6000821315612f80578273ffffffffffffffffffffffffffffffffffffffff167f60213c45c34d8b94e495fd5871fdea7a7511f659e884ea25a0c8843b7f98bfad836040518082815260200191505060405180910390a25b50505050505050565b600073ffffffffffffffffffffffffffffffffffffffff168173ffffffffffffffffffffffffffffffffffffffff16141561300f576040517f08c379a00000000000000000000000000000000000000000000000000000000081526004018080602001828103825260268152602001806138316026913960400191505060405180910390fd5b8073ffffffffffffffffffffffffffffffffffffffff16600760009054906101000a900473ffffffffffffffffffffffffffffffffffffffff1673ffffffffffffffffffffffffffffffffffffffff167f8be0079c531659141344cd1fd0a4f28419497f9722a3daafe3b4186f6b6457e060405160405180910390a380600760006101000a81548173ffffffffffffffffffffffffffffffffffffffff021916908373ffffffffffffffffffffffffffffffffffffffff16021790555050565b60006040820151905060008090505b6130e7856127ad565b81101561352957606061310382876127bb90919063ffffffff16565b9050600160009054906101000a900473ffffffffffffffffffffffffffffffffffffffff1673ffffffffffffffffffffffffffffffffffffffff1663977796d28883306040518463ffffffff1660e01b8152600401808462ffffff1662ffffff168152602001806020018373ffffffffffffffffffffffffffffffffffffffff1673ffffffffffffffffffffffffffffffffffffffff168152602001828103825284818151815260200191508051906020019080838360005b838110156131d75780820151818401526020810190506131bc565b50505050905090810190601f1680156132045780820380516001836020036101000a031916815260200191505b50945050505050600060405180830381600087803b15801561322557600080fd5b505af1158015613239573d6000803e3d6000fd5b5050505060608060008061324c85612833565b9350935093509350600061325f856127ad565b11156134545760008090505b613274856127ad565b8110156134525760606132878b83613777565b905060006132a66132a184896127bb90919063ffffffff16565b612876565b50915050600060405160200180807f4a6f696e53706c69745369676e61747572652800000000000000000000000000815250601301807f75696e7432342070726f6f662c00000000000000000000000000000000000000815250600d01807f62797465733332206e6f7465486173682c000000000000000000000000000000815250601101807f75696e74323536206368616c6c656e67652c0000000000000000000000000000815250601201807f616464726573732073656e646572000000000000000000000000000000000000815250600e01807f29000000000000000000000000000000000000000000000000000000000000008152506001019050604051602081830303815290604052805190602001208f838d33604051602001808681526020018562ffffff1662ffffff1681526020018481526020018381526020018273ffffffffffffffffffffffffffffffffffffffff1673ffffffffffffffffffffffffffffffffffffffff168152602001955050505050506040516020818303038152906040528051906020012090506134448183856128ac565b50505060018101905061326b565b505b61345d846135d4565b61346683613662565b60008112156134c1578173ffffffffffffffffffffffffffffffffffffffff167ffed3b27b73d78d9d1f344bbbf25f7af35e0ac4d6cf8193604ce18082168e461a826000036040518082815260200191505060405180910390a25b6000811315613519578173ffffffffffffffffffffffffffffffffffffffff167f60213c45c34d8b94e495fd5871fdea7a7511f659e884ea25a0c8843b7f98bfad826040518082815260200191505060405180910390a25b50505050506001810190506130de565b505050505050565b600080600054905060405161190160005281602052836040526042601e209250806040525050919050565b6000806020840151905060208302602060e1018501015191508083106135cd576040517f08c379a000000000000000000000000000000000000000000000000000000000815260040180806020018281038252605e815260200180613919605e913960600191505060405180910390fd5b5092915050565b60008090505b6135e3826127ad565b81101561365e5760008061360861360384866127bb90919063ffffffff16565b612876565b5091509150808273ffffffffffffffffffffffffffffffffffffffff167f979308e20fbd28822c4526e85d528175e04e3ca0cf91c46301db34401a26a8c660405160405180910390a350506001810190506135da565b5050565b60008090505b613671826127ad565b81101561377357600080606061369861369385876127bb90919063ffffffff16565b612876565b9250925092506136a782612b33565b6136b18183612a6b565b818373ffffffffffffffffffffffffffffffffffffffff167f5ffb3072e4515cf3bfae8b16be9dff6313cf7c313a0c26faafe6971d8c7585f1836040518080602001828103825283818151815260200191508051906020019080838360005b8381101561372b578082015181840152602081019050613710565b50505050905090810190601f1680156137585780820380516001836020036101000a031916815260200191505b509250505060405180910390a3505050600181019050613668565b5050565b60606000806000604180860260208801015193508086026040880101519250808602604188010151915050828282604051602001808481526020018381526020018260ff1660ff1660f81b8152600101935050505060405160208183030381529060405293505050509291505056fe74686973206173736574206f6e6c7920737570706f7274732062616c616e6365642070726f6f66736f6e6c7920756e7370656e74206e6f7465732063616e20626520617070726f7665644f776e61626c653a206e6577206f776e657220697320746865207a65726f2061646472657373746865206e6f7465206f776e657220646964206e6f74207369676e2074686973206d657373616765746865206e6f7465206f776e657220646964206e6f74207369676e20746869732070726f6f66454950373132446f6d61696e28737472696e67206e616d652c737472696e672076657273696f6e2c6164647265737320766572696679696e67436f6e74726163742963616c6c657220646f6573206e6f742068617665207065726d697373696f6e20746f20757064617465206d6574614461746161646472657373506f73206f7574206f6620626f756e6473202d2061646472657373506f73206d757374206265206c657373207468616e20746865206e756d626572206f662061646472657373657320746f20626520617070726f76656473656e64657220646f6573206e6f74206861766520617070726f76616c20746f207370656e6420696e707574206e6f746575696e7438207375622074726967676572656420696e746567657220756e646572666c6f77415a54454320617272617920696e646578206973206f7574206f6620626f756e6473a265627a7a72315820026b372f7d301d8b5d3bea916cb7c9f0646c13038f345e692a9f484bf837f7df64736f6c63430005100032",
  "source": "pragma solidity >=0.5.0 <0.6.0;\n\nimport \"./ZkAssetBase.sol\";\nimport \"../../libs/ProofUtils.sol\";\nimport \"../../libs/SafeMath8.sol\";\n\nimport \"openzeppelin-solidity/contracts/ownership/Ownable.sol\";\n\n/**\n * @title ZkAssetOwnableBase\n * @author AZTEC\n * @dev A contract which inherits from ZkAsset and includes the definition\n * of the contract owner\n * \n * Copyright 2020 Spilsbury Holdings Ltd \n *\n * Licensed under the GNU Lesser General Public Licence, Version 3.0 (the \"License\");\n * you may not use this file except in compliance with the License.\n *\n * This program is distributed in the hope that it will be useful,\n * but WITHOUT ANY WARRANTY; without even the implied warranty of\n * MERCHANTABILITY or FITNESS FOR A PARTICULAR PURPOSE.  See the\n * GNU Lesser General Public License for more details.\n *\n * You should have received a copy of the GNU Lesser General Public License\n * along with this program.  If not, see <https://www.gnu.org/licenses/>. **/\n\ncontract ZkAssetOwnableBase is ZkAssetBase, Ownable {\n    using ProofUtils for uint24;\n    using SafeMath8 for uint8;\n\n    mapping(uint8 => uint256) public proofs;\n\n    constructor(\n        address _aceAddress,\n        address _linkedTokenAddress,\n        uint256 _scalingFactor,\n        bool _canAdjustSupply\n    ) public ZkAssetBase(\n        _aceAddress,\n        _linkedTokenAddress,\n        _scalingFactor,\n        _canAdjustSupply\n    ) {\n        // register the basic joinSplit as a valid proof\n        // 16 + 1, recall that 1 is the join-split validator because of 1 * 256**(0)\n        proofs[ace.latestEpoch()] = 17;\n    }\n\n    /**\n    * @dev Set which proofs this asset is able to listen to and validate\n    * @param _epoch  epoch number to which the proof belongs\n    * @param _proofs proofs for which the asset will listen to\n    */\n    function setProofs(\n        uint8 _epoch,\n        uint256 _proofs\n    ) external onlyOwner {\n        proofs[_epoch] = _proofs;\n    }\n\n    /**\n    * @dev Executes a basic unilateral, confidential transfer of AZTEC notes\n    * Will submit _proofData to the validateProof() function of the Cryptography Engine.\n    *\n    * Upon successfull verification, it will update note registry state - creating output notes and\n    * destroying input notes.\n    *\n    * @param _proofId - id of proof to be validated. Needs to be a balanced proof.\n    * @param _proofData - bytes variable outputted from a proof verification contract, representing\n    * transfer instructions for the ACE\n    * @param _signatures - array of the ECDSA signatures over all inputNotes\n    */\n    function confidentialTransfer(uint24 _proofId, bytes memory _proofData, bytes memory _signatures) public {\n        bool result = supportsProof(_proofId);\n        require(result == true, \"expected proof to be supported\");\n        super.confidentialTransfer(_proofId, _proofData, _signatures);\n    }\n\n    /**\n    * @dev Executes a value transfer mediated by smart contracts. The method is supplied with\n    * transfer instructions represented by a bytes _proofOutput argument that was outputted\n    * from a proof verification contract.\n    *\n    * @param _proofId - uint24 variable which acts as a unique identifier for the proof which\n    * _proofOutput is being submitted. _proof contains three concatenated uint8 variables:\n    * 1) epoch number 2) category number 3) ID number for the proof\n    * @param _proofOutput - output of a zero-knowledge proof validation contract. Represents\n    * transfer instructions for the ACE\n    */\n    function confidentialTransferFrom(uint24 _proofId, bytes memory _proofOutput) public {\n        bool result = supportsProof(_proofId);\n        require(result == true, \"expected proof to be supported\");\n        super.confidentialTransferFrom(_proofId, _proofOutput);\n    }\n\n    /**\n    * @dev Return whether the proof is supported or not by this asset. Note that we have\n    *     to subtract 1 from the proof id because the original representation is uint8,\n    *     but here that id is considered to be an exponent\n    *\n    * @param _proof - unique identifier specifying the proof to be checked as to whether it is\n    *                 supported by the asset\n    * @return boolean defining whether the asset supports the proof specified by _proof input\n    */\n    function supportsProof(uint24 _proof) public view returns (bool) {\n        (uint8 epoch, uint8 category, uint8 id) = _proof.getProofComponents();\n        require(category == uint8(ProofCategory.BALANCED), \"this asset only supports balanced proofs\");\n        uint8 bit = uint8(proofs[epoch] >> (id.sub(1)) & 1);\n        return bit == 1;\n    }\n\n    /**\n    * @dev Upgrade the note registry of this asset, by pointing it to a new factory\n    *\n    * @param _factoryId - the ID of the factory which will supply the upgraded behaviour contracts\n    */\n    function upgradeRegistryVersion(uint24 _factoryId) public onlyOwner {\n        ace.upgradeNoteRegistry(_factoryId);\n    }\n}\n",
  "sourcePath": "@aztec/protocol/contracts/ERC1724/base/ZkAssetOwnableBase.sol",
  "compiler": {
    "name": "solc",
    "version": "0.5.16+commit.9c3226ce.Emscripten.clang"
  },
  "schemaVersion": "3.2.0",
  "updatedAt": "2020-07-07T03:22:24.726Z",
  "devdoc": {
    "author": "AZTEC",
    "details": "A contract which inherits from ZkAsset and includes the definition of the contract owner  * Copyright 2020 Spilsbury Holdings Ltd  * Licensed under the GNU Lesser General Public Licence, Version 3.0 (the \"License\"); you may not use this file except in compliance with the License. * This program is distributed in the hope that it will be useful, but WITHOUT ANY WARRANTY; without even the implied warranty of MERCHANTABILITY or FITNESS FOR A PARTICULAR PURPOSE.  See the GNU Lesser General Public License for more details. * You should have received a copy of the GNU Lesser General Public License along with this program.  If not, see <https://www.gnu.org/licenses/>. *",
    "methods": {
      "approveProof(uint24,bytes,address,bool,bytes)": {
        "details": "Note owner can approve a third party address, such as a smart contract, to spend a proof on their behalf. This allows a batch approval of notes to be performed, rather than individually for each note via confidentialApprove().",
        "params": {
          "_proofId": "- id of proof to be approved. Needs to be a balanced proof.",
          "_proofOutputs": "- data of proof",
          "_proofSignature": "- ECDSA signature over the proof, approving it to be spent",
          "_spender": "- address being approved to spend the notes"
        }
      },
      "confidentialApprove(bytes32,address,bool,bytes)": {
        "details": "Note owner approving a third party, another address, to spend the note on owner's behalf. This is necessary to allow the confidentialTransferFrom() method to be called",
        "params": {
          "_noteHash": "- keccak256 hash of the note coordinates (gamma and sigma)",
          "_signature": "- ECDSA signature from the note owner that validates the confidentialApprove() instruction",
          "_spender": "- address being approved to spend the note",
          "_spenderApproval": "- defines whether the _spender address is being approved to spend the note, or if permission is being revoked. True if approved, false if not approved"
        }
      },
      "confidentialTransfer(bytes,bytes)": {
        "details": "Executes a basic unilateral, confidential transfer of AZTEC notes Will submit _proofData to the validateProof() function of the Cryptography Engine.    * Upon successfull verification, it will update note registry state - creating output notes and destroying input notes.",
        "params": {
          "_proofData": "- bytes variable outputted from a proof verification contract, representing transfer instructions for the IACE",
          "_signatures": "- array of the ECDSA signatures over all inputNotes"
        }
      },
      "confidentialTransfer(uint24,bytes,bytes)": {
        "details": "Executes a basic unilateral, confidential transfer of AZTEC notes Will submit _proofData to the validateProof() function of the Cryptography Engine.    * Upon successfull verification, it will update note registry state - creating output notes and destroying input notes.",
        "params": {
          "_proofData": "- bytes variable outputted from a proof verification contract, representing transfer instructions for the ACE",
          "_proofId": "- id of proof to be validated. Needs to be a balanced proof.",
          "_signatures": "- array of the ECDSA signatures over all inputNotes"
        }
      },
      "confidentialTransferFrom(uint24,bytes)": {
        "details": "Executes a value transfer mediated by smart contracts. The method is supplied with transfer instructions represented by a bytes _proofOutput argument that was outputted from a proof verification contract.",
        "params": {
          "_proofId": "- uint24 variable which acts as a unique identifier for the proof which _proofOutput is being submitted. _proof contains three concatenated uint8 variables: 1) epoch number 2) category number 3) ID number for the proof",
          "_proofOutput": "- output of a zero-knowledge proof validation contract. Represents transfer instructions for the ACE"
        }
      },
      "isOwner()": {
        "details": "Returns true if the caller is the current owner."
      },
      "owner()": {
        "details": "Returns the address of the current owner."
      },
      "renounceOwnership()": {
        "details": "Leaves the contract without owner. It will not be possible to call `onlyOwner` functions anymore. Can only be called by the current owner.     * NOTE: Renouncing ownership will leave the contract without an owner, thereby removing any functionality that is only available to the owner."
      },
      "setProofs(uint8,uint256)": {
        "details": "Set which proofs this asset is able to listen to and validate",
        "params": {
          "_epoch": "epoch number to which the proof belongs",
          "_proofs": "proofs for which the asset will listen to"
        }
      },
      "supportsProof(uint24)": {
        "details": "Return whether the proof is supported or not by this asset. Note that we have    to subtract 1 from the proof id because the original representation is uint8,    but here that id is considered to be an exponent",
        "params": {
          "_proof": "- unique identifier specifying the proof to be checked as to whether it is                supported by the asset"
        },
        "return": "boolean defining whether the asset supports the proof specified by _proof input"
      },
      "transferOwnership(address)": {
        "details": "Transfers ownership of the contract to a new account (`newOwner`). Can only be called by the current owner."
      },
      "updateNoteMetaData(bytes32,bytes)": {
        "details": "Update the metadata of a note that already exists in storage.",
        "params": {
          "metaData": "- metadata to update the note with",
          "noteHash": "- hash of a note, used as a unique identifier for the note"
        }
      },
      "upgradeRegistryVersion(uint24)": {
        "details": "Upgrade the note registry of this asset, by pointing it to a new factory",
        "params": {
          "_factoryId": "- the ID of the factory which will supply the upgraded behaviour contracts"
        }
      }
    },
    "title": "ZkAssetOwnableBase"
  },
  "userdoc": {
    "methods": {}
  }
}