{
  "contractName": "ZkAssetBase",
  "abi": [
    {
      "inputs": [
        {
          "internalType": "address",
          "name": "_aceAddress",
          "type": "address"
        },
        {
          "internalType": "address",
          "name": "_linkedTokenAddress",
          "type": "address"
        },
        {
          "internalType": "uint256",
          "name": "_scalingFactor",
          "type": "uint256"
        },
        {
          "internalType": "bool",
          "name": "_canAdjustSupply",
          "type": "bool"
        }
      ],
      "payable": false,
      "stateMutability": "nonpayable",
      "type": "constructor"
    },
    {
      "anonymous": false,
      "inputs": [
        {
          "indexed": true,
          "internalType": "address",
          "name": "owner",
          "type": "address"
        },
        {
          "indexed": false,
          "internalType": "uint256",
          "name": "value",
          "type": "uint256"
        }
      ],
      "name": "ConvertTokens",
      "type": "event"
    },
    {
      "anonymous": false,
      "inputs": [
        {
          "indexed": true,
          "internalType": "address",
          "name": "owner",
          "type": "address"
        },
        {
          "indexed": true,
          "internalType": "bytes32",
          "name": "noteHash",
          "type": "bytes32"
        },
        {
          "indexed": false,
          "internalType": "bytes",
          "name": "metadata",
          "type": "bytes"
        }
      ],
      "name": "CreateNote",
      "type": "event"
    },
    {
      "anonymous": false,
      "inputs": [
        {
          "indexed": false,
          "internalType": "uint256",
          "name": "noteRegistryId",
          "type": "uint256"
        }
      ],
      "name": "CreateNoteRegistry",
      "type": "event"
    },
    {
      "anonymous": false,
      "inputs": [
        {
          "indexed": true,
          "internalType": "address",
          "name": "aceAddress",
          "type": "address"
        },
        {
          "indexed": true,
          "internalType": "address",
          "name": "linkedTokenAddress",
          "type": "address"
        },
        {
          "indexed": false,
          "internalType": "uint256",
          "name": "scalingFactor",
          "type": "uint256"
        },
        {
          "indexed": true,
          "internalType": "bool",
          "name": "_canAdjustSupply",
          "type": "bool"
        },
        {
          "indexed": false,
          "internalType": "bool",
          "name": "_canConvert",
          "type": "bool"
        }
      ],
      "name": "CreateZkAsset",
      "type": "event"
    },
    {
      "anonymous": false,
      "inputs": [
        {
          "indexed": true,
          "internalType": "address",
          "name": "owner",
          "type": "address"
        },
        {
          "indexed": true,
          "internalType": "bytes32",
          "name": "noteHash",
          "type": "bytes32"
        }
      ],
      "name": "DestroyNote",
      "type": "event"
    },
    {
      "anonymous": false,
      "inputs": [
        {
          "indexed": true,
          "internalType": "address",
          "name": "owner",
          "type": "address"
        },
        {
          "indexed": false,
          "internalType": "uint256",
          "name": "value",
          "type": "uint256"
        }
      ],
      "name": "RedeemTokens",
      "type": "event"
    },
    {
      "anonymous": false,
      "inputs": [
        {
          "indexed": true,
          "internalType": "address",
          "name": "owner",
          "type": "address"
        },
        {
          "indexed": true,
          "internalType": "bytes32",
          "name": "noteHash",
          "type": "bytes32"
        },
        {
          "indexed": false,
          "internalType": "bytes",
          "name": "metadata",
          "type": "bytes"
        }
      ],
      "name": "UpdateNoteMetaData",
      "type": "event"
    },
    {
      "constant": true,
      "inputs": [],
      "name": "BURN_PROOF",
      "outputs": [
        {
          "internalType": "uint24",
          "name": "",
          "type": "uint24"
        }
      ],
      "payable": false,
      "stateMutability": "view",
      "type": "function"
    },
    {
      "constant": true,
      "inputs": [],
      "name": "DIVIDEND_PROOF",
      "outputs": [
        {
          "internalType": "uint24",
          "name": "",
          "type": "uint24"
        }
      ],
      "payable": false,
      "stateMutability": "view",
      "type": "function"
    },
    {
      "constant": true,
      "inputs": [],
      "name": "EIP712_DOMAIN_HASH",
      "outputs": [
        {
          "internalType": "bytes32",
          "name": "",
          "type": "bytes32"
        }
      ],
      "payable": false,
      "stateMutability": "view",
      "type": "function"
    },
    {
      "constant": true,
      "inputs": [],
      "name": "JOIN_SPLIT_PROOF",
      "outputs": [
        {
          "internalType": "uint24",
          "name": "",
          "type": "uint24"
        }
      ],
      "payable": false,
      "stateMutability": "view",
      "type": "function"
    },
    {
      "constant": true,
      "inputs": [],
      "name": "MINT_PROOF",
      "outputs": [
        {
          "internalType": "uint24",
          "name": "",
          "type": "uint24"
        }
      ],
      "payable": false,
      "stateMutability": "view",
      "type": "function"
    },
    {
      "constant": true,
      "inputs": [],
      "name": "PRIVATE_RANGE_PROOF",
      "outputs": [
        {
          "internalType": "uint24",
          "name": "",
          "type": "uint24"
        }
      ],
      "payable": false,
      "stateMutability": "view",
      "type": "function"
    },
    {
      "constant": true,
      "inputs": [],
      "name": "PUBLIC_RANGE_PROOF",
      "outputs": [
        {
          "internalType": "uint24",
          "name": "",
          "type": "uint24"
        }
      ],
      "payable": false,
      "stateMutability": "view",
      "type": "function"
    },
    {
      "constant": true,
      "inputs": [],
      "name": "ace",
      "outputs": [
        {
          "internalType": "contract IACE",
          "name": "",
          "type": "address"
        }
      ],
      "payable": false,
      "stateMutability": "view",
      "type": "function"
    },
    {
      "constant": true,
      "inputs": [
        {
          "internalType": "bytes32",
          "name": "",
          "type": "bytes32"
        },
        {
          "internalType": "address",
          "name": "",
          "type": "address"
        }
      ],
      "name": "confidentialApproved",
      "outputs": [
        {
          "internalType": "bool",
          "name": "",
          "type": "bool"
        }
      ],
      "payable": false,
      "stateMutability": "view",
      "type": "function"
    },
    {
      "constant": true,
      "inputs": [],
      "name": "linkedToken",
      "outputs": [
        {
          "internalType": "contract IERC20Mintable",
          "name": "",
          "type": "address"
        }
      ],
      "payable": false,
      "stateMutability": "view",
      "type": "function"
    },
    {
      "constant": true,
      "inputs": [
        {
          "internalType": "bytes32",
          "name": "",
          "type": "bytes32"
        }
      ],
      "name": "metaDataTimeLog",
      "outputs": [
        {
          "internalType": "uint256",
          "name": "",
          "type": "uint256"
        }
      ],
      "payable": false,
      "stateMutability": "view",
      "type": "function"
    },
    {
      "constant": true,
      "inputs": [
        {
          "internalType": "bytes32",
          "name": "",
          "type": "bytes32"
        }
      ],
      "name": "noteAccess",
      "outputs": [
        {
          "internalType": "uint256",
          "name": "",
          "type": "uint256"
        }
      ],
      "payable": false,
      "stateMutability": "view",
      "type": "function"
    },
    {
      "constant": true,
      "inputs": [
        {
          "internalType": "bytes32",
          "name": "",
          "type": "bytes32"
        }
      ],
      "name": "signatureLog",
      "outputs": [
        {
          "internalType": "bool",
          "name": "",
          "type": "bool"
        }
      ],
      "payable": false,
      "stateMutability": "view",
      "type": "function"
    },
    {
      "constant": false,
      "inputs": [
        {
          "internalType": "uint24",
          "name": "_proofId",
          "type": "uint24"
        },
        {
          "internalType": "bytes",
          "name": "_proofData",
          "type": "bytes"
        },
        {
          "internalType": "bytes",
          "name": "_signatures",
          "type": "bytes"
        }
      ],
      "name": "confidentialTransfer",
      "outputs": [],
      "payable": false,
      "stateMutability": "nonpayable",
      "type": "function"
    },
    {
      "constant": false,
      "inputs": [
        {
          "internalType": "bytes",
          "name": "_proofData",
          "type": "bytes"
        },
        {
          "internalType": "bytes",
          "name": "_signatures",
          "type": "bytes"
        }
      ],
      "name": "confidentialTransfer",
      "outputs": [],
      "payable": false,
      "stateMutability": "nonpayable",
      "type": "function"
    },
    {
      "constant": false,
      "inputs": [
        {
          "internalType": "bytes32",
          "name": "_noteHash",
          "type": "bytes32"
        },
        {
          "internalType": "address",
          "name": "_spender",
          "type": "address"
        },
        {
          "internalType": "bool",
          "name": "_spenderApproval",
          "type": "bool"
        },
        {
          "internalType": "bytes",
          "name": "_signature",
          "type": "bytes"
        }
      ],
      "name": "confidentialApprove",
      "outputs": [],
      "payable": false,
      "stateMutability": "nonpayable",
      "type": "function"
    },
    {
      "constant": false,
      "inputs": [
        {
          "internalType": "uint24",
          "name": "_proofId",
          "type": "uint24"
        },
        {
          "internalType": "bytes",
          "name": "_proofOutputs",
          "type": "bytes"
        },
        {
          "internalType": "address",
          "name": "_spender",
          "type": "address"
        },
        {
          "internalType": "bool",
          "name": "_approval",
          "type": "bool"
        },
        {
          "internalType": "bytes",
          "name": "_proofSignature",
          "type": "bytes"
        }
      ],
      "name": "approveProof",
      "outputs": [],
      "payable": false,
      "stateMutability": "nonpayable",
      "type": "function"
    },
    {
      "constant": false,
      "inputs": [
        {
          "internalType": "uint24",
          "name": "_proof",
          "type": "uint24"
        },
        {
          "internalType": "bytes",
          "name": "_proofOutput",
          "type": "bytes"
        }
      ],
      "name": "confidentialTransferFrom",
      "outputs": [],
      "payable": false,
      "stateMutability": "nonpayable",
      "type": "function"
    },
    {
      "constant": false,
      "inputs": [
        {
          "internalType": "bytes32",
          "name": "noteHash",
          "type": "bytes32"
        },
        {
          "internalType": "bytes",
          "name": "metaData",
          "type": "bytes"
        }
      ],
      "name": "updateNoteMetaData",
      "outputs": [],
      "payable": false,
      "stateMutability": "nonpayable",
      "type": "function"
    }
  ],
  "bytecode": "0x60806040523480156200001157600080fd5b50604051620035bd380380620035bd833981810160405260808110156200003757600080fd5b810190808051906020019092919080519060200190929190805190602001909291908051906020019092919050505060405160200180807f454950373132446f6d61696e2800000000000000000000000000000000000000815250600d01807f737472696e67206e616d652c0000000000000000000000000000000000000000815250600c01807f737472696e672076657273696f6e2c0000000000000000000000000000000000815250600f01807f6164647265737320766572696679696e67436f6e747261637400000000000000815250601901807f29000000000000000000000000000000000000000000000000000000000000008152506001019050604051602081830303815290604052805190602001206040518060400160405280601981526020017f415a5445435f43525950544f4752415048595f454e47494e4500000000000000815250805190602001206040518060400160405280600181526020017f31000000000000000000000000000000000000000000000000000000000000008152508051906020012030604051602001808581526020018481526020018381526020018273ffffffffffffffffffffffffffffffffffffffff1673ffffffffffffffffffffffffffffffffffffffff1681526020019450505050506040516020818303038152906040528051906020012060008190555060008073ffffffffffffffffffffffffffffffffffffffff168473ffffffffffffffffffffffffffffffffffffffff16146200027357600162000276565b60005b905060405160200180807f454950373132446f6d61696e2800000000000000000000000000000000000000815250600d01807f737472696e67206e616d652c0000000000000000000000000000000000000000815250600c01807f737472696e672076657273696f6e2c0000000000000000000000000000000000815250600f01807f6164647265737320766572696679696e67436f6e747261637400000000000000815250601901807f29000000000000000000000000000000000000000000000000000000000000008152506001019050604051602081830303815290604052805190602001206040518060400160405280600881526020017f5a4b5f4153534554000000000000000000000000000000000000000000000000815250805190602001206040518060400160405280600181526020017f3100000000000000000000000000000000000000000000000000000000000000815250805190602001203073ffffffffffffffffffffffffffffffffffffffff1660001b604051602001808581526020018481526020018381526020018281526020019450505050506040516020818303038152906040528051906020012060008190555084600160006101000a81548173ffffffffffffffffffffffffffffffffffffffff021916908373ffffffffffffffffffffffffffffffffffffffff16021790555083600260006101000a81548173ffffffffffffffffffffffffffffffffffffffff021916908373ffffffffffffffffffffffffffffffffffffffff160217905550600160009054906101000a900473ffffffffffffffffffffffffffffffffffffffff1673ffffffffffffffffffffffffffffffffffffffff1663a5468ca2858585856040518563ffffffff1660e01b8152600401808573ffffffffffffffffffffffffffffffffffffffff1673ffffffffffffffffffffffffffffffffffffffff1681526020018481526020018315151515815260200182151515158152602001945050505050600060405180830381600087803b1580156200057857600080fd5b505af11580156200058d573d6000803e3d6000fd5b505050508115158473ffffffffffffffffffffffffffffffffffffffff168673ffffffffffffffffffffffffffffffffffffffff167fca576e79bcb5c4a0045d9d596a80c733c3997559f688f69e5c03bd737d885b86868560405180838152602001821515151581526020019250505060405180910390a45050505050612fa3806200061a6000396000f3fe608060405234801561001057600080fd5b50600436106101205760003560e01c806384a26fc8116100ad578063a5c8fa8411610071578063a5c8fa841461088f578063cdfea90e146108d9578063df924625146109a3578063e306f779146109cb578063ea12489f146109e957610120565b806384a26fc8146106695780638500e1f8146106ab5780638e526d9b146106d357806396988498146106fb578063985cd3b71461084d57610120565b80630a60305a116100f45780630a60305a1461031c5780630f4a80fe146104255780631f2ac16a1461048b5780632e3b9a3b1461057c57806349518b281461064157610120565b80625bf7321461012557806302d1fdc91461014d57806308ae900a146102ae57806309146c7c146102d6575b600080fd5b61012d610a33565b604051808262ffffff1662ffffff16815260200191505060405180910390f35b6102ac6004803603606081101561016357600080fd5b81019080803562ffffff1690602001909291908035906020019064010000000081111561018f57600080fd5b8201836020820111156101a157600080fd5b803590602001918460018302840111640100000000831117156101c357600080fd5b91908080601f016020809104026020016040519081016040528093929190818152602001838380828437600081840152601f19601f8201169050808301925050505050505091929192908035906020019064010000000081111561022657600080fd5b82018360208201111561023857600080fd5b8035906020019184600183028401116401000000008311171561025a57600080fd5b91908080601f016020809104026020016040519081016040528093929190818152602001838380828437600081840152601f19601f820116905080830192505050505050509192919290505050610a3a565b005b6102b6610d05565b604051808262ffffff1662ffffff16815260200191505060405180910390f35b610302600480360360208110156102ec57600080fd5b8101908080359060200190929190505050610d0c565b604051808215151515815260200191505060405180910390f35b610423600480360360a081101561033257600080fd5b81019080803562ffffff1690602001909291908035906020019064010000000081111561035e57600080fd5b82018360208201111561037057600080fd5b8035906020019184600183028401116401000000008311171561039257600080fd5b9091929391929390803573ffffffffffffffffffffffffffffffffffffffff169060200190929190803515159060200190929190803590602001906401000000008111156103df57600080fd5b8201836020820111156103f157600080fd5b8035906020019184600183028401116401000000008311171561041357600080fd5b9091929391929390505050610d2c565b005b6104716004803603604081101561043b57600080fd5b8101908080359060200190929190803573ffffffffffffffffffffffffffffffffffffffff169060200190929190505050611515565b604051808215151515815260200191505060405180910390f35b61057a600480360360808110156104a157600080fd5b8101908080359060200190929190803573ffffffffffffffffffffffffffffffffffffffff169060200190929190803515159060200190929190803590602001906401000000008111156104f457600080fd5b82018360208201111561050657600080fd5b8035906020019184600183028401116401000000008311171561052857600080fd5b91908080601f016020809104026020016040519081016040528093929190818152602001838380828437600081840152601f19601f820116905080830192505050505050509192919290505050611544565b005b61063f6004803603604081101561059257600080fd5b8101908080359060200190929190803590602001906401000000008111156105b957600080fd5b8201836020820111156105cb57600080fd5b803590602001918460018302840111640100000000831117156105ed57600080fd5b91908080601f016020809104026020016040519081016040528093929190818152602001838380828437600081840152601f19601f8201169050808301925050505050505091929192905050506119c3565b005b610649611cc0565b604051808262ffffff1662ffffff16815260200191505060405180910390f35b6106956004803603602081101561067f57600080fd5b8101908080359060200190929190505050611cc7565b6040518082815260200191505060405180910390f35b6106b3611cdf565b604051808262ffffff1662ffffff16815260200191505060405180910390f35b6106db611ce6565b604051808262ffffff1662ffffff16815260200191505060405180910390f35b61084b6004803603604081101561071157600080fd5b810190808035906020019064010000000081111561072e57600080fd5b82018360208201111561074057600080fd5b8035906020019184600183028401116401000000008311171561076257600080fd5b91908080601f016020809104026020016040519081016040528093929190818152602001838380828437600081840152601f19601f820116905080830192505050505050509192919290803590602001906401000000008111156107c557600080fd5b8201836020820111156107d757600080fd5b803590602001918460018302840111640100000000831117156107f957600080fd5b91908080601f016020809104026020016040519081016040528093929190818152602001838380828437600081840152601f19601f820116905080830192505050505050509192919290505050611ced565b005b6108796004803603602081101561086357600080fd5b8101908080359060200190929190505050611cff565b6040518082815260200191505060405180910390f35b610897611d17565b604051808273ffffffffffffffffffffffffffffffffffffffff1673ffffffffffffffffffffffffffffffffffffffff16815260200191505060405180910390f35b6109a1600480360360408110156108ef57600080fd5b81019080803562ffffff1690602001909291908035906020019064010000000081111561091b57600080fd5b82018360208201111561092d57600080fd5b8035906020019184600183028401116401000000008311171561094f57600080fd5b91908080601f016020809104026020016040519081016040528093929190818152602001838380828437600081840152601f19601f820116905080830192505050505050509192919290505050611d3d565b005b6109ab6120d4565b604051808262ffffff1662ffffff16815260200191505060405180910390f35b6109d36120db565b6040518082815260200191505060405180910390f35b6109f16120e1565b604051808273ffffffffffffffffffffffffffffffffffffffff1673ffffffffffffffffffffffffffffffffffffffff16815260200191505060405180910390f35b6201010181565b6000610a4a8462ffffff16612107565b5091505060016004811115610a5b57fe5b60ff168160ff1614610ad5576040517f08c379a000000000000000000000000000000000000000000000000000000000815260040180806020018281038252601c8152602001807f74686973206973206e6f7420612062616c616e6365642070726f6f660000000081525060200191505060405180910390fd5b6060600160009054906101000a900473ffffffffffffffffffffffffffffffffffffffff1673ffffffffffffffffffffffffffffffffffffffff1663a2866ea38633876040518463ffffffff1660e01b8152600401808462ffffff1662ffffff1681526020018373ffffffffffffffffffffffffffffffffffffffff1673ffffffffffffffffffffffffffffffffffffffff16815260200180602001828103825283818151815260200191508051906020019080838360005b83811015610ba9578082015181840152602081019050610b8e565b50505050905090810190601f168015610bd65780820380516001836020036101000a031916815260200191505b50945050505050600060405180830381600087803b158015610bf757600080fd5b505af1158015610c0b573d6000803e3d6000fd5b505050506040513d6000823e3d601f19601f820116820180604052506020811015610c3557600080fd5b8101908080516040519392919084640100000000821115610c5557600080fd5b83820191506020820185811115610c6b57600080fd5b8251866001820283011164010000000082111715610c8857600080fd5b8083526020830192505050908051906020019080838360005b83811015610cbc578082015181840152602081019050610ca1565b50505050905090810190601f168015610ce95780820380516001836020036101000a031916815260200191505b506040525050509050610cfe85828587612137565b5050505050565b6201040381565b60066020528060005260406000206000915054906101000a900460ff1681565b6000828260405180838380828437808301925050509250505060405180910390209050600115156006600083815260200190815260200160002060009054906101000a900460ff1615151415610dea576040517f08c379a000000000000000000000000000000000000000000000000000000000815260040180806020018281038252601f8152602001807f7369676e61747572652068617320616c7265616479206265656e20757365640081525060200191505060405180910390fd5b60016006600083815260200190815260200160002060006101000a81548160ff0219169083151502179055506000604051806080016040528060428152602001612e4a604291396040516020018082805190602001908083835b60208310610e675780518252602082019150602081019050602083039250610e44565b6001836020036101000a0380198251168184511680821785525050505050509050019150506040516020818303038152906040528051906020012060405180807f5a4b5f41535345540000000000000000000000000000000000000000000000008152506008019050604051809103902060405180807f31000000000000000000000000000000000000000000000000000000000000008152506001019050604051809103902030604051602001808581526020018481526020018381526020018273ffffffffffffffffffffffffffffffffffffffff1673ffffffffffffffffffffffffffffffffffffffff16815260200194505050505060405160208183030381529060405280519060200120905060008160405160200180807f50726f6f665369676e6174757265280000000000000000000000000000000000815250600f01807f627974657333322070726f6f66486173682c0000000000000000000000000000815250601201807f61646472657373207370656e6465722c00000000000000000000000000000000815250601001807f626f6f6c20617070726f76616c00000000000000000000000000000000000000815250600d01807f29000000000000000000000000000000000000000000000000000000000000008152506001019050604051602081830303815290604052805190602001208a8a60405180838380828437808301925050509250505060405180910390208989604051602001808581526020018481526020018373ffffffffffffffffffffffffffffffffffffffff1673ffffffffffffffffffffffffffffffffffffffff168152602001821515151581526020019450505050506040516020818303038152906040528051906020012060405160200180807f19010000000000000000000000000000000000000000000000000000000000008152506002018381526020018281526020019250505060405160208183030381529060405280519060200120905060006111958287878080601f016020809104026020016040519081016040528093929190818152602001838380828437600081840152601f19601f82011690508083019250505050505050612599565b905060008090505b6111ea8b8b8080601f016020809104026020016040519081016040528093929190818152602001838380828437600081840152601f19601f82011690508083019250505050505050612783565b81101561150757606061124a828d8d8080601f016020809104026020016040519081016040528093929190818152602001838380828437600081840152601f19601f8201169050808301925050505050505061279190919063ffffffff16565b9050606061125782612809565b505050905060008090505b61126b82612783565b81101561148a57600061128f61128a838561279190919063ffffffff16565b61284c565b50915050600080600160009054906101000a900473ffffffffffffffffffffffffffffffffffffffff1673ffffffffffffffffffffffffffffffffffffffff1663fedee26630856040518363ffffffff1660e01b8152600401808373ffffffffffffffffffffffffffffffffffffffff1673ffffffffffffffffffffffffffffffffffffffff1681526020018281526020019250505060806040518083038186803b15801561133d57600080fd5b505afa158015611351573d6000803e3d6000fd5b505050506040513d608081101561136757600080fd5b810190808051906020019092919080519060200190929190805190602001909291908051906020019092919050505093505050915060018260ff16146113f8576040517f08c379a0000000000000000000000000000000000000000000000000000000008152600401808060200182810382526022815260200180612dda6022913960400191505060405180910390fd5b8773ffffffffffffffffffffffffffffffffffffffff168173ffffffffffffffffffffffffffffffffffffffff161461147c576040517f08c379a0000000000000000000000000000000000000000000000000000000008152600401808060200182810382526026815260200180612e246026913960400191505060405180910390fd5b505050600181019050611262565b5089600360008480519060200120815260200190815260200160002060008d73ffffffffffffffffffffffffffffffffffffffff1673ffffffffffffffffffffffffffffffffffffffff16815260200190815260200160002060006101000a81548160ff021916908315150217905550505060018101905061119d565b505050505050505050505050565b60036020528160005260406000206020528060005260406000206000915091509054906101000a900460ff1681565b6000600160009054906101000a900473ffffffffffffffffffffffffffffffffffffffff1673ffffffffffffffffffffffffffffffffffffffff1663fedee26630876040518363ffffffff1660e01b8152600401808373ffffffffffffffffffffffffffffffffffffffff1673ffffffffffffffffffffffffffffffffffffffff1681526020018281526020019250505060806040518083038186803b1580156115ed57600080fd5b505afa158015611601573d6000803e3d6000fd5b505050506040513d608081101561161757600080fd5b8101908080519060200190929190805190602001909291908051906020019092919080519060200190929190505050505050905060018160ff16146116a7576040517f08c379a0000000000000000000000000000000000000000000000000000000008152600401808060200182810382526022815260200180612dda6022913960400191505060405180910390fd5b6000826040516020018082805190602001908083835b602083106116e057805182526020820191506020810190506020830392506116bd565b6001836020036101000a038019825116818451168082178552505050505050905001915050604051602081830303815290604052805190602001209050600115156006600083815260200190815260200160002060009054906101000a900460ff16151514156117b8576040517f08c379a000000000000000000000000000000000000000000000000000000000815260040180806020018281038252601f8152602001807f7369676e61747572652068617320616c7265616479206265656e20757365640081525060200191505060405180910390fd5b60008351146117ee5760016006600083815260200190815260200160002060006101000a81548160ff0219169083151502179055505b600060405160200180807f4e6f74655369676e617475726528000000000000000000000000000000000000815250600e01807f62797465733332206e6f7465486173682c000000000000000000000000000000815250601101807f61646472657373207370656e6465722c00000000000000000000000000000000815250601001807f626f6f6c207370656e646572417070726f76616c000000000000000000000000815250601401807f2900000000000000000000000000000000000000000000000000000000000000815250600101905060405160208183030381529060405280519060200120878787604051602001808581526020018481526020018373ffffffffffffffffffffffffffffffffffffffff1673ffffffffffffffffffffffffffffffffffffffff16815260200182151515158152602001945050505050604051602081830303815290604052805190602001209050611952818886612882565b846003600089815260200190815260200160002060008873ffffffffffffffffffffffffffffffffffffffff1673ffffffffffffffffffffffffffffffffffffffff16815260200190815260200160002060006101000a81548160ff02191690831515021790555050505050505050565b600080600160009054906101000a900473ffffffffffffffffffffffffffffffffffffffff1673ffffffffffffffffffffffffffffffffffffffff1663fedee26630866040518363ffffffff1660e01b8152600401808373ffffffffffffffffffffffffffffffffffffffff1673ffffffffffffffffffffffffffffffffffffffff1681526020018281526020019250505060806040518083038186803b158015611a6d57600080fd5b505afa158015611a81573d6000803e3d6000fd5b505050506040513d6080811015611a9757600080fd5b810190808051906020019092919080519060200190929190805190602001909291908051906020019092919050505093505050915060003385604051602001808373ffffffffffffffffffffffffffffffffffffffff1673ffffffffffffffffffffffffffffffffffffffff1660601b81526014018281526020019250505060405160208183030381529060405280519060200120905060046000868152602001908152602001600020546005600083815260200190815260200160002054101580611b8e57503373ffffffffffffffffffffffffffffffffffffffff168273ffffffffffffffffffffffffffffffffffffffff16145b8015611b9d575060018360ff16145b611bf2576040517f08c379a0000000000000000000000000000000000000000000000000000000008152600401808060200182810382526032815260200180612e8c6032913960400191505060405180910390fd5b611bfc8486612a41565b611c0585612b09565b848273ffffffffffffffffffffffffffffffffffffffff167fda392cb8aa0843e7e474e7bacfae355313fc4202094b3e81d2a488b5c05207bf866040518080602001828103825283818151815260200191508051906020019080838360005b83811015611c7f578082015181840152602081019050611c64565b50505050905090810190601f168015611cac5780820380516001836020036101000a031916815260200191505b509250505060405180910390a35050505050565b6201040281565b60056020528060005260406000206000915090505481565b6201040181565b6201020181565b611cfb620101018383610a3a565b5050565b60046020528060005260406000206000915090505481565b600160009054906101000a900473ffffffffffffffffffffffffffffffffffffffff1681565b606080600080611d4c85612809565b9350935093509350600085805190602001209050600115156003600083815260200190815260200160002060003373ffffffffffffffffffffffffffffffffffffffff1673ffffffffffffffffffffffffffffffffffffffff16815260200190815260200160002060009054906101000a900460ff16151514611ece576000611dd486612783565b905060008090505b81811015611ecb576000611e01611dfc838a61279190919063ffffffff16565b61284c565b50915050600115156003600083815260200190815260200160002060003373ffffffffffffffffffffffffffffffffffffffff1673ffffffffffffffffffffffffffffffffffffffff16815260200190815260200160002060009054906101000a900460ff16151514611ebf576040517f08c379a0000000000000000000000000000000000000000000000000000000008152600401808060200182810382526031815260200180612f1c6031913960400191505060405180910390fd5b50600181019050611ddc565b50505b600160009054906101000a900473ffffffffffffffffffffffffffffffffffffffff1673ffffffffffffffffffffffffffffffffffffffff1663977796d28888336040518463ffffffff1660e01b8152600401808462ffffff1662ffffff168152602001806020018373ffffffffffffffffffffffffffffffffffffffff1673ffffffffffffffffffffffffffffffffffffffff168152602001828103825284818151815260200191508051906020019080838360005b83811015611fa0578082015181840152602081019050611f85565b50505050905090810190601f168015611fcd5780820380516001836020036101000a031916815260200191505b50945050505050600060405180830381600087803b158015611fee57600080fd5b505af1158015612002573d6000803e3d6000fd5b5050505061200f85612b24565b61201884612bb2565b6000821215612073578273ffffffffffffffffffffffffffffffffffffffff167ffed3b27b73d78d9d1f344bbbf25f7af35e0ac4d6cf8193604ce18082168e461a836000036040518082815260200191505060405180910390a25b60008213156120cb578273ffffffffffffffffffffffffffffffffffffffff167f60213c45c34d8b94e495fd5871fdea7a7511f659e884ea25a0c8843b7f98bfad836040518082815260200191505060405180910390a25b50505050505050565b6201030181565b60005481565b600260009054906101000a900473ffffffffffffffffffffffffffffffffffffffff1681565b600080600060ff8416905060ff610100850416915060ff6201000085041692508282829250925092509193909250565b60006040820151905060008090505b61214f85612783565b81101561259157606061216b828761279190919063ffffffff16565b9050600160009054906101000a900473ffffffffffffffffffffffffffffffffffffffff1673ffffffffffffffffffffffffffffffffffffffff1663977796d28883306040518463ffffffff1660e01b8152600401808462ffffff1662ffffff168152602001806020018373ffffffffffffffffffffffffffffffffffffffff1673ffffffffffffffffffffffffffffffffffffffff168152602001828103825284818151815260200191508051906020019080838360005b8381101561223f578082015181840152602081019050612224565b50505050905090810190601f16801561226c5780820380516001836020036101000a031916815260200191505b50945050505050600060405180830381600087803b15801561228d57600080fd5b505af11580156122a1573d6000803e3d6000fd5b505050506060806000806122b485612809565b935093509350935060006122c785612783565b11156124bc5760008090505b6122dc85612783565b8110156124ba5760606122ef8b83612cc7565b9050600061230e612309848961279190919063ffffffff16565b61284c565b50915050600060405160200180807f4a6f696e53706c69745369676e61747572652800000000000000000000000000815250601301807f75696e7432342070726f6f662c00000000000000000000000000000000000000815250600d01807f62797465733332206e6f7465486173682c000000000000000000000000000000815250601101807f75696e74323536206368616c6c656e67652c0000000000000000000000000000815250601201807f616464726573732073656e646572000000000000000000000000000000000000815250600e01807f29000000000000000000000000000000000000000000000000000000000000008152506001019050604051602081830303815290604052805190602001208f838d33604051602001808681526020018562ffffff1662ffffff1681526020018481526020018381526020018273ffffffffffffffffffffffffffffffffffffffff1673ffffffffffffffffffffffffffffffffffffffff168152602001955050505050506040516020818303038152906040528051906020012090506124ac818385612882565b5050506001810190506122d3565b505b6124c584612b24565b6124ce83612bb2565b6000811215612529578173ffffffffffffffffffffffffffffffffffffffff167ffed3b27b73d78d9d1f344bbbf25f7af35e0ac4d6cf8193604ce18082168e461a826000036040518082815260200191505060405180910390a25b6000811315612581578173ffffffffffffffffffffffffffffffffffffffff167f60213c45c34d8b94e495fd5871fdea7a7511f659e884ea25a0c8843b7f98bfad826040518082815260200191505060405180910390a25b5050505050600181019050612146565b505050505050565b6000808251848452606084015160408501518160f81c9150604086015160608701526020860151604087015281602087015260208660808860015afa601c8314601b84141760418514167f7fffffffffffffffffffffffffffffff5d576e7357a4501ddfe92f46681b20a0831016169350855187146000811461261b57612620565b865195505b508286525050508080156126615750600073ffffffffffffffffffffffffffffffffffffffff168273ffffffffffffffffffffffffffffffffffffffff1614155b61277c57600073ffffffffffffffffffffffffffffffffffffffff168273ffffffffffffffffffffffffffffffffffffffff161415612708576040517f08c379a000000000000000000000000000000000000000000000000000000000815260040180806020018281038252601a8152602001807f7369676e657220616464726573732063616e6e6f74206265203000000000000081525060200191505060405180910390fd5b8061277b576040517f08c379a00000000000000000000000000000000000000000000000000000000081526004018080602001828103825260198152602001807f7369676e6174757265207265636f76657279206661696c65640000000000000081525060200191505060405180910390fd5b5b5092915050565b600060208201519050919050565b60606000602084015183109050836020840260408601015101915080612802576040517f08c379a0000000000000000000000000000000000000000000000000000000008152600401808060200182810382526022815260200180612f4d6022913960400191505060405180910390fd5b5092915050565b60608060008060208501518501935060408501518501925073ffffffffffffffffffffffffffffffffffffffff6060860151169150608085015190509193509193565b600080606073ffffffffffffffffffffffffffffffffffffffff6040850151169250606084015191506080840190509193909250565b6000600160009054906101000a900473ffffffffffffffffffffffffffffffffffffffff1673ffffffffffffffffffffffffffffffffffffffff1663fedee26630856040518363ffffffff1660e01b8152600401808373ffffffffffffffffffffffffffffffffffffffff1673ffffffffffffffffffffffffffffffffffffffff1681526020018281526020019250505060806040518083038186803b15801561292b57600080fd5b505afa15801561293f573d6000803e3d6000fd5b505050506040513d608081101561295557600080fd5b810190808051906020019092919080519060200190929190805190602001909291908051906020019092919050505093505050506000808351146129b257600061299e86612d36565b90506129aa8185612599565b9150506129b6565b3390505b8173ffffffffffffffffffffffffffffffffffffffff168173ffffffffffffffffffffffffffffffffffffffff1614612a3a576040517f08c379a0000000000000000000000000000000000000000000000000000000008152600401808060200182810382526028815260200180612dfc6028913960400191505060405180910390fd5b5050505050565b6000808351915060e1840151905060618260001c1115612b035760008090505b8160001c811015612b01576000612a788683612d61565b905060008186604051602001808373ffffffffffffffffffffffffffffffffffffffff1673ffffffffffffffffffffffffffffffffffffffff1660601b8152601401828152602001925050506040516020818303038152906040528051906020012090504260056000838152602001908152602001600020819055505050600181019050612a61565b505b50505050565b42600460008381526020019081526020016000208190555050565b60008090505b612b3382612783565b811015612bae57600080612b58612b53848661279190919063ffffffff16565b61284c565b5091509150808273ffffffffffffffffffffffffffffffffffffffff167f979308e20fbd28822c4526e85d528175e04e3ca0cf91c46301db34401a26a8c660405160405180910390a35050600181019050612b2a565b5050565b60008090505b612bc182612783565b811015612cc3576000806060612be8612be3858761279190919063ffffffff16565b61284c565b925092509250612bf782612b09565b612c018183612a41565b818373ffffffffffffffffffffffffffffffffffffffff167f5ffb3072e4515cf3bfae8b16be9dff6313cf7c313a0c26faafe6971d8c7585f1836040518080602001828103825283818151815260200191508051906020019080838360005b83811015612c7b578082015181840152602081019050612c60565b50505050905090810190601f168015612ca85780820380516001836020036101000a031916815260200191505b509250505060405180910390a3505050600181019050612bb8565b5050565b60606000806000604180860260208801015193508086026040880101519250808602604188010151915050828282604051602001808481526020018381526020018260ff1660ff1660f81b81526001019350505050604051602081830303815290604052935050505092915050565b600080600054905060405161190160005281602052836040526042601e209250806040525050919050565b6000806020840151905060208302602060e101850101519150808310612dd2576040517f08c379a000000000000000000000000000000000000000000000000000000000815260040180806020018281038252605e815260200180612ebe605e913960600191505060405180910390fd5b509291505056fe6f6e6c7920756e7370656e74206e6f7465732063616e20626520617070726f766564746865206e6f7465206f776e657220646964206e6f74207369676e2074686973206d657373616765746865206e6f7465206f776e657220646964206e6f74207369676e20746869732070726f6f66454950373132446f6d61696e28737472696e67206e616d652c737472696e672076657273696f6e2c6164647265737320766572696679696e67436f6e74726163742963616c6c657220646f6573206e6f742068617665207065726d697373696f6e20746f20757064617465206d6574614461746161646472657373506f73206f7574206f6620626f756e6473202d2061646472657373506f73206d757374206265206c657373207468616e20746865206e756d626572206f662061646472657373657320746f20626520617070726f76656473656e64657220646f6573206e6f74206861766520617070726f76616c20746f207370656e6420696e707574206e6f7465415a54454320617272617920696e646578206973206f7574206f6620626f756e6473a265627a7a72315820e76186519ab027f5b3a191ccce216041b22ce5c2782eb9ae22863ee4e999183e64736f6c63430005100032",
  "source": "pragma solidity >=0.5.0 <0.6.0;\n\nimport \"openzeppelin-solidity/contracts/math/SafeMath.sol\";\n\nimport \"../../libs/NoteUtils.sol\";\nimport \"../../interfaces/IACE.sol\";\nimport \"../../interfaces/IAZTEC.sol\";\nimport \"../../interfaces/IZkAsset.sol\";\nimport \"../../interfaces/IERC20Mintable.sol\";\nimport \"../../libs/LibEIP712.sol\";\nimport \"../../libs/MetaDataUtils.sol\";\nimport \"../../libs/ProofUtils.sol\";\n\n/**\n * @title ZkAssetBase\n * @author AZTEC\n * @dev A contract defining the standard interface and behaviours of a confidential asset.\n * The ownership values and transfer values are encrypted.\n *\n * Copyright 2020 Spilsbury Holdings Ltd \n *\n * Licensed under the GNU Lesser General Public Licence, Version 3.0 (the \"License\");\n * you may not use this file except in compliance with the License.\n *\n * This program is distributed in the hope that it will be useful,\n * but WITHOUT ANY WARRANTY; without even the implied warranty of\n * MERCHANTABILITY or FITNESS FOR A PARTICULAR PURPOSE.  See the\n * GNU Lesser General Public License for more details.\n *\n * You should have received a copy of the GNU Lesser General Public License\n * along with this program.  If not, see <https://www.gnu.org/licenses/>.\n**/\ncontract ZkAssetBase is IZkAsset, IAZTEC, LibEIP712 {\n    using NoteUtils for bytes;\n    using SafeMath for uint256;\n    using ProofUtils for uint24;\n\n    // EIP712 Domain Name value\n    string constant internal EIP712_DOMAIN_NAME = \"ZK_ASSET\";\n\n    bytes32 constant internal PROOF_SIGNATURE_TYPE_HASH = keccak256(abi.encodePacked(\n        \"ProofSignature(\",\n            \"bytes32 proofHash,\",\n            \"address spender,\",\n            \"bool approval\",\n        \")\"\n    ));\n    string private constant EIP712_DOMAIN  = \"EIP712Domain(string name,string version,address verifyingContract)\";\n\n    bytes32 private constant EIP712_DOMAIN_TYPEHASH = keccak256(abi.encodePacked(EIP712_DOMAIN));\n\n    bytes32 constant internal NOTE_SIGNATURE_TYPEHASH = keccak256(abi.encodePacked(\n        \"NoteSignature(\",\n            \"bytes32 noteHash,\",\n            \"address spender,\",\n            \"bool spenderApproval\",\n        \")\"\n    ));\n\n    bytes32 constant internal JOIN_SPLIT_SIGNATURE_TYPE_HASH = keccak256(abi.encodePacked(\n        \"JoinSplitSignature(\",\n            \"uint24 proof,\",\n            \"bytes32 noteHash,\",\n            \"uint256 challenge,\",\n            \"address sender\",\n        \")\"\n    ));\n\n    IACE public ace;\n    IERC20Mintable public linkedToken;\n\n    mapping(bytes32 => mapping(address => bool)) public confidentialApproved;\n    mapping(bytes32 => uint256) public metaDataTimeLog;\n    mapping(bytes32 => uint256) public noteAccess;\n    mapping(bytes32 => bool) public signatureLog;\n\n    constructor(\n        address _aceAddress,\n        address _linkedTokenAddress,\n        uint256 _scalingFactor,\n        bool _canAdjustSupply\n    ) public {\n        bool canConvert = (_linkedTokenAddress == address(0x0)) ? false : true;\n        EIP712_DOMAIN_HASH = keccak256(abi.encodePacked(\n            EIP712_DOMAIN_SEPARATOR_SCHEMA_HASH,\n            keccak256(bytes(EIP712_DOMAIN_NAME)),\n            keccak256(bytes(EIP712_DOMAIN_VERSION)),\n            bytes32(uint256(address(this)))\n        ));\n        ace = IACE(_aceAddress);\n        linkedToken = IERC20Mintable(_linkedTokenAddress);\n        ace.createNoteRegistry(\n            _linkedTokenAddress,\n            _scalingFactor,\n            _canAdjustSupply,\n            canConvert\n        );\n        emit CreateZkAsset(\n            _aceAddress,\n            _linkedTokenAddress,\n            _scalingFactor,\n            _canAdjustSupply,\n            canConvert\n        );\n    }\n\n    /**\n    * @dev Executes a basic unilateral, confidential transfer of AZTEC notes\n    * Will submit _proofData to the validateProof() function of the Cryptography Engine.\n    *\n    * Upon successfull verification, it will update note registry state - creating output notes and\n    * destroying input notes.\n    *\n    * @param _proofId - id of proof to be validated. Needs to be a balanced proof.\n    * @param _proofData - bytes variable outputted from a proof verification contract, representing\n    * transfer instructions for the IACE\n    * @param _signatures - array of the ECDSA signatures over all inputNotes\n    */\n    function confidentialTransfer(uint24 _proofId, bytes memory _proofData, bytes memory _signatures) public {\n        // Check that it's a balanced proof\n        (, uint8 category, ) = _proofId.getProofComponents();\n\n        require(category == uint8(ProofCategory.BALANCED), \"this is not a balanced proof\");\n        bytes memory proofOutputs = ace.validateProof(_proofId, msg.sender, _proofData);\n        confidentialTransferInternal(_proofId, proofOutputs, _signatures, _proofData);\n    }\n\n    /**\n    * @dev Executes a basic unilateral, confidential transfer of AZTEC notes\n    * Will submit _proofData to the validateProof() function of the Cryptography Engine.\n    *\n    * Upon successfull verification, it will update note registry state - creating output notes and\n    * destroying input notes.\n    *\n    * @param _proofData - bytes variable outputted from a proof verification contract, representing\n    * transfer instructions for the IACE\n    * @param _signatures - array of the ECDSA signatures over all inputNotes\n    */\n    function confidentialTransfer(bytes memory _proofData, bytes memory _signatures) public {\n        confidentialTransfer(JOIN_SPLIT_PROOF, _proofData, _signatures);\n    }\n\n    /**\n    * @dev Note owner approving a third party, another address, to spend the note on\n    * owner's behalf. This is necessary to allow the confidentialTransferFrom() method\n    * to be called\n    *\n    * @param _noteHash - keccak256 hash of the note coordinates (gamma and sigma)\n    * @param _spender - address being approved to spend the note\n    * @param _spenderApproval - defines whether the _spender address is being approved to spend the\n    * note, or if permission is being revoked. True if approved, false if not approved\n    * @param _signature - ECDSA signature from the note owner that validates the\n    * confidentialApprove() instruction\n    */\n    function confidentialApprove(\n        bytes32 _noteHash,\n        address _spender,\n        bool _spenderApproval,\n        bytes memory _signature\n    ) public {\n        ( uint8 status, , , ) = ace.getNote(address(this), _noteHash);\n        require(status == 1, \"only unspent notes can be approved\");\n\n        bytes32 signatureHash = keccak256(abi.encodePacked(_signature));\n        require(signatureLog[signatureHash] != true, \"signature has already been used\");\n        // Only need to prevent replay from calls where msg.sender isn't owner of note.\n        if (_signature.length != 0) {\n            signatureLog[signatureHash] = true;\n        }\n\n        bytes32 _hashStruct = keccak256(abi.encode(\n                NOTE_SIGNATURE_TYPEHASH,\n                _noteHash,\n                _spender,\n                _spenderApproval\n        ));\n\n        validateSignature(_hashStruct, _noteHash, _signature);\n        confidentialApproved[_noteHash][_spender] = _spenderApproval;\n    }\n\n    /**\n     * @dev Note owner can approve a third party address, such as a smart contract,\n     * to spend a proof on their behalf. This allows a batch approval of notes\n     * to be performed, rather than individually for each note via confidentialApprove().\n     *\n     * @param _proofId - id of proof to be approved. Needs to be a balanced proof.\n     * @param _proofOutputs - data of proof\n     * @param _spender - address being approved to spend the notes\n     * @param _proofSignature - ECDSA signature over the proof, approving it to be spent\n     */\n    function approveProof(\n        uint24 _proofId,\n        bytes calldata _proofOutputs,\n        address _spender,\n        bool _approval,\n        bytes calldata _proofSignature\n    ) external {\n        // Prevent possible replay attacks\n        bytes32 signatureHash = keccak256(_proofSignature);\n        require(signatureLog[signatureHash] != true, \"signature has already been used\");\n        signatureLog[signatureHash] = true;\n\n        bytes32 DOMAIN_SEPARATOR = keccak256(abi.encode(\n            EIP712_DOMAIN_TYPEHASH,\n            keccak256(\"ZK_ASSET\"),\n            keccak256(\"1\"),\n            address(this)\n        ));\n\n        bytes32 msgHash = keccak256(abi.encodePacked(\n            \"\\x19\\x01\",\n            DOMAIN_SEPARATOR,\n            keccak256(abi.encode(\n                PROOF_SIGNATURE_TYPE_HASH,\n                keccak256(_proofOutputs),\n                _spender,\n                _approval\n            ))\n        ));\n\n        address signer = recoverSignature(\n            msgHash,\n            _proofSignature\n        );\n\n        for (uint i = 0; i < _proofOutputs.getLength(); i += 1) {\n            bytes memory proofOutput = _proofOutputs.get(i);\n\n            (bytes memory inputNotes,,,) = proofOutput.extractProofOutput();\n\n            for (uint256 j = 0; j < inputNotes.getLength(); j += 1) {\n                (, bytes32 noteHash, ) = inputNotes.get(j).extractNote();\n                ( uint8 status, , , address noteOwner ) = ace.getNote(address(this), noteHash);\n                require(status == 1, \"only unspent notes can be approved\");\n                require(noteOwner == signer, \"the note owner did not sign this proof\");\n            }\n\n            confidentialApproved[keccak256(proofOutput)][_spender] = _approval;\n        }\n    }\n\n    /**\n    * @dev Perform ECDSA signature validation for a signature over an input note\n    *\n    * @param _hashStruct - the data to sign in an EIP712 signature\n    * @param _noteHash - keccak256 hash of the note coordinates (gamma and sigma)\n    * @param _signature - ECDSA signature for a particular input note\n    */\n    function validateSignature(\n        bytes32 _hashStruct,\n        bytes32 _noteHash,\n        bytes memory _signature\n    ) internal view {\n        (, , , address noteOwner ) = ace.getNote(address(this), _noteHash);\n\n        address signer;\n        if (_signature.length != 0) {\n            // validate EIP712 signature\n            bytes32 msgHash = hashEIP712Message(_hashStruct);\n            signer = recoverSignature(\n                msgHash,\n                _signature\n            );\n        } else {\n            signer = msg.sender;\n        }\n        require(signer == noteOwner, \"the note owner did not sign this message\");\n    }\n\n    /**\n    * @dev Extract the appropriate ECDSA signature from an array of signatures,\n    *\n    * @param _signatures - array of ECDSA signatures over all inputNotes\n    * @param _i - index used to determine which signature element is desired\n    */\n    function extractSignature(bytes memory _signatures, uint _i) internal pure returns (\n        bytes memory _signature\n    ){\n        bytes32 r;\n        bytes32 s;\n        uint8 v;\n\n        assembly {\n            // memory map of signatures\n            // 0x00 - 0x20 : length of signature array\n            // 0x20 - 0x40 : first sig, r\n            // 0x40 - 0x60 : first sig, s\n            // 0x61 - 0x62 : first sig, v\n            // 0x62 - 0x82 : second sig, r\n            // and so on...\n            // Length of a signature = 0x41\n\n            let sigLength := 0x41\n\n            r := mload(add(add(_signatures, 0x20), mul(_i, sigLength)))\n            s := mload(add(add(_signatures, 0x40), mul(_i, sigLength)))\n            v := mload(add(add(_signatures, 0x41), mul(_i, sigLength)))\n        }\n\n        _signature = abi.encodePacked(r, s, v);\n    }\n\n    /**\n    * @dev Executes a value transfer mediated by smart contracts. The method is supplied with\n    * transfer instructions represented by a bytes _proofOutput argument that was outputted\n    * from a proof verification contract.\n    *\n    * @param _proof - uint24 variable which acts as a unique identifier for the proof which\n    * _proofOutput is being submitted. _proof contains three concatenated uint8 variables:\n    * 1) epoch number 2) category number 3) ID number for the proof\n    * @param _proofOutput - output of a zero-knowledge proof validation contract. Represents\n    * transfer instructions for the IACE\n    */\n    function confidentialTransferFrom(uint24 _proof, bytes memory _proofOutput) public {\n        (bytes memory inputNotes,\n        bytes memory outputNotes,\n        address publicOwner,\n        int256 publicValue) = _proofOutput.extractProofOutput();\n\n        bytes32 proofHash = keccak256(_proofOutput);\n\n        if (confidentialApproved[proofHash][msg.sender] != true) {\n            uint256 length = inputNotes.getLength();\n            for (uint i = 0; i < length; i += 1) {\n                (, bytes32 noteHash, ) = inputNotes.get(i).extractNote();\n                require(\n                    confidentialApproved[noteHash][msg.sender] == true,\n                    \"sender does not have approval to spend input note\"\n                );\n            }\n        }\n\n        ace.updateNoteRegistry(_proof, _proofOutput, msg.sender);\n\n        logInputNotes(inputNotes);\n        logOutputNotes(outputNotes);\n\n        if (publicValue < 0) {\n            emit ConvertTokens(publicOwner, uint256(-publicValue));\n        }\n        if (publicValue > 0) {\n            emit RedeemTokens(publicOwner, uint256(publicValue));\n        }\n    }\n\n    /**\n    * @dev Internal method to act on transfer instructions from a successful proof validation.\n    * Specifically, it:\n    * - extracts the relevant objects from the proofOutput object\n    * - validates an EIP712 signature over each input note\n    * - updates note registry state\n    * - emits events for note creation/destruction\n    * - converts or redeems tokens, according to the publicValue\n    * @param _proofId - id of proof resulting in _proofData\n    * @param proofOutputs - transfer instructions from a zero-knowledege proof validator\n    * contract\n    * @param _signatures - ECDSA signatures over a set of input notes\n    * @param _proofData - cryptographic proof data outputted from a proof construction\n    * operation\n    */\n    function confidentialTransferInternal(\n        uint24 _proofId,\n        bytes memory proofOutputs,\n        bytes memory _signatures,\n        bytes memory _proofData\n    ) internal {\n        bytes32 _challenge;\n        assembly {\n            _challenge := mload(add(_proofData, 0x40))\n        }\n\n        for (uint i = 0; i < proofOutputs.getLength(); i += 1) {\n            bytes memory proofOutput = proofOutputs.get(i);\n            ace.updateNoteRegistry(_proofId, proofOutput, address(this));\n\n            (bytes memory inputNotes,\n            bytes memory outputNotes,\n            address publicOwner,\n            int256 publicValue) = proofOutput.extractProofOutput();\n\n\n            if (inputNotes.getLength() > uint(0)) {\n                for (uint j = 0; j < inputNotes.getLength(); j += 1) {\n                    bytes memory _signature = extractSignature(_signatures, j);\n\n                    (, bytes32 noteHash, ) = inputNotes.get(j).extractNote();\n\n                    bytes32 hashStruct = keccak256(abi.encode(\n                        JOIN_SPLIT_SIGNATURE_TYPE_HASH,\n                        _proofId,\n                        noteHash,\n                        _challenge,\n                        msg.sender\n                    ));\n\n                    validateSignature(hashStruct, noteHash, _signature);\n                }\n            }\n\n            logInputNotes(inputNotes);\n            logOutputNotes(outputNotes);\n            if (publicValue < 0) {\n                emit ConvertTokens(publicOwner, uint256(-publicValue));\n            }\n            if (publicValue > 0) {\n                emit RedeemTokens(publicOwner, uint256(publicValue));\n            }\n\n        }\n    }\n\n    /**\n    * @dev Update the metadata of a note that already exists in storage.\n    * @param noteHash - hash of a note, used as a unique identifier for the note\n    * @param metaData - metadata to update the note with\n    */\n    function updateNoteMetaData(bytes32 noteHash, bytes memory metaData) public {\n        // Get the note from this assets registry\n        ( uint8 status, , , address noteOwner ) = ace.getNote(address(this), noteHash);\n\n        bytes32 addressID = keccak256(abi.encodePacked(msg.sender, noteHash));\n        require(\n            (noteAccess[addressID] >= metaDataTimeLog[noteHash] || noteOwner == msg.sender) && status == 1,\n            'caller does not have permission to update metaData'\n        );\n\n        // Approve the addresses in the note metaData\n        approveAddresses(metaData, noteHash);\n\n        // Set the metaDataTimeLog to the latest block time\n        setMetaDataTimeLog(noteHash);\n\n        emit UpdateNoteMetaData(noteOwner, noteHash, metaData);\n    }\n\n    /**\n    * @dev Set the metaDataTimeLog mapping\n    * @param noteHash - hash of a note, used as a unique identifier for the note\n    */\n    function setMetaDataTimeLog(bytes32 noteHash) internal {\n        metaDataTimeLog[noteHash] = block.timestamp;\n    }\n\n    /**\n    * @dev Add approved addresses to a noteAccess mapping and to the global collection of addresses that\n    * have been approved\n    * @param metaData - metaData of a note, which contains addresses to be approved\n    * @param noteHash - hash of an AZTEC note, a unique identifier of the note\n    */\n    function approveAddresses(bytes memory metaData, bytes32 noteHash) internal {\n        /**\n        * Memory map of metaData\n        * 0x00 - 0x20 : length of metaData\n        * 0x20 - 0x81 : ephemeral key\n        * 0x81 - 0xa1 : approved addresses offset\n        * 0xa1 - 0xc1 : encrypted view keys offset\n        * 0xc1 - 0xe1 : app data offset\n        * 0xe1 - L_addresses : approvedAddresses\n        * (0xe1 + L_addresses) - (0xe1 + L_addresses + L_encryptedViewKeys) : encrypted view keys\n        * (0xe1 + L_addresses + L_encryptedViewKeys) - (0xe1 + L_addresses + L_encryptedViewKeys + L_appData) : appData\n        */\n\n        bytes32 metaDataLength;\n        bytes32 numAddresses;\n        assembly {\n            metaDataLength := mload(metaData)\n            numAddresses := mload(add(metaData, 0xe1))\n        }\n\n        // if customData has been set, approve the relevant addresses\n        if (uint256(metaDataLength) > 0x61) {\n            for (uint256 i = 0; i < uint256(numAddresses); i += 1) {\n                address extractedAddress = MetaDataUtils.extractAddress(metaData, i);\n                bytes32 addressID = keccak256(abi.encodePacked(extractedAddress, noteHash));\n                noteAccess[addressID] = block.timestamp;\n            }\n        }\n    }\n\n\n    /**\n    * @dev Emit events for all input notes, which represent notes being destroyed\n    * and removed from the note registry\n    *\n    * @param inputNotes - input notes being destroyed and removed from note registry state\n    */\n    function logInputNotes(bytes memory inputNotes) internal {\n        for (uint i = 0; i < inputNotes.getLength(); i += 1) {\n            (address noteOwner, bytes32 noteHash, ) = inputNotes.get(i).extractNote();\n            emit DestroyNote(noteOwner, noteHash);\n        }\n    }\n\n    /**\n    * @dev Emit events for all output notes, which represent notes being created and added\n    * to the note registry\n    *\n    * @param outputNotes - outputNotes being created and added to note registry state\n    */\n    function logOutputNotes(bytes memory outputNotes) internal {\n        for (uint i = 0; i < outputNotes.getLength(); i += 1) {\n            (address noteOwner, bytes32 noteHash, bytes memory metaData) = outputNotes.get(i).extractNote();\n            setMetaDataTimeLog(noteHash);\n            approveAddresses(metaData, noteHash);\n            emit CreateNote(noteOwner, noteHash, metaData);\n        }\n    }\n}\n",
  "sourcePath": "@aztec/protocol/contracts/ERC1724/base/ZkAssetBase.sol",
  "compiler": {
    "name": "solc",
    "version": "0.5.16+commit.9c3226ce.Emscripten.clang"
  },
  "schemaVersion": "3.2.0",
  "updatedAt": "2020-07-07T03:22:24.646Z",
  "devdoc": {
    "author": "AZTEC",
    "details": "A contract defining the standard interface and behaviours of a confidential asset. The ownership values and transfer values are encrypted. * Copyright 2020 Spilsbury Holdings Ltd  * Licensed under the GNU Lesser General Public Licence, Version 3.0 (the \"License\"); you may not use this file except in compliance with the License. * This program is distributed in the hope that it will be useful, but WITHOUT ANY WARRANTY; without even the implied warranty of MERCHANTABILITY or FITNESS FOR A PARTICULAR PURPOSE.  See the GNU Lesser General Public License for more details. * You should have received a copy of the GNU Lesser General Public License along with this program.  If not, see <https://www.gnu.org/licenses/>.*",
    "methods": {
      "approveProof(uint24,bytes,address,bool,bytes)": {
        "details": "Note owner can approve a third party address, such as a smart contract, to spend a proof on their behalf. This allows a batch approval of notes to be performed, rather than individually for each note via confidentialApprove().",
        "params": {
          "_proofId": "- id of proof to be approved. Needs to be a balanced proof.",
          "_proofOutputs": "- data of proof",
          "_proofSignature": "- ECDSA signature over the proof, approving it to be spent",
          "_spender": "- address being approved to spend the notes"
        }
      },
      "confidentialApprove(bytes32,address,bool,bytes)": {
        "details": "Note owner approving a third party, another address, to spend the note on owner's behalf. This is necessary to allow the confidentialTransferFrom() method to be called",
        "params": {
          "_noteHash": "- keccak256 hash of the note coordinates (gamma and sigma)",
          "_signature": "- ECDSA signature from the note owner that validates the confidentialApprove() instruction",
          "_spender": "- address being approved to spend the note",
          "_spenderApproval": "- defines whether the _spender address is being approved to spend the note, or if permission is being revoked. True if approved, false if not approved"
        }
      },
      "confidentialTransfer(bytes,bytes)": {
        "details": "Executes a basic unilateral, confidential transfer of AZTEC notes Will submit _proofData to the validateProof() function of the Cryptography Engine.    * Upon successfull verification, it will update note registry state - creating output notes and destroying input notes.",
        "params": {
          "_proofData": "- bytes variable outputted from a proof verification contract, representing transfer instructions for the IACE",
          "_signatures": "- array of the ECDSA signatures over all inputNotes"
        }
      },
      "confidentialTransfer(uint24,bytes,bytes)": {
        "details": "Executes a basic unilateral, confidential transfer of AZTEC notes Will submit _proofData to the validateProof() function of the Cryptography Engine.    * Upon successfull verification, it will update note registry state - creating output notes and destroying input notes.",
        "params": {
          "_proofData": "- bytes variable outputted from a proof verification contract, representing transfer instructions for the IACE",
          "_proofId": "- id of proof to be validated. Needs to be a balanced proof.",
          "_signatures": "- array of the ECDSA signatures over all inputNotes"
        }
      },
      "confidentialTransferFrom(uint24,bytes)": {
        "details": "Executes a value transfer mediated by smart contracts. The method is supplied with transfer instructions represented by a bytes _proofOutput argument that was outputted from a proof verification contract.",
        "params": {
          "_proof": "- uint24 variable which acts as a unique identifier for the proof which _proofOutput is being submitted. _proof contains three concatenated uint8 variables: 1) epoch number 2) category number 3) ID number for the proof",
          "_proofOutput": "- output of a zero-knowledge proof validation contract. Represents transfer instructions for the IACE"
        }
      },
      "updateNoteMetaData(bytes32,bytes)": {
        "details": "Update the metadata of a note that already exists in storage.",
        "params": {
          "metaData": "- metadata to update the note with",
          "noteHash": "- hash of a note, used as a unique identifier for the note"
        }
      }
    },
    "title": "ZkAssetBase"
  },
  "userdoc": {
    "methods": {}
  }
}